{"contracts/CarbonOffsetNFT.sol":{"CarbonOffsetNFT":{"abi":[{"inputs":[],"stateMutability":"nonpayable","type":"constructor"},{"inputs":[],"name":"AlreadyListed","type":"error"},{"inputs":[],"name":"ClaimDoesNotExist","type":"error"},{"inputs":[],"name":"InsufficientFunds","type":"error"},{"inputs":[],"name":"InvalidCO2Offset","type":"error"},{"inputs":[],"name":"InvalidDescription","type":"error"},{"inputs":[],"name":"InvalidIPFSHash","type":"error"},{"inputs":[],"name":"InvalidPrice","type":"error"},{"inputs":[],"name":"InvalidProjectName","type":"error"},{"inputs":[],"name":"NotClaimant","type":"error"},{"inputs":[],"name":"NotListed","type":"error"},{"inputs":[],"name":"NotPending","type":"error"},{"anonymous":false,"inputs":[{"indexed":true,"internalType":"address","name":"owner","type":"address"},{"indexed":true,"internalType":"address","name":"approved","type":"address"},{"indexed":true,"internalType":"uint256","name":"tokenId","type":"uint256"}],"name":"Approval","type":"event"},{"anonymous":false,"inputs":[{"indexed":true,"internalType":"address","name":"owner","type":"address"},{"indexed":true,"internalType":"address","name":"operator","type":"address"},{"indexed":false,"internalType":"bool","name":"approved","type":"bool"}],"name":"ApprovalForAll","type":"event"},{"anonymous":false,"inputs":[{"indexed":false,"internalType":"uint256","name":"_fromTokenId","type":"uint256"},{"indexed":false,"internalType":"uint256","name":"_toTokenId","type":"uint256"}],"name":"BatchMetadataUpdate","type":"event"},{"anonymous":false,"inputs":[{"indexed":true,"internalType":"uint256","name":"claimId","type":"uint256"},{"indexed":true,"internalType":"uint256","name":"tokenId","type":"uint256"}],"name":"ClaimApproved","type":"event"},{"anonymous":false,"inputs":[{"indexed":true,"internalType":"uint256","name":"claimId","type":"uint256"},{"indexed":false,"internalType":"string","name":"reason","type":"string"}],"name":"ClaimRejected","type":"event"},{"anonymous":false,"inputs":[{"indexed":true,"internalType":"uint256","name":"claimId","type":"uint256"},{"indexed":true,"internalType":"address","name":"claimant","type":"address"},{"indexed":false,"internalType":"string","name":"projectName","type":"string"},{"indexed":false,"internalType":"uint256","name":"co2Offset","type":"uint256"},{"indexed":false,"internalType":"string","name":"ipfsHash","type":"string"}],"name":"ClaimSubmitted","type":"event"},{"anonymous":false,"inputs":[{"indexed":false,"internalType":"uint256","name":"_tokenId","type":"uint256"}],"name":"MetadataUpdate","type":"event"},{"anonymous":false,"inputs":[{"indexed":true,"internalType":"address","name":"previousOwner","type":"address"},{"indexed":true,"internalType":"address","name":"newOwner","type":"address"}],"name":"OwnershipTransferred","type":"event"},{"anonymous":false,"inputs":[{"indexed":true,"internalType":"uint256","name":"tokenId","type":"uint256"}],"name":"TokenBurned","type":"event"},{"anonymous":false,"inputs":[{"indexed":true,"internalType":"uint256","name":"tokenId","type":"uint256"},{"indexed":false,"internalType":"uint256","name":"price","type":"uint256"}],"name":"TokenListed","type":"event"},{"anonymous":false,"inputs":[{"indexed":true,"internalType":"uint256","name":"tokenId","type":"uint256"},{"indexed":true,"internalType":"address","name":"buyer","type":"address"},{"indexed":false,"internalType":"uint256","name":"price","type":"uint256"}],"name":"TokenPurchased","type":"event"},{"anonymous":false,"inputs":[{"indexed":true,"internalType":"uint256","name":"tokenId","type":"uint256"}],"name":"TokenUnlisted","type":"event"},{"anonymous":false,"inputs":[{"indexed":true,"internalType":"address","name":"from","type":"address"},{"indexed":true,"internalType":"address","name":"to","type":"address"},{"indexed":true,"internalType":"uint256","name":"tokenId","type":"uint256"}],"name":"Transfer","type":"event"},{"inputs":[{"internalType":"address","name":"to","type":"address"},{"internalType":"uint256","name":"tokenId","type":"uint256"}],"name":"approve","outputs":[],"stateMutability":"nonpayable","type":"function"},{"inputs":[{"internalType":"uint256","name":"claimId","type":"uint256"},{"internalType":"string","name":"tokenURI","type":"string"}],"name":"approveClaim","outputs":[],"stateMutability":"nonpayable","type":"function"},{"inputs":[{"internalType":"address","name":"owner","type":"address"}],"name":"balanceOf","outputs":[{"internalType":"uint256","name":"","type":"uint256"}],"stateMutability":"view","type":"function"},{"inputs":[{"internalType":"uint256","name":"tokenId","type":"uint256"}],"name":"burn","outputs":[],"stateMutability":"nonpayable","type":"function"},{"inputs":[{"internalType":"uint256","name":"","type":"uint256"}],"name":"claims","outputs":[{"internalType":"string","name":"projectName","type":"string"},{"internalType":"string","name":"description","type":"string"},{"internalType":"uint256","name":"co2Offset","type":"uint256"},{"internalType":"string","name":"ipfsHash","type":"string"},{"internalType":"address","name":"claimant","type":"address"},{"internalType":"enum CarbonOffsetNFT.ClaimStatus","name":"status","type":"uint8"}],"stateMutability":"view","type":"function"},{"inputs":[],"name":"externalToken","outputs":[{"internalType":"address","name":"","type":"address"}],"stateMutability":"view","type":"function"},{"inputs":[{"internalType":"uint256","name":"tokenId","type":"uint256"}],"name":"getApproved","outputs":[{"internalType":"address","name":"","type":"address"}],"stateMutability":"view","type":"function"},{"inputs":[],"name":"getClaimCount","outputs":[{"internalType":"uint256","name":"","type":"uint256"}],"stateMutability":"view","type":"function"},{"inputs":[{"internalType":"address","name":"user","type":"address"}],"name":"getUserClaimCount","outputs":[{"internalType":"uint256","name":"","type":"uint256"}],"stateMutability":"view","type":"function"},{"inputs":[{"internalType":"address","name":"owner","type":"address"},{"internalType":"address","name":"operator","type":"address"}],"name":"isApprovedForAll","outputs":[{"internalType":"bool","name":"","type":"bool"}],"stateMutability":"view","type":"function"},{"inputs":[{"internalType":"uint256","name":"tokenId","type":"uint256"},{"internalType":"uint256","name":"price","type":"uint256"}],"name":"listToken","outputs":[],"stateMutability":"nonpayable","type":"function"},{"inputs":[],"name":"name","outputs":[{"internalType":"string","name":"","type":"string"}],"stateMutability":"view","type":"function"},{"inputs":[],"name":"owner","outputs":[{"internalType":"address","name":"","type":"address"}],"stateMutability":"view","type":"function"},{"inputs":[{"internalType":"uint256","name":"tokenId","type":"uint256"}],"name":"ownerOf","outputs":[{"internalType":"address","name":"","type":"address"}],"stateMutability":"view","type":"function"},{"inputs":[{"internalType":"uint256","name":"tokenId","type":"uint256"}],"name":"purchaseToken","outputs":[],"stateMutability":"payable","type":"function"},{"inputs":[{"internalType":"uint256","name":"claimId","type":"uint256"},{"internalType":"string","name":"reason","type":"string"}],"name":"rejectClaim","outputs":[],"stateMutability":"nonpayable","type":"function"},{"inputs":[],"name":"renounceOwnership","outputs":[],"stateMutability":"nonpayable","type":"function"},{"inputs":[{"internalType":"address","name":"from","type":"address"},{"internalType":"address","name":"to","type":"address"},{"internalType":"uint256","name":"tokenId","type":"uint256"}],"name":"safeTransferFrom","outputs":[],"stateMutability":"nonpayable","type":"function"},{"inputs":[{"internalType":"address","name":"from","type":"address"},{"internalType":"address","name":"to","type":"address"},{"internalType":"uint256","name":"tokenId","type":"uint256"},{"internalType":"bytes","name":"data","type":"bytes"}],"name":"safeTransferFrom","outputs":[],"stateMutability":"nonpayable","type":"function"},{"inputs":[{"internalType":"address","name":"operator","type":"address"},{"internalType":"bool","name":"approved","type":"bool"}],"name":"setApprovalForAll","outputs":[],"stateMutability":"nonpayable","type":"function"},{"inputs":[{"internalType":"address","name":"tokenAddress","type":"address"}],"name":"setExternalToken","outputs":[],"stateMutability":"nonpayable","type":"function"},{"inputs":[{"internalType":"uint256","name":"co2Offset","type":"uint256"},{"internalType":"string","name":"projectName","type":"string"},{"internalType":"string","name":"description","type":"string"},{"internalType":"string","name":"ipfsHash","type":"string"}],"name":"submitClaim","outputs":[],"stateMutability":"nonpayable","type":"function"},{"inputs":[{"internalType":"bytes4","name":"interfaceId","type":"bytes4"}],"name":"supportsInterface","outputs":[{"internalType":"bool","name":"","type":"bool"}],"stateMutability":"view","type":"function"},{"inputs":[],"name":"symbol","outputs":[{"internalType":"string","name":"","type":"string"}],"stateMutability":"view","type":"function"},{"inputs":[{"internalType":"uint256","name":"","type":"uint256"}],"name":"tokenPrices","outputs":[{"internalType":"uint256","name":"","type":"uint256"}],"stateMutability":"view","type":"function"},{"inputs":[{"internalType":"uint256","name":"","type":"uint256"}],"name":"tokenToClaim","outputs":[{"internalType":"uint256","name":"","type":"uint256"}],"stateMutability":"view","type":"function"},{"inputs":[{"internalType":"uint256","name":"tokenId","type":"uint256"}],"name":"tokenURI","outputs":[{"internalType":"string","name":"","type":"string"}],"stateMutability":"view","type":"function"},{"inputs":[],"name":"totalSupply","outputs":[{"internalType":"uint256","name":"","type":"uint256"}],"stateMutability":"view","type":"function"},{"inputs":[{"internalType":"address","name":"from","type":"address"},{"internalType":"address","name":"to","type":"address"},{"internalType":"uint256","name":"tokenId","type":"uint256"}],"name":"transferFrom","outputs":[],"stateMutability":"nonpayable","type":"function"},{"inputs":[{"internalType":"address","name":"newOwner","type":"address"}],"name":"transferOwnership","outputs":[],"stateMutability":"nonpayable","type":"function"},{"inputs":[{"internalType":"uint256","name":"tokenId","type":"uint256"}],"name":"unlistToken","outputs":[],"stateMutability":"nonpayable","type":"function"},{"inputs":[{"internalType":"address","name":"user","type":"address"},{"internalType":"uint256","name":"index","type":"uint256"}],"name":"userClaimIds","outputs":[{"internalType":"uint256","name":"","type":"uint256"}],"stateMutability":"view","type":"function"}],"evm":{"bytecode":{"linkReferences":{},"object":"60806040523480156200001157600080fd5b506040518060400160405280601781526020017f436172626f6e4f666673657443657274696669636174650000000000000000008152506040518060400160405280600381526020017f434f43000000000000000000000000000000000000000000000000000000000081525081600090816200008f91906200043f565b508060019081620000a191906200043f565b505050620000c4620000b8620000f760201b60201c565b620000ff60201b60201c565b6001600881905550620000f173238de20b86611085bb9ea960802e4b9587f1ebba620000ff60201b60201c565b62000526565b600033905090565b6000600760009054906101000a900473ffffffffffffffffffffffffffffffffffffffff16905081600760006101000a81548173ffffffffffffffffffffffffffffffffffffffff021916908373ffffffffffffffffffffffffffffffffffffffff1602179055508173ffffffffffffffffffffffffffffffffffffffff168173ffffffffffffffffffffffffffffffffffffffff167f8be0079c531659141344cd1fd0a4f28419497f9722a3daafe3b4186f6b6457e060405160405180910390a35050565b600081519050919050565b7f4e487b7100000000000000000000000000000000000000000000000000000000600052604160045260246000fd5b7f4e487b7100000000000000000000000000000000000000000000000000000000600052602260045260246000fd5b600060028204905060018216806200024757607f821691505b6020821081036200025d576200025c620001ff565b5b50919050565b60008190508160005260206000209050919050565b60006020601f8301049050919050565b600082821b905092915050565b600060088302620002c77fffffffffffffffffffffffffffffffffffffffffffffffffffffffffffffffff8262000288565b620002d3868362000288565b95508019841693508086168417925050509392505050565b6000819050919050565b6000819050919050565b6000620003206200031a6200031484620002eb565b620002f5565b620002eb565b9050919050565b6000819050919050565b6200033c83620002ff565b620003546200034b8262000327565b84845462000295565b825550505050565b600090565b6200036b6200035c565b6200037881848462000331565b505050565b5b81811015620003a0576200039460008262000361565b6001810190506200037e565b5050565b601f821115620003ef57620003b98162000263565b620003c48462000278565b81016020851015620003d4578190505b620003ec620003e38562000278565b8301826200037d565b50505b505050565b600082821c905092915050565b60006200041460001984600802620003f4565b1980831691505092915050565b60006200042f838362000401565b9150826002028217905092915050565b6200044a82620001c5565b67ffffffffffffffff811115620004665762000465620001d0565b5b6200047282546200022e565b6200047f828285620003a4565b600060209050601f831160018114620004b75760008415620004a2578287015190505b620004ae858262000421565b8655506200051e565b601f198416620004c78662000263565b60005b82811015620004f157848901518255600182019150602085019450602081019050620004ca565b868310156200051157848901516200050d601f89168262000401565b8355505b6001600288020188555050505b505050505050565b614b1d80620005366000396000f3fe6080604052600436106101e35760003560e01c80638ad5048b11610102578063ba4611d911610095578063e5afe3e611610064578063e5afe3e61461070a578063e985e9c514610747578063efbd8e5e14610784578063f2fde38b146107ad576101e3565b8063ba4611d91461065b578063c2db2c4214610686578063c87b56dd146106a2578063c9828ae0146106df576101e3565b8063a22cb465116100d1578063a22cb4651461059e578063a888c2cd146105c7578063ad3a358c14610609578063b88d4fde14610632576101e3565b80638ad5048b146104ce5780638da5cb5b1461050b57806395d89b411461053657806397ff9bce14610561576101e3565b80633577a5ad1161017a5780636352211e116101495780636352211e1461041457806370a0823114610451578063715018a61461048e57806375c1631d146104a5576101e3565b80633577a5ad1461035c57806340676a511461038557806342842e0e146103c257806342966c68146103eb576101e3565b80631633bb1b116101b65780631633bb1b146102b657806318160ddd146102df578063192875d71461030a57806323b872dd14610333576101e3565b806301ffc9a7146101e857806306fdde0314610225578063081812fc14610250578063095ea7b31461028d575b600080fd5b3480156101f457600080fd5b5061020f600480360381019061020a919061338a565b6107d6565b60405161021c91906133d2565b60405180910390f35b34801561023157600080fd5b5061023a6107e8565b604051610247919061347d565b60405180910390f35b34801561025c57600080fd5b50610277600480360381019061027291906134d5565b61087a565b6040516102849190613543565b60405180910390f35b34801561029957600080fd5b506102b460048036038101906102af919061358a565b6108c0565b005b3480156102c257600080fd5b506102dd60048036038101906102d891906135ca565b6109d7565b005b3480156102eb57600080fd5b506102f4610a23565b6040516103019190613606565b60405180910390f35b34801561031657600080fd5b50610331600480360381019061032c9190613756565b610a2d565b005b34801561033f57600080fd5b5061035a600480360381019061035591906137b2565b610c2a565b005b34801561036857600080fd5b50610383600480360381019061037e9190613756565b610c8a565b005b34801561039157600080fd5b506103ac60048036038101906103a791906135ca565b610e0c565b6040516103b99190613606565b60405180910390f35b3480156103ce57600080fd5b506103e960048036038101906103e491906137b2565b610e58565b005b3480156103f757600080fd5b50610412600480360381019061040d91906134d5565b610e78565b005b34801561042057600080fd5b5061043b600480360381019061043691906134d5565b610ef9565b6040516104489190613543565b60405180910390f35b34801561045d57600080fd5b50610478600480360381019061047391906135ca565b610f7f565b6040516104859190613606565b60405180910390f35b34801561049a57600080fd5b506104a3611036565b005b3480156104b157600080fd5b506104cc60048036038101906104c79190613805565b61104a565b005b3480156104da57600080fd5b506104f560048036038101906104f091906134d5565b6111e1565b6040516105029190613606565b60405180910390f35b34801561051757600080fd5b506105206111f9565b60405161052d9190613543565b60405180910390f35b34801561054257600080fd5b5061054b611223565b604051610558919061347d565b60405180910390f35b34801561056d57600080fd5b506105886004803603810190610583919061358a565b6112b5565b6040516105959190613606565b60405180910390f35b3480156105aa57600080fd5b506105c560048036038101906105c09190613871565b61139f565b005b3480156105d357600080fd5b506105ee60048036038101906105e991906134d5565b6113b5565b60405161060096959493929190613928565b60405180910390f35b34801561061557600080fd5b50610630600480360381019061062b91906134d5565b6115b6565b005b34801561063e57600080fd5b5061065960048036038101906106549190613a3f565b611708565b005b34801561066757600080fd5b5061067061176a565b60405161067d9190613606565b60405180910390f35b6106a0600480360381019061069b91906134d5565b611774565b005b3480156106ae57600080fd5b506106c960048036038101906106c491906134d5565b611a42565b6040516106d6919061347d565b60405180910390f35b3480156106eb57600080fd5b506106f4611d44565b6040516107019190613543565b60405180910390f35b34801561071657600080fd5b50610731600480360381019061072c91906134d5565b611d6a565b60405161073e9190613606565b60405180910390f35b34801561075357600080fd5b5061076e60048036038101906107699190613ac2565b611d82565b60405161077b91906133d2565b60405180910390f35b34801561079057600080fd5b506107ab60048036038101906107a69190613b02565b611e16565b005b3480156107b957600080fd5b506107d460048036038101906107cf91906135ca565b61211b565b005b60006107e18261219e565b9050919050565b6060600080546107f790613bec565b80601f016020809104026020016040519081016040528092919081815260200182805461082390613bec565b80156108705780601f1061084557610100808354040283529160200191610870565b820191906000526020600020905b81548152906001019060200180831161085357829003601f168201915b5050505050905090565b6000610885826121ff565b6004600083815260200190815260200160002060009054906101000a900473ffffffffffffffffffffffffffffffffffffffff169050919050565b60006108cb82610ef9565b90508073ffffffffffffffffffffffffffffffffffffffff168373ffffffffffffffffffffffffffffffffffffffff160361093b576040517f08c379a000000000000000000000000000000000000000000000000000000000815260040161093290613c8f565b60405180910390fd5b8073ffffffffffffffffffffffffffffffffffffffff1661095a61224a565b73ffffffffffffffffffffffffffffffffffffffff16148061098957506109888161098361224a565b611d82565b5b6109c8576040517f08c379a00000000000000000000000000000000000000000000000000000000081526004016109bf90613d21565b60405180910390fd5b6109d28383612252565b505050565b6109df61230b565b80600f60006101000a81548173ffffffffffffffffffffffffffffffffffffffff021916908373ffffffffffffffffffffffffffffffffffffffff16021790555050565b6000600b54905090565b610a3561230b565b610a3d612389565b6000600a60008481526020019081526020016000209050600073ffffffffffffffffffffffffffffffffffffffff168160040160009054906101000a900473ffffffffffffffffffffffffffffffffffffffff1673ffffffffffffffffffffffffffffffffffffffff1603610ade576040517fa019981800000000000000000000000000000000000000000000000000000000815260040160405180910390fd5b60006002811115610af257610af16138b1565b5b8160040160149054906101000a900460ff166002811115610b1657610b156138b1565b5b14610b4d576040517f7dc6505a00000000000000000000000000000000000000000000000000000000815260040160405180910390fd5b60018160040160146101000a81548160ff02191690836002811115610b7557610b746138b1565b5b02179055506000610b84610a23565b905083600c600083815260200190815260200160002081905550610bcc8260040160009054906101000a900473ffffffffffffffffffffffffffffffffffffffff16826123d8565b600b6000815480929190610bdf90613d70565b9190505550610bee81846123f6565b80847f638d892b8630b775fea5d7a52b209e8bfa1d90c32b57cd37208ac84d4bcd6dcb60405160405180910390a35050610c2661249a565b5050565b610c3b610c3561224a565b826124a4565b610c7a576040517f08c379a0000000000000000000000000000000000000000000000000000000008152600401610c7190613e2a565b60405180910390fd5b610c85838383612539565b505050565b610c9261230b565b6000600a60008481526020019081526020016000209050600073ffffffffffffffffffffffffffffffffffffffff168160040160009054906101000a900473ffffffffffffffffffffffffffffffffffffffff1673ffffffffffffffffffffffffffffffffffffffff1603610d33576040517fa019981800000000000000000000000000000000000000000000000000000000815260040160405180910390fd5b60006002811115610d4757610d466138b1565b5b8160040160149054906101000a900460ff166002811115610d6b57610d6a6138b1565b5b14610da2576040517f7dc6505a00000000000000000000000000000000000000000000000000000000815260040160405180910390fd5b60028160040160146101000a81548160ff02191690836002811115610dca57610dc96138b1565b5b0217905550827f43cc3d080e025c67c26d62b18bd442511dc9c76c8aa3f48cc0e8f456173e61f183604051610dff919061347d565b60405180910390a2505050565b6000600e60008373ffffffffffffffffffffffffffffffffffffffff1673ffffffffffffffffffffffffffffffffffffffff168152602001908152602001600020805490509050919050565b610e7383838360405180602001604052806000815250611708565b505050565b610e8181612832565b610ec0576040517f08c379a0000000000000000000000000000000000000000000000000000000008152600401610eb790613e96565b60405180910390fd5b610ec981612873565b807f0c526103b8f47af5516191d0c89a598755bd00faa211a3cb52e4c2cc782f7fe260405160405180910390a250565b600080610f05836128cf565b9050600073ffffffffffffffffffffffffffffffffffffffff168173ffffffffffffffffffffffffffffffffffffffff1603610f76576040517f08c379a0000000000000000000000000000000000000000000000000000000008152600401610f6d90613f02565b60405180910390fd5b80915050919050565b60008073ffffffffffffffffffffffffffffffffffffffff168273ffffffffffffffffffffffffffffffffffffffff1603610fef576040517f08c379a0000000000000000000000000000000000000000000000000000000008152600401610fe690613f94565b60405180910390fd5b600360008373ffffffffffffffffffffffffffffffffffffffff1673ffffffffffffffffffffffffffffffffffffffff168152602001908152602001600020549050919050565b61103e61230b565b611048600061290c565b565b611052612389565b61105b82612832565b611091576040517fa019981800000000000000000000000000000000000000000000000000000000815260040160405180910390fd5b3373ffffffffffffffffffffffffffffffffffffffff166110b183610ef9565b73ffffffffffffffffffffffffffffffffffffffff16146110fe576040517f94eeef6600000000000000000000000000000000000000000000000000000000815260040160405180910390fd5b60008103611137576040517ebfc92100000000000000000000000000000000000000000000000000000000815260040160405180910390fd5b6000600d6000848152602001908152602001600020541115611185576040517fa3d582ec00000000000000000000000000000000000000000000000000000000815260040160405180910390fd5b80600d600084815260200190815260200160002081905550817f1ea85aaf6731daa0c29195039c2a36576fb04e2cd16335504fab8967dfb03f15826040516111cd9190613606565b60405180910390a26111dd61249a565b5050565b600c6020528060005260406000206000915090505481565b6000600760009054906101000a900473ffffffffffffffffffffffffffffffffffffffff16905090565b60606001805461123290613bec565b80601f016020809104026020016040519081016040528092919081815260200182805461125e90613bec565b80156112ab5780601f10611280576101008083540402835291602001916112ab565b820191906000526020600020905b81548152906001019060200180831161128e57829003601f168201915b5050505050905090565b6000600e60008473ffffffffffffffffffffffffffffffffffffffff1673ffffffffffffffffffffffffffffffffffffffff16815260200190815260200160002080549050821061133b576040517f08c379a000000000000000000000000000000000000000000000000000000000815260040161133290614000565b60405180910390fd5b600e60008473ffffffffffffffffffffffffffffffffffffffff1673ffffffffffffffffffffffffffffffffffffffff168152602001908152602001600020828154811061138c5761138b614020565b5b9060005260206000200154905092915050565b6113b16113aa61224a565b83836129d2565b5050565b600a6020528060005260406000206000915090508060000180546113d890613bec565b80601f016020809104026020016040519081016040528092919081815260200182805461140490613bec565b80156114515780601f1061142657610100808354040283529160200191611451565b820191906000526020600020905b81548152906001019060200180831161143457829003601f168201915b50505050509080600101805461146690613bec565b80601f016020809104026020016040519081016040528092919081815260200182805461149290613bec565b80156114df5780601f106114b4576101008083540402835291602001916114df565b820191906000526020600020905b8154815290600101906020018083116114c257829003601f168201915b5050505050908060020154908060030180546114fa90613bec565b80601f016020809104026020016040519081016040528092919081815260200182805461152690613bec565b80156115735780601f1061154857610100808354040283529160200191611573565b820191906000526020600020905b81548152906001019060200180831161155657829003601f168201915b5050505050908060040160009054906101000a900473ffffffffffffffffffffffffffffffffffffffff16908060040160149054906101000a900460ff16905086565b6115be612389565b6115c781612832565b6115fd576040517fa019981800000000000000000000000000000000000000000000000000000000815260040160405180910390fd5b3373ffffffffffffffffffffffffffffffffffffffff1661161d82610ef9565b73ffffffffffffffffffffffffffffffffffffffff161461166a576040517f94eeef6600000000000000000000000000000000000000000000000000000000815260040160405180910390fd5b6000600d600083815260200190815260200160002054036116b7576040517f665c1c5700000000000000000000000000000000000000000000000000000000815260040160405180910390fd5b6000600d600083815260200190815260200160002081905550807fe0bba5d0bdeddbcc4ef688b9d8170c81883fb4c4a7065d8970c58b47996dd2d760405160405180910390a261170561249a565b50565b61171961171361224a565b836124a4565b611758576040517f08c379a000000000000000000000000000000000000000000000000000000000815260040161174f90613e2a565b60405180910390fd5b61176484848484612b3e565b50505050565b6000600954905090565b61177c612389565b61178581612832565b6117bb576040517fa019981800000000000000000000000000000000000000000000000000000000815260040160405180910390fd5b6000600d60008381526020019081526020016000205490506000810361180d576040517f665c1c5700000000000000000000000000000000000000000000000000000000815260040160405180910390fd5b80341015611847576040517f356680b700000000000000000000000000000000000000000000000000000000815260040160405180910390fd5b600061185283610ef9565b90506000600d600085815260200190815260200160002081905550611878813385612539565b60008173ffffffffffffffffffffffffffffffffffffffff168360405161189e90614080565b60006040518083038185875af1925050503d80600081146118db576040519150601f19603f3d011682016040523d82523d6000602084013e6118e0565b606091505b5050905080611924576040517f08c379a000000000000000000000000000000000000000000000000000000000815260040161191b906140e1565b60405180910390fd5b823411156119e55760003373ffffffffffffffffffffffffffffffffffffffff1684346119519190614101565b60405161195d90614080565b60006040518083038185875af1925050503d806000811461199a576040519150601f19603f3d011682016040523d82523d6000602084013e61199f565b606091505b50509050806119e3576040517f08c379a00000000000000000000000000000000000000000000000000000000081526004016119da90614181565b60405180910390fd5b505b3373ffffffffffffffffffffffffffffffffffffffff16847f1cb6dd09e77cf64c9d88c8e0cf8555ebff062045f2068f22efcbc60905730e7185604051611a2c9190613606565b60405180910390a3505050611a3f61249a565b50565b6060611a4d82612832565b611a8c576040517f08c379a0000000000000000000000000000000000000000000000000000000008152600401611a8390613e96565b60405180910390fd5b6000600c60008481526020019081526020016000205490506000600a60008381526020019081526020016000206040518060c0016040529081600082018054611ad490613bec565b80601f0160208091040260200160405190810160405280929190818152602001828054611b0090613bec565b8015611b4d5780601f10611b2257610100808354040283529160200191611b4d565b820191906000526020600020905b815481529060010190602001808311611b3057829003601f168201915b50505050508152602001600182018054611b6690613bec565b80601f0160208091040260200160405190810160405280929190818152602001828054611b9290613bec565b8015611bdf5780601f10611bb457610100808354040283529160200191611bdf565b820191906000526020600020905b815481529060010190602001808311611bc257829003601f168201915b5050505050815260200160028201548152602001600382018054611c0290613bec565b80601f0160208091040260200160405190810160405280929190818152602001828054611c2e90613bec565b8015611c7b5780601f10611c5057610100808354040283529160200191611c7b565b820191906000526020600020905b815481529060010190602001808311611c5e57829003601f168201915b505050505081526020016004820160009054906101000a900473ffffffffffffffffffffffffffffffffffffffff1673ffffffffffffffffffffffffffffffffffffffff1673ffffffffffffffffffffffffffffffffffffffff1681526020016004820160149054906101000a900460ff166002811115611cff57611cfe6138b1565b5b6002811115611d1157611d106138b1565b5b8152505090508060600151604051602001611d2c9190614229565b60405160208183030381529060405292505050919050565b600f60009054906101000a900473ffffffffffffffffffffffffffffffffffffffff1681565b600d6020528060005260406000206000915090505481565b6000600560008473ffffffffffffffffffffffffffffffffffffffff1673ffffffffffffffffffffffffffffffffffffffff16815260200190815260200160002060008373ffffffffffffffffffffffffffffffffffffffff1673ffffffffffffffffffffffffffffffffffffffff16815260200190815260200160002060009054906101000a900460ff16905092915050565b611e1e612389565b60008403611e58576040517f9a01e5fd00000000000000000000000000000000000000000000000000000000815260040160405180910390fd5b6000835103611e93576040517f7299cb4100000000000000000000000000000000000000000000000000000000815260040160405180910390fd5b6000825103611ece576040517f40132f1f00000000000000000000000000000000000000000000000000000000815260040160405180910390fd5b602e815114611f09576040517fdcdb6d0200000000000000000000000000000000000000000000000000000000815260040160405180910390fd5b600060096000815480929190611f1e90613d70565b9190505590506040518060c001604052808581526020018481526020018681526020018381526020013373ffffffffffffffffffffffffffffffffffffffff16815260200160006002811115611f7757611f766138b1565b5b815250600a60008381526020019081526020016000206000820151816000019081611fa291906143f7565b506020820151816001019081611fb891906143f7565b50604082015181600201556060820151816003019081611fd891906143f7565b5060808201518160040160006101000a81548173ffffffffffffffffffffffffffffffffffffffff021916908373ffffffffffffffffffffffffffffffffffffffff16021790555060a08201518160040160146101000a81548160ff0219169083600281111561204b5761204a6138b1565b5b0217905550905050600e60003373ffffffffffffffffffffffffffffffffffffffff1673ffffffffffffffffffffffffffffffffffffffff1681526020019081526020016000208190806001815401808255809150506001900390600052602060002001600090919091909150553373ffffffffffffffffffffffffffffffffffffffff16817fd33658690112e8fe52b8e29967ca1acaa7b543df9d4df01f8d18b8fb3d8622b1868886604051612104939291906144c9565b60405180910390a35061211561249a565b50505050565b61212361230b565b600073ffffffffffffffffffffffffffffffffffffffff168173ffffffffffffffffffffffffffffffffffffffff1603612192576040517f08c379a000000000000000000000000000000000000000000000000000000000815260040161218990614580565b60405180910390fd5b61219b8161290c565b50565b6000634906490660e01b7bffffffffffffffffffffffffffffffffffffffffffffffffffffffff1916827bffffffffffffffffffffffffffffffffffffffffffffffffffffffff191614806121f857506121f782612b9a565b5b9050919050565b61220881612832565b612247576040517f08c379a000000000000000000000000000000000000000000000000000000000815260040161223e90613f02565b60405180910390fd5b50565b600033905090565b816004600083815260200190815260200160002060006101000a81548173ffffffffffffffffffffffffffffffffffffffff021916908373ffffffffffffffffffffffffffffffffffffffff160217905550808273ffffffffffffffffffffffffffffffffffffffff166122c583610ef9565b73ffffffffffffffffffffffffffffffffffffffff167f8c5be1e5ebec7d5bd14f71427d1e84f3dd0314c0f7b2291e5b200ac8c7c3b92560405160405180910390a45050565b61231361224a565b73ffffffffffffffffffffffffffffffffffffffff166123316111f9565b73ffffffffffffffffffffffffffffffffffffffff1614612387576040517f08c379a000000000000000000000000000000000000000000000000000000000815260040161237e906145ec565b60405180910390fd5b565b6002600854036123ce576040517f08c379a00000000000000000000000000000000000000000000000000000000081526004016123c590614658565b60405180910390fd5b6002600881905550565b6123f2828260405180602001604052806000815250612c7c565b5050565b6123ff82612832565b61243e576040517f08c379a0000000000000000000000000000000000000000000000000000000008152600401612435906146ea565b60405180910390fd5b8060066000848152602001908152602001600020908161245e91906143f7565b507ff8e1a15aba9398e019f0b49df1a4fde98ee17ae345cb5f6b5e2c27f5033e8ce78260405161248e9190613606565b60405180910390a15050565b6001600881905550565b6000806124b083610ef9565b90508073ffffffffffffffffffffffffffffffffffffffff168473ffffffffffffffffffffffffffffffffffffffff1614806124f257506124f18185611d82565b5b8061253057508373ffffffffffffffffffffffffffffffffffffffff166125188461087a565b73ffffffffffffffffffffffffffffffffffffffff16145b91505092915050565b8273ffffffffffffffffffffffffffffffffffffffff1661255982610ef9565b73ffffffffffffffffffffffffffffffffffffffff16146125af576040517f08c379a00000000000000000000000000000000000000000000000000000000081526004016125a69061477c565b60405180910390fd5b600073ffffffffffffffffffffffffffffffffffffffff168273ffffffffffffffffffffffffffffffffffffffff160361261e576040517f08c379a00000000000000000000000000000000000000000000000000000000081526004016126159061480e565b60405180910390fd5b61262b8383836001612cd7565b8273ffffffffffffffffffffffffffffffffffffffff1661264b82610ef9565b73ffffffffffffffffffffffffffffffffffffffff16146126a1576040517f08c379a00000000000000000000000000000000000000000000000000000000081526004016126989061477c565b60405180910390fd5b6004600082815260200190815260200160002060006101000a81549073ffffffffffffffffffffffffffffffffffffffff02191690556001600360008573ffffffffffffffffffffffffffffffffffffffff1673ffffffffffffffffffffffffffffffffffffffff168152602001908152602001600020600082825403925050819055506001600360008473ffffffffffffffffffffffffffffffffffffffff1673ffffffffffffffffffffffffffffffffffffffff16815260200190815260200160002060008282540192505081905550816002600083815260200190815260200160002060006101000a81548173ffffffffffffffffffffffffffffffffffffffff021916908373ffffffffffffffffffffffffffffffffffffffff160217905550808273ffffffffffffffffffffffffffffffffffffffff168473ffffffffffffffffffffffffffffffffffffffff167fddf252ad1be2c89b69c2b068fc378daa952ba7f163c4a11628f55a4df523b3ef60405160405180910390a461282d8383836001612cdd565b505050565b60008073ffffffffffffffffffffffffffffffffffffffff16612854836128cf565b73ffffffffffffffffffffffffffffffffffffffff1614159050919050565b61288461287e61224a565b826124a4565b6128c3576040517f08c379a00000000000000000000000000000000000000000000000000000000081526004016128ba90613e2a565b60405180910390fd5b6128cc81612ce3565b50565b60006002600083815260200190815260200160002060009054906101000a900473ffffffffffffffffffffffffffffffffffffffff169050919050565b6000600760009054906101000a900473ffffffffffffffffffffffffffffffffffffffff16905081600760006101000a81548173ffffffffffffffffffffffffffffffffffffffff021916908373ffffffffffffffffffffffffffffffffffffffff1602179055508173ffffffffffffffffffffffffffffffffffffffff168173ffffffffffffffffffffffffffffffffffffffff167f8be0079c531659141344cd1fd0a4f28419497f9722a3daafe3b4186f6b6457e060405160405180910390a35050565b8173ffffffffffffffffffffffffffffffffffffffff168373ffffffffffffffffffffffffffffffffffffffff1603612a40576040517f08c379a0000000000000000000000000000000000000000000000000000000008152600401612a379061487a565b60405180910390fd5b80600560008573ffffffffffffffffffffffffffffffffffffffff1673ffffffffffffffffffffffffffffffffffffffff16815260200190815260200160002060008473ffffffffffffffffffffffffffffffffffffffff1673ffffffffffffffffffffffffffffffffffffffff16815260200190815260200160002060006101000a81548160ff0219169083151502179055508173ffffffffffffffffffffffffffffffffffffffff168373ffffffffffffffffffffffffffffffffffffffff167f17307eab39ab6107e8899845ad3d59bd9653f200f220920489ca2b5937696c3183604051612b3191906133d2565b60405180910390a3505050565b612b49848484612539565b612b5584848484612cef565b612b94576040517f08c379a0000000000000000000000000000000000000000000000000000000008152600401612b8b9061490c565b60405180910390fd5b50505050565b60007f80ac58cd000000000000000000000000000000000000000000000000000000007bffffffffffffffffffffffffffffffffffffffffffffffffffffffff1916827bffffffffffffffffffffffffffffffffffffffffffffffffffffffff19161480612c6557507f5b5e139f000000000000000000000000000000000000000000000000000000007bffffffffffffffffffffffffffffffffffffffffffffffffffffffff1916827bffffffffffffffffffffffffffffffffffffffffffffffffffffffff1916145b80612c755750612c7482612e76565b5b9050919050565b612c868383612ee0565b612c936000848484612cef565b612cd2576040517f08c379a0000000000000000000000000000000000000000000000000000000008152600401612cc99061490c565b60405180910390fd5b505050565b50505050565b50505050565b612cec816130fd565b50565b6000612d108473ffffffffffffffffffffffffffffffffffffffff16613150565b15612e69578373ffffffffffffffffffffffffffffffffffffffff1663150b7a02612d3961224a565b8786866040518563ffffffff1660e01b8152600401612d5b9493929190614981565b6020604051808303816000875af1925050508015612d9757506040513d601f19601f82011682018060405250810190612d9491906149e2565b60015b612e19573d8060008114612dc7576040519150601f19603f3d011682016040523d82523d6000602084013e612dcc565b606091505b506000815103612e11576040517f08c379a0000000000000000000000000000000000000000000000000000000008152600401612e089061490c565b60405180910390fd5b805181602001fd5b63150b7a0260e01b7bffffffffffffffffffffffffffffffffffffffffffffffffffffffff1916817bffffffffffffffffffffffffffffffffffffffffffffffffffffffff191614915050612e6e565b600190505b949350505050565b60007f01ffc9a7000000000000000000000000000000000000000000000000000000007bffffffffffffffffffffffffffffffffffffffffffffffffffffffff1916827bffffffffffffffffffffffffffffffffffffffffffffffffffffffff1916149050919050565b600073ffffffffffffffffffffffffffffffffffffffff168273ffffffffffffffffffffffffffffffffffffffff1603612f4f576040517f08c379a0000000000000000000000000000000000000000000000000000000008152600401612f4690614a5b565b60405180910390fd5b612f5881612832565b15612f98576040517f08c379a0000000000000000000000000000000000000000000000000000000008152600401612f8f90614ac7565b60405180910390fd5b612fa6600083836001612cd7565b612faf81612832565b15612fef576040517f08c379a0000000000000000000000000000000000000000000000000000000008152600401612fe690614ac7565b60405180910390fd5b6001600360008473ffffffffffffffffffffffffffffffffffffffff1673ffffffffffffffffffffffffffffffffffffffff16815260200190815260200160002060008282540192505081905550816002600083815260200190815260200160002060006101000a81548173ffffffffffffffffffffffffffffffffffffffff021916908373ffffffffffffffffffffffffffffffffffffffff160217905550808273ffffffffffffffffffffffffffffffffffffffff16600073ffffffffffffffffffffffffffffffffffffffff167fddf252ad1be2c89b69c2b068fc378daa952ba7f163c4a11628f55a4df523b3ef60405160405180910390a46130f9600083836001612cdd565b5050565b61310681613173565b600060066000838152602001908152602001600020805461312690613bec565b90501461314d5760066000828152602001908152602001600020600061314c91906132c1565b5b50565b6000808273ffffffffffffffffffffffffffffffffffffffff163b119050919050565b600061317e82610ef9565b905061318e816000846001612cd7565b61319782610ef9565b90506004600083815260200190815260200160002060006101000a81549073ffffffffffffffffffffffffffffffffffffffff02191690556001600360008373ffffffffffffffffffffffffffffffffffffffff1673ffffffffffffffffffffffffffffffffffffffff168152602001908152602001600020600082825403925050819055506002600083815260200190815260200160002060006101000a81549073ffffffffffffffffffffffffffffffffffffffff021916905581600073ffffffffffffffffffffffffffffffffffffffff168273ffffffffffffffffffffffffffffffffffffffff167fddf252ad1be2c89b69c2b068fc378daa952ba7f163c4a11628f55a4df523b3ef60405160405180910390a46132bd816000846001612cdd565b5050565b5080546132cd90613bec565b6000825580601f106132df57506132fe565b601f0160209004906000526020600020908101906132fd9190613301565b5b50565b5b8082111561331a576000816000905550600101613302565b5090565b6000604051905090565b600080fd5b600080fd5b60007fffffffff0000000000000000000000000000000000000000000000000000000082169050919050565b61336781613332565b811461337257600080fd5b50565b6000813590506133848161335e565b92915050565b6000602082840312156133a05761339f613328565b5b60006133ae84828501613375565b91505092915050565b60008115159050919050565b6133cc816133b7565b82525050565b60006020820190506133e760008301846133c3565b92915050565b600081519050919050565b600082825260208201905092915050565b60005b8381101561342757808201518184015260208101905061340c565b60008484015250505050565b6000601f19601f8301169050919050565b600061344f826133ed565b61345981856133f8565b9350613469818560208601613409565b61347281613433565b840191505092915050565b600060208201905081810360008301526134978184613444565b905092915050565b6000819050919050565b6134b28161349f565b81146134bd57600080fd5b50565b6000813590506134cf816134a9565b92915050565b6000602082840312156134eb576134ea613328565b5b60006134f9848285016134c0565b91505092915050565b600073ffffffffffffffffffffffffffffffffffffffff82169050919050565b600061352d82613502565b9050919050565b61353d81613522565b82525050565b60006020820190506135586000830184613534565b92915050565b61356781613522565b811461357257600080fd5b50565b6000813590506135848161355e565b92915050565b600080604083850312156135a1576135a0613328565b5b60006135af85828601613575565b92505060206135c0858286016134c0565b9150509250929050565b6000602082840312156135e0576135df613328565b5b60006135ee84828501613575565b91505092915050565b6136008161349f565b82525050565b600060208201905061361b60008301846135f7565b92915050565b600080fd5b600080fd5b7f4e487b7100000000000000000000000000000000000000000000000000000000600052604160045260246000fd5b61366382613433565b810181811067ffffffffffffffff821117156136825761368161362b565b5b80604052505050565b600061369561331e565b90506136a1828261365a565b919050565b600067ffffffffffffffff8211156136c1576136c061362b565b5b6136ca82613433565b9050602081019050919050565b82818337600083830152505050565b60006136f96136f4846136a6565b61368b565b90508281526020810184848401111561371557613714613626565b5b6137208482856136d7565b509392505050565b600082601f83011261373d5761373c613621565b5b813561374d8482602086016136e6565b91505092915050565b6000806040838503121561376d5761376c613328565b5b600061377b858286016134c0565b925050602083013567ffffffffffffffff81111561379c5761379b61332d565b5b6137a885828601613728565b9150509250929050565b6000806000606084860312156137cb576137ca613328565b5b60006137d986828701613575565b93505060206137ea86828701613575565b92505060406137fb868287016134c0565b9150509250925092565b6000806040838503121561381c5761381b613328565b5b600061382a858286016134c0565b925050602061383b858286016134c0565b9150509250929050565b61384e816133b7565b811461385957600080fd5b50565b60008135905061386b81613845565b92915050565b6000806040838503121561388857613887613328565b5b600061389685828601613575565b92505060206138a78582860161385c565b9150509250929050565b7f4e487b7100000000000000000000000000000000000000000000000000000000600052602160045260246000fd5b600381106138f1576138f06138b1565b5b50565b6000819050613902826138e0565b919050565b6000613912826138f4565b9050919050565b61392281613907565b82525050565b600060c08201905081810360008301526139428189613444565b905081810360208301526139568188613444565b905061396560408301876135f7565b81810360608301526139778186613444565b90506139866080830185613534565b61399360a0830184613919565b979650505050505050565b600067ffffffffffffffff8211156139b9576139b861362b565b5b6139c282613433565b9050602081019050919050565b60006139e26139dd8461399e565b61368b565b9050828152602081018484840111156139fe576139fd613626565b5b613a098482856136d7565b509392505050565b600082601f830112613a2657613a25613621565b5b8135613a368482602086016139cf565b91505092915050565b60008060008060808587031215613a5957613a58613328565b5b6000613a6787828801613575565b9450506020613a7887828801613575565b9350506040613a89878288016134c0565b925050606085013567ffffffffffffffff811115613aaa57613aa961332d565b5b613ab687828801613a11565b91505092959194509250565b60008060408385031215613ad957613ad8613328565b5b6000613ae785828601613575565b9250506020613af885828601613575565b9150509250929050565b60008060008060808587031215613b1c57613b1b613328565b5b6000613b2a878288016134c0565b945050602085013567ffffffffffffffff811115613b4b57613b4a61332d565b5b613b5787828801613728565b935050604085013567ffffffffffffffff811115613b7857613b7761332d565b5b613b8487828801613728565b925050606085013567ffffffffffffffff811115613ba557613ba461332d565b5b613bb187828801613728565b91505092959194509250565b7f4e487b7100000000000000000000000000000000000000000000000000000000600052602260045260246000fd5b60006002820490506001821680613c0457607f821691505b602082108103613c1757613c16613bbd565b5b50919050565b7f4552433732313a20617070726f76616c20746f2063757272656e74206f776e6560008201527f7200000000000000000000000000000000000000000000000000000000000000602082015250565b6000613c796021836133f8565b9150613c8482613c1d565b604082019050919050565b60006020820190508181036000830152613ca881613c6c565b9050919050565b7f4552433732313a20617070726f76652063616c6c6572206973206e6f7420746f60008201527f6b656e206f776e6572206f7220617070726f76656420666f7220616c6c000000602082015250565b6000613d0b603d836133f8565b9150613d1682613caf565b604082019050919050565b60006020820190508181036000830152613d3a81613cfe565b9050919050565b7f4e487b7100000000000000000000000000000000000000000000000000000000600052601160045260246000fd5b6000613d7b8261349f565b91507fffffffffffffffffffffffffffffffffffffffffffffffffffffffffffffffff8203613dad57613dac613d41565b5b600182019050919050565b7f4552433732313a2063616c6c6572206973206e6f7420746f6b656e206f776e6560008201527f72206f7220617070726f76656400000000000000000000000000000000000000602082015250565b6000613e14602d836133f8565b9150613e1f82613db8565b604082019050919050565b60006020820190508181036000830152613e4381613e07565b9050919050565b7f546f6b656e20646f6573206e6f74206578697374000000000000000000000000600082015250565b6000613e806014836133f8565b9150613e8b82613e4a565b602082019050919050565b60006020820190508181036000830152613eaf81613e73565b9050919050565b7f4552433732313a20696e76616c696420746f6b656e2049440000000000000000600082015250565b6000613eec6018836133f8565b9150613ef782613eb6565b602082019050919050565b60006020820190508181036000830152613f1b81613edf565b9050919050565b7f4552433732313a2061646472657373207a65726f206973206e6f74206120766160008201527f6c6964206f776e65720000000000000000000000000000000000000000000000602082015250565b6000613f7e6029836133f8565b9150613f8982613f22565b604082019050919050565b60006020820190508181036000830152613fad81613f71565b9050919050565b7f496e646578206f7574206f6620626f756e647300000000000000000000000000600082015250565b6000613fea6013836133f8565b9150613ff582613fb4565b602082019050919050565b6000602082019050818103600083015261401981613fdd565b9050919050565b7f4e487b7100000000000000000000000000000000000000000000000000000000600052603260045260246000fd5b600081905092915050565b50565b600061406a60008361404f565b91506140758261405a565b600082019050919050565b600061408b8261405d565b9150819050919050565b7f455448207472616e73666572206661696c656400000000000000000000000000600082015250565b60006140cb6013836133f8565b91506140d682614095565b602082019050919050565b600060208201905081810360008301526140fa816140be565b9050919050565b600061410c8261349f565b91506141178361349f565b925082820390508181111561412f5761412e613d41565b5b92915050565b7f526566756e64206661696c656400000000000000000000000000000000000000600082015250565b600061416b600d836133f8565b915061417682614135565b602082019050919050565b6000602082019050818103600083015261419a8161415e565b9050919050565b600081905092915050565b7f697066733a2f2f00000000000000000000000000000000000000000000000000600082015250565b60006141e26007836141a1565b91506141ed826141ac565b600782019050919050565b6000614203826133ed565b61420d81856141a1565b935061421d818560208601613409565b80840191505092915050565b6000614234826141d5565b915061424082846141f8565b915081905092915050565b60008190508160005260206000209050919050565b60006020601f8301049050919050565b600082821b905092915050565b6000600883026142ad7fffffffffffffffffffffffffffffffffffffffffffffffffffffffffffffffff82614270565b6142b78683614270565b95508019841693508086168417925050509392505050565b6000819050919050565b60006142f46142ef6142ea8461349f565b6142cf565b61349f565b9050919050565b6000819050919050565b61430e836142d9565b61432261431a826142fb565b84845461427d565b825550505050565b600090565b61433761432a565b614342818484614305565b505050565b5b818110156143665761435b60008261432f565b600181019050614348565b5050565b601f8211156143ab5761437c8161424b565b61438584614260565b81016020851015614394578190505b6143a86143a085614260565b830182614347565b50505b505050565b600082821c905092915050565b60006143ce600019846008026143b0565b1980831691505092915050565b60006143e783836143bd565b9150826002028217905092915050565b614400826133ed565b67ffffffffffffffff8111156144195761441861362b565b5b6144238254613bec565b61442e82828561436a565b600060209050601f831160018114614461576000841561444f578287015190505b61445985826143db565b8655506144c1565b601f19841661446f8661424b565b60005b8281101561449757848901518255600182019150602085019450602081019050614472565b868310156144b457848901516144b0601f8916826143bd565b8355505b6001600288020188555050505b505050505050565b600060608201905081810360008301526144e38186613444565b90506144f260208301856135f7565b81810360408301526145048184613444565b9050949350505050565b7f4f776e61626c653a206e6577206f776e657220697320746865207a65726f206160008201527f6464726573730000000000000000000000000000000000000000000000000000602082015250565b600061456a6026836133f8565b91506145758261450e565b604082019050919050565b600060208201905081810360008301526145998161455d565b9050919050565b7f4f776e61626c653a2063616c6c6572206973206e6f7420746865206f776e6572600082015250565b60006145d66020836133f8565b91506145e1826145a0565b602082019050919050565b60006020820190508181036000830152614605816145c9565b9050919050565b7f5265656e7472616e637947756172643a207265656e7472616e742063616c6c00600082015250565b6000614642601f836133f8565b915061464d8261460c565b602082019050919050565b6000602082019050818103600083015261467181614635565b9050919050565b7f45524337323155524953746f726167653a2055524920736574206f66206e6f6e60008201527f6578697374656e7420746f6b656e000000000000000000000000000000000000602082015250565b60006146d4602e836133f8565b91506146df82614678565b604082019050919050565b60006020820190508181036000830152614703816146c7565b9050919050565b7f4552433732313a207472616e736665722066726f6d20696e636f72726563742060008201527f6f776e6572000000000000000000000000000000000000000000000000000000602082015250565b60006147666025836133f8565b91506147718261470a565b604082019050919050565b6000602082019050818103600083015261479581614759565b9050919050565b7f4552433732313a207472616e7366657220746f20746865207a65726f2061646460008201527f7265737300000000000000000000000000000000000000000000000000000000602082015250565b60006147f86024836133f8565b91506148038261479c565b604082019050919050565b60006020820190508181036000830152614827816147eb565b9050919050565b7f4552433732313a20617070726f766520746f2063616c6c657200000000000000600082015250565b60006148646019836133f8565b915061486f8261482e565b602082019050919050565b6000602082019050818103600083015261489381614857565b9050919050565b7f4552433732313a207472616e7366657220746f206e6f6e20455243373231526560008201527f63656976657220696d706c656d656e7465720000000000000000000000000000602082015250565b60006148f66032836133f8565b91506149018261489a565b604082019050919050565b60006020820190508181036000830152614925816148e9565b9050919050565b600081519050919050565b600082825260208201905092915050565b60006149538261492c565b61495d8185614937565b935061496d818560208601613409565b61497681613433565b840191505092915050565b60006080820190506149966000830187613534565b6149a36020830186613534565b6149b060408301856135f7565b81810360608301526149c28184614948565b905095945050505050565b6000815190506149dc8161335e565b92915050565b6000602082840312156149f8576149f7613328565b5b6000614a06848285016149cd565b91505092915050565b7f4552433732313a206d696e7420746f20746865207a65726f2061646472657373600082015250565b6000614a456020836133f8565b9150614a5082614a0f565b602082019050919050565b60006020820190508181036000830152614a7481614a38565b9050919050565b7f4552433732313a20746f6b656e20616c7265616479206d696e74656400000000600082015250565b6000614ab1601c836133f8565b9150614abc82614a7b565b602082019050919050565b60006020820190508181036000830152614ae081614aa4565b905091905056fea26469706673582212207cd259c68b2a96e0679d96d8abdb91d9673028a804427c7603ea3b3fa4e77c7564736f6c63430008140033","opcodes":"PUSH1 0x80 PUSH1 0x40 MSTORE CALLVALUE DUP1 ISZERO PUSH3 0x11 JUMPI PUSH1 0x0 DUP1 REVERT JUMPDEST POP PUSH1 0x40 MLOAD DUP1 PUSH1 0x40 ADD PUSH1 0x40 MSTORE DUP1 PUSH1 0x17 DUP2 MSTORE PUSH1 0x20 ADD PUSH32 0x436172626F6E4F66667365744365727469666963617465000000000000000000 DUP2 MSTORE POP PUSH1 0x40 MLOAD DUP1 PUSH1 0x40 ADD PUSH1 0x40 MSTORE DUP1 PUSH1 0x3 DUP2 MSTORE PUSH1 0x20 ADD PUSH32 0x434F430000000000000000000000000000000000000000000000000000000000 DUP2 MSTORE POP DUP2 PUSH1 0x0 SWAP1 DUP2 PUSH3 0x8F SWAP2 SWAP1 PUSH3 0x43F JUMP JUMPDEST POP DUP1 PUSH1 0x1 SWAP1 DUP2 PUSH3 0xA1 SWAP2 SWAP1 PUSH3 0x43F JUMP JUMPDEST POP POP POP PUSH3 0xC4 PUSH3 0xB8 PUSH3 0xF7 PUSH1 0x20 SHL PUSH1 0x20 SHR JUMP JUMPDEST PUSH3 0xFF PUSH1 0x20 SHL PUSH1 0x20 SHR JUMP JUMPDEST PUSH1 0x1 PUSH1 0x8 DUP2 SWAP1 SSTORE POP PUSH3 0xF1 PUSH20 0x238DE20B86611085BB9EA960802E4B9587F1EBBA PUSH3 0xFF PUSH1 0x20 SHL PUSH1 0x20 SHR JUMP JUMPDEST PUSH3 0x526 JUMP JUMPDEST PUSH1 0x0 CALLER SWAP1 POP SWAP1 JUMP JUMPDEST PUSH1 0x0 PUSH1 0x7 PUSH1 0x0 SWAP1 SLOAD SWAP1 PUSH2 0x100 EXP SWAP1 DIV PUSH20 0xFFFFFFFFFFFFFFFFFFFFFFFFFFFFFFFFFFFFFFFF AND SWAP1 POP DUP2 PUSH1 0x7 PUSH1 0x0 PUSH2 0x100 EXP DUP2 SLOAD DUP2 PUSH20 0xFFFFFFFFFFFFFFFFFFFFFFFFFFFFFFFFFFFFFFFF MUL NOT AND SWAP1 DUP4 PUSH20 0xFFFFFFFFFFFFFFFFFFFFFFFFFFFFFFFFFFFFFFFF AND MUL OR SWAP1 SSTORE POP DUP2 PUSH20 0xFFFFFFFFFFFFFFFFFFFFFFFFFFFFFFFFFFFFFFFF AND DUP2 PUSH20 0xFFFFFFFFFFFFFFFFFFFFFFFFFFFFFFFFFFFFFFFF AND PUSH32 0x8BE0079C531659141344CD1FD0A4F28419497F9722A3DAAFE3B4186F6B6457E0 PUSH1 0x40 MLOAD PUSH1 0x40 MLOAD DUP1 SWAP2 SUB SWAP1 LOG3 POP POP JUMP JUMPDEST PUSH1 0x0 DUP2 MLOAD SWAP1 POP SWAP2 SWAP1 POP JUMP JUMPDEST PUSH32 0x4E487B7100000000000000000000000000000000000000000000000000000000 PUSH1 0x0 MSTORE PUSH1 0x41 PUSH1 0x4 MSTORE PUSH1 0x24 PUSH1 0x0 REVERT JUMPDEST PUSH32 0x4E487B7100000000000000000000000000000000000000000000000000000000 PUSH1 0x0 MSTORE PUSH1 0x22 PUSH1 0x4 MSTORE PUSH1 0x24 PUSH1 0x0 REVERT JUMPDEST PUSH1 0x0 PUSH1 0x2 DUP3 DIV SWAP1 POP PUSH1 0x1 DUP3 AND DUP1 PUSH3 0x247 JUMPI PUSH1 0x7F DUP3 AND SWAP2 POP JUMPDEST PUSH1 0x20 DUP3 LT DUP2 SUB PUSH3 0x25D JUMPI PUSH3 0x25C PUSH3 0x1FF JUMP JUMPDEST JUMPDEST POP SWAP2 SWAP1 POP JUMP JUMPDEST PUSH1 0x0 DUP2 SWAP1 POP DUP2 PUSH1 0x0 MSTORE PUSH1 0x20 PUSH1 0x0 KECCAK256 SWAP1 POP SWAP2 SWAP1 POP JUMP JUMPDEST PUSH1 0x0 PUSH1 0x20 PUSH1 0x1F DUP4 ADD DIV SWAP1 POP SWAP2 SWAP1 POP JUMP JUMPDEST PUSH1 0x0 DUP3 DUP3 SHL SWAP1 POP SWAP3 SWAP2 POP POP JUMP JUMPDEST PUSH1 0x0 PUSH1 0x8 DUP4 MUL PUSH3 0x2C7 PUSH32 0xFFFFFFFFFFFFFFFFFFFFFFFFFFFFFFFFFFFFFFFFFFFFFFFFFFFFFFFFFFFFFFFF DUP3 PUSH3 0x288 JUMP JUMPDEST PUSH3 0x2D3 DUP7 DUP4 PUSH3 0x288 JUMP JUMPDEST SWAP6 POP DUP1 NOT DUP5 AND SWAP4 POP DUP1 DUP7 AND DUP5 OR SWAP3 POP POP POP SWAP4 SWAP3 POP POP POP JUMP JUMPDEST PUSH1 0x0 DUP2 SWAP1 POP SWAP2 SWAP1 POP JUMP JUMPDEST PUSH1 0x0 DUP2 SWAP1 POP SWAP2 SWAP1 POP JUMP JUMPDEST PUSH1 0x0 PUSH3 0x320 PUSH3 0x31A PUSH3 0x314 DUP5 PUSH3 0x2EB JUMP JUMPDEST PUSH3 0x2F5 JUMP JUMPDEST PUSH3 0x2EB JUMP JUMPDEST SWAP1 POP SWAP2 SWAP1 POP JUMP JUMPDEST PUSH1 0x0 DUP2 SWAP1 POP SWAP2 SWAP1 POP JUMP JUMPDEST PUSH3 0x33C DUP4 PUSH3 0x2FF JUMP JUMPDEST PUSH3 0x354 PUSH3 0x34B DUP3 PUSH3 0x327 JUMP JUMPDEST DUP5 DUP5 SLOAD PUSH3 0x295 JUMP JUMPDEST DUP3 SSTORE POP POP POP POP JUMP JUMPDEST PUSH1 0x0 SWAP1 JUMP JUMPDEST PUSH3 0x36B PUSH3 0x35C JUMP JUMPDEST PUSH3 0x378 DUP2 DUP5 DUP5 PUSH3 0x331 JUMP JUMPDEST POP POP POP JUMP JUMPDEST JUMPDEST DUP2 DUP2 LT ISZERO PUSH3 0x3A0 JUMPI PUSH3 0x394 PUSH1 0x0 DUP3 PUSH3 0x361 JUMP JUMPDEST PUSH1 0x1 DUP2 ADD SWAP1 POP PUSH3 0x37E JUMP JUMPDEST POP POP JUMP JUMPDEST PUSH1 0x1F DUP3 GT ISZERO PUSH3 0x3EF JUMPI PUSH3 0x3B9 DUP2 PUSH3 0x263 JUMP JUMPDEST PUSH3 0x3C4 DUP5 PUSH3 0x278 JUMP JUMPDEST DUP2 ADD PUSH1 0x20 DUP6 LT ISZERO PUSH3 0x3D4 JUMPI DUP2 SWAP1 POP JUMPDEST PUSH3 0x3EC PUSH3 0x3E3 DUP6 PUSH3 0x278 JUMP JUMPDEST DUP4 ADD DUP3 PUSH3 0x37D JUMP JUMPDEST POP POP JUMPDEST POP POP POP JUMP JUMPDEST PUSH1 0x0 DUP3 DUP3 SHR SWAP1 POP SWAP3 SWAP2 POP POP JUMP JUMPDEST PUSH1 0x0 PUSH3 0x414 PUSH1 0x0 NOT DUP5 PUSH1 0x8 MUL PUSH3 0x3F4 JUMP JUMPDEST NOT DUP1 DUP4 AND SWAP2 POP POP SWAP3 SWAP2 POP POP JUMP JUMPDEST PUSH1 0x0 PUSH3 0x42F DUP4 DUP4 PUSH3 0x401 JUMP JUMPDEST SWAP2 POP DUP3 PUSH1 0x2 MUL DUP3 OR SWAP1 POP SWAP3 SWAP2 POP POP JUMP JUMPDEST PUSH3 0x44A DUP3 PUSH3 0x1C5 JUMP JUMPDEST PUSH8 0xFFFFFFFFFFFFFFFF DUP2 GT ISZERO PUSH3 0x466 JUMPI PUSH3 0x465 PUSH3 0x1D0 JUMP JUMPDEST JUMPDEST PUSH3 0x472 DUP3 SLOAD PUSH3 0x22E JUMP JUMPDEST PUSH3 0x47F DUP3 DUP3 DUP6 PUSH3 0x3A4 JUMP JUMPDEST PUSH1 0x0 PUSH1 0x20 SWAP1 POP PUSH1 0x1F DUP4 GT PUSH1 0x1 DUP2 EQ PUSH3 0x4B7 JUMPI PUSH1 0x0 DUP5 ISZERO PUSH3 0x4A2 JUMPI DUP3 DUP8 ADD MLOAD SWAP1 POP JUMPDEST PUSH3 0x4AE DUP6 DUP3 PUSH3 0x421 JUMP JUMPDEST DUP7 SSTORE POP PUSH3 0x51E JUMP JUMPDEST PUSH1 0x1F NOT DUP5 AND PUSH3 0x4C7 DUP7 PUSH3 0x263 JUMP JUMPDEST PUSH1 0x0 JUMPDEST DUP3 DUP2 LT ISZERO PUSH3 0x4F1 JUMPI DUP5 DUP10 ADD MLOAD DUP3 SSTORE PUSH1 0x1 DUP3 ADD SWAP2 POP PUSH1 0x20 DUP6 ADD SWAP5 POP PUSH1 0x20 DUP2 ADD SWAP1 POP PUSH3 0x4CA JUMP JUMPDEST DUP7 DUP4 LT ISZERO PUSH3 0x511 JUMPI DUP5 DUP10 ADD MLOAD PUSH3 0x50D PUSH1 0x1F DUP10 AND DUP3 PUSH3 0x401 JUMP JUMPDEST DUP4 SSTORE POP JUMPDEST PUSH1 0x1 PUSH1 0x2 DUP9 MUL ADD DUP9 SSTORE POP POP POP JUMPDEST POP POP POP POP POP POP JUMP JUMPDEST PUSH2 0x4B1D DUP1 PUSH3 0x536 PUSH1 0x0 CODECOPY PUSH1 0x0 RETURN INVALID PUSH1 0x80 PUSH1 0x40 MSTORE PUSH1 0x4 CALLDATASIZE LT PUSH2 0x1E3 JUMPI PUSH1 0x0 CALLDATALOAD PUSH1 0xE0 SHR DUP1 PUSH4 0x8AD5048B GT PUSH2 0x102 JUMPI DUP1 PUSH4 0xBA4611D9 GT PUSH2 0x95 JUMPI DUP1 PUSH4 0xE5AFE3E6 GT PUSH2 0x64 JUMPI DUP1 PUSH4 0xE5AFE3E6 EQ PUSH2 0x70A JUMPI DUP1 PUSH4 0xE985E9C5 EQ PUSH2 0x747 JUMPI DUP1 PUSH4 0xEFBD8E5E EQ PUSH2 0x784 JUMPI DUP1 PUSH4 0xF2FDE38B EQ PUSH2 0x7AD JUMPI PUSH2 0x1E3 JUMP JUMPDEST DUP1 PUSH4 0xBA4611D9 EQ PUSH2 0x65B JUMPI DUP1 PUSH4 0xC2DB2C42 EQ PUSH2 0x686 JUMPI DUP1 PUSH4 0xC87B56DD EQ PUSH2 0x6A2 JUMPI DUP1 PUSH4 0xC9828AE0 EQ PUSH2 0x6DF JUMPI PUSH2 0x1E3 JUMP JUMPDEST DUP1 PUSH4 0xA22CB465 GT PUSH2 0xD1 JUMPI DUP1 PUSH4 0xA22CB465 EQ PUSH2 0x59E JUMPI DUP1 PUSH4 0xA888C2CD EQ PUSH2 0x5C7 JUMPI DUP1 PUSH4 0xAD3A358C EQ PUSH2 0x609 JUMPI DUP1 PUSH4 0xB88D4FDE EQ PUSH2 0x632 JUMPI PUSH2 0x1E3 JUMP JUMPDEST DUP1 PUSH4 0x8AD5048B EQ PUSH2 0x4CE JUMPI DUP1 PUSH4 0x8DA5CB5B EQ PUSH2 0x50B JUMPI DUP1 PUSH4 0x95D89B41 EQ PUSH2 0x536 JUMPI DUP1 PUSH4 0x97FF9BCE EQ PUSH2 0x561 JUMPI PUSH2 0x1E3 JUMP JUMPDEST DUP1 PUSH4 0x3577A5AD GT PUSH2 0x17A JUMPI DUP1 PUSH4 0x6352211E GT PUSH2 0x149 JUMPI DUP1 PUSH4 0x6352211E EQ PUSH2 0x414 JUMPI DUP1 PUSH4 0x70A08231 EQ PUSH2 0x451 JUMPI DUP1 PUSH4 0x715018A6 EQ PUSH2 0x48E JUMPI DUP1 PUSH4 0x75C1631D EQ PUSH2 0x4A5 JUMPI PUSH2 0x1E3 JUMP JUMPDEST DUP1 PUSH4 0x3577A5AD EQ PUSH2 0x35C JUMPI DUP1 PUSH4 0x40676A51 EQ PUSH2 0x385 JUMPI DUP1 PUSH4 0x42842E0E EQ PUSH2 0x3C2 JUMPI DUP1 PUSH4 0x42966C68 EQ PUSH2 0x3EB JUMPI PUSH2 0x1E3 JUMP JUMPDEST DUP1 PUSH4 0x1633BB1B GT PUSH2 0x1B6 JUMPI DUP1 PUSH4 0x1633BB1B EQ PUSH2 0x2B6 JUMPI DUP1 PUSH4 0x18160DDD EQ PUSH2 0x2DF JUMPI DUP1 PUSH4 0x192875D7 EQ PUSH2 0x30A JUMPI DUP1 PUSH4 0x23B872DD EQ PUSH2 0x333 JUMPI PUSH2 0x1E3 JUMP JUMPDEST DUP1 PUSH4 0x1FFC9A7 EQ PUSH2 0x1E8 JUMPI DUP1 PUSH4 0x6FDDE03 EQ PUSH2 0x225 JUMPI DUP1 PUSH4 0x81812FC EQ PUSH2 0x250 JUMPI DUP1 PUSH4 0x95EA7B3 EQ PUSH2 0x28D JUMPI JUMPDEST PUSH1 0x0 DUP1 REVERT JUMPDEST CALLVALUE DUP1 ISZERO PUSH2 0x1F4 JUMPI PUSH1 0x0 DUP1 REVERT JUMPDEST POP PUSH2 0x20F PUSH1 0x4 DUP1 CALLDATASIZE SUB DUP2 ADD SWAP1 PUSH2 0x20A SWAP2 SWAP1 PUSH2 0x338A JUMP JUMPDEST PUSH2 0x7D6 JUMP JUMPDEST PUSH1 0x40 MLOAD PUSH2 0x21C SWAP2 SWAP1 PUSH2 0x33D2 JUMP JUMPDEST PUSH1 0x40 MLOAD DUP1 SWAP2 SUB SWAP1 RETURN JUMPDEST CALLVALUE DUP1 ISZERO PUSH2 0x231 JUMPI PUSH1 0x0 DUP1 REVERT JUMPDEST POP PUSH2 0x23A PUSH2 0x7E8 JUMP JUMPDEST PUSH1 0x40 MLOAD PUSH2 0x247 SWAP2 SWAP1 PUSH2 0x347D JUMP JUMPDEST PUSH1 0x40 MLOAD DUP1 SWAP2 SUB SWAP1 RETURN JUMPDEST CALLVALUE DUP1 ISZERO PUSH2 0x25C JUMPI PUSH1 0x0 DUP1 REVERT JUMPDEST POP PUSH2 0x277 PUSH1 0x4 DUP1 CALLDATASIZE SUB DUP2 ADD SWAP1 PUSH2 0x272 SWAP2 SWAP1 PUSH2 0x34D5 JUMP JUMPDEST PUSH2 0x87A JUMP JUMPDEST PUSH1 0x40 MLOAD PUSH2 0x284 SWAP2 SWAP1 PUSH2 0x3543 JUMP JUMPDEST PUSH1 0x40 MLOAD DUP1 SWAP2 SUB SWAP1 RETURN JUMPDEST CALLVALUE DUP1 ISZERO PUSH2 0x299 JUMPI PUSH1 0x0 DUP1 REVERT JUMPDEST POP PUSH2 0x2B4 PUSH1 0x4 DUP1 CALLDATASIZE SUB DUP2 ADD SWAP1 PUSH2 0x2AF SWAP2 SWAP1 PUSH2 0x358A JUMP JUMPDEST PUSH2 0x8C0 JUMP JUMPDEST STOP JUMPDEST CALLVALUE DUP1 ISZERO PUSH2 0x2C2 JUMPI PUSH1 0x0 DUP1 REVERT JUMPDEST POP PUSH2 0x2DD PUSH1 0x4 DUP1 CALLDATASIZE SUB DUP2 ADD SWAP1 PUSH2 0x2D8 SWAP2 SWAP1 PUSH2 0x35CA JUMP JUMPDEST PUSH2 0x9D7 JUMP JUMPDEST STOP JUMPDEST CALLVALUE DUP1 ISZERO PUSH2 0x2EB JUMPI PUSH1 0x0 DUP1 REVERT JUMPDEST POP PUSH2 0x2F4 PUSH2 0xA23 JUMP JUMPDEST PUSH1 0x40 MLOAD PUSH2 0x301 SWAP2 SWAP1 PUSH2 0x3606 JUMP JUMPDEST PUSH1 0x40 MLOAD DUP1 SWAP2 SUB SWAP1 RETURN JUMPDEST CALLVALUE DUP1 ISZERO PUSH2 0x316 JUMPI PUSH1 0x0 DUP1 REVERT JUMPDEST POP PUSH2 0x331 PUSH1 0x4 DUP1 CALLDATASIZE SUB DUP2 ADD SWAP1 PUSH2 0x32C SWAP2 SWAP1 PUSH2 0x3756 JUMP JUMPDEST PUSH2 0xA2D JUMP JUMPDEST STOP JUMPDEST CALLVALUE DUP1 ISZERO PUSH2 0x33F JUMPI PUSH1 0x0 DUP1 REVERT JUMPDEST POP PUSH2 0x35A PUSH1 0x4 DUP1 CALLDATASIZE SUB DUP2 ADD SWAP1 PUSH2 0x355 SWAP2 SWAP1 PUSH2 0x37B2 JUMP JUMPDEST PUSH2 0xC2A JUMP JUMPDEST STOP JUMPDEST CALLVALUE DUP1 ISZERO PUSH2 0x368 JUMPI PUSH1 0x0 DUP1 REVERT JUMPDEST POP PUSH2 0x383 PUSH1 0x4 DUP1 CALLDATASIZE SUB DUP2 ADD SWAP1 PUSH2 0x37E SWAP2 SWAP1 PUSH2 0x3756 JUMP JUMPDEST PUSH2 0xC8A JUMP JUMPDEST STOP JUMPDEST CALLVALUE DUP1 ISZERO PUSH2 0x391 JUMPI PUSH1 0x0 DUP1 REVERT JUMPDEST POP PUSH2 0x3AC PUSH1 0x4 DUP1 CALLDATASIZE SUB DUP2 ADD SWAP1 PUSH2 0x3A7 SWAP2 SWAP1 PUSH2 0x35CA JUMP JUMPDEST PUSH2 0xE0C JUMP JUMPDEST PUSH1 0x40 MLOAD PUSH2 0x3B9 SWAP2 SWAP1 PUSH2 0x3606 JUMP JUMPDEST PUSH1 0x40 MLOAD DUP1 SWAP2 SUB SWAP1 RETURN JUMPDEST CALLVALUE DUP1 ISZERO PUSH2 0x3CE JUMPI PUSH1 0x0 DUP1 REVERT JUMPDEST POP PUSH2 0x3E9 PUSH1 0x4 DUP1 CALLDATASIZE SUB DUP2 ADD SWAP1 PUSH2 0x3E4 SWAP2 SWAP1 PUSH2 0x37B2 JUMP JUMPDEST PUSH2 0xE58 JUMP JUMPDEST STOP JUMPDEST CALLVALUE DUP1 ISZERO PUSH2 0x3F7 JUMPI PUSH1 0x0 DUP1 REVERT JUMPDEST POP PUSH2 0x412 PUSH1 0x4 DUP1 CALLDATASIZE SUB DUP2 ADD SWAP1 PUSH2 0x40D SWAP2 SWAP1 PUSH2 0x34D5 JUMP JUMPDEST PUSH2 0xE78 JUMP JUMPDEST STOP JUMPDEST CALLVALUE DUP1 ISZERO PUSH2 0x420 JUMPI PUSH1 0x0 DUP1 REVERT JUMPDEST POP PUSH2 0x43B PUSH1 0x4 DUP1 CALLDATASIZE SUB DUP2 ADD SWAP1 PUSH2 0x436 SWAP2 SWAP1 PUSH2 0x34D5 JUMP JUMPDEST PUSH2 0xEF9 JUMP JUMPDEST PUSH1 0x40 MLOAD PUSH2 0x448 SWAP2 SWAP1 PUSH2 0x3543 JUMP JUMPDEST PUSH1 0x40 MLOAD DUP1 SWAP2 SUB SWAP1 RETURN JUMPDEST CALLVALUE DUP1 ISZERO PUSH2 0x45D JUMPI PUSH1 0x0 DUP1 REVERT JUMPDEST POP PUSH2 0x478 PUSH1 0x4 DUP1 CALLDATASIZE SUB DUP2 ADD SWAP1 PUSH2 0x473 SWAP2 SWAP1 PUSH2 0x35CA JUMP JUMPDEST PUSH2 0xF7F JUMP JUMPDEST PUSH1 0x40 MLOAD PUSH2 0x485 SWAP2 SWAP1 PUSH2 0x3606 JUMP JUMPDEST PUSH1 0x40 MLOAD DUP1 SWAP2 SUB SWAP1 RETURN JUMPDEST CALLVALUE DUP1 ISZERO PUSH2 0x49A JUMPI PUSH1 0x0 DUP1 REVERT JUMPDEST POP PUSH2 0x4A3 PUSH2 0x1036 JUMP JUMPDEST STOP JUMPDEST CALLVALUE DUP1 ISZERO PUSH2 0x4B1 JUMPI PUSH1 0x0 DUP1 REVERT JUMPDEST POP PUSH2 0x4CC PUSH1 0x4 DUP1 CALLDATASIZE SUB DUP2 ADD SWAP1 PUSH2 0x4C7 SWAP2 SWAP1 PUSH2 0x3805 JUMP JUMPDEST PUSH2 0x104A JUMP JUMPDEST STOP JUMPDEST CALLVALUE DUP1 ISZERO PUSH2 0x4DA JUMPI PUSH1 0x0 DUP1 REVERT JUMPDEST POP PUSH2 0x4F5 PUSH1 0x4 DUP1 CALLDATASIZE SUB DUP2 ADD SWAP1 PUSH2 0x4F0 SWAP2 SWAP1 PUSH2 0x34D5 JUMP JUMPDEST PUSH2 0x11E1 JUMP JUMPDEST PUSH1 0x40 MLOAD PUSH2 0x502 SWAP2 SWAP1 PUSH2 0x3606 JUMP JUMPDEST PUSH1 0x40 MLOAD DUP1 SWAP2 SUB SWAP1 RETURN JUMPDEST CALLVALUE DUP1 ISZERO PUSH2 0x517 JUMPI PUSH1 0x0 DUP1 REVERT JUMPDEST POP PUSH2 0x520 PUSH2 0x11F9 JUMP JUMPDEST PUSH1 0x40 MLOAD PUSH2 0x52D SWAP2 SWAP1 PUSH2 0x3543 JUMP JUMPDEST PUSH1 0x40 MLOAD DUP1 SWAP2 SUB SWAP1 RETURN JUMPDEST CALLVALUE DUP1 ISZERO PUSH2 0x542 JUMPI PUSH1 0x0 DUP1 REVERT JUMPDEST POP PUSH2 0x54B PUSH2 0x1223 JUMP JUMPDEST PUSH1 0x40 MLOAD PUSH2 0x558 SWAP2 SWAP1 PUSH2 0x347D JUMP JUMPDEST PUSH1 0x40 MLOAD DUP1 SWAP2 SUB SWAP1 RETURN JUMPDEST CALLVALUE DUP1 ISZERO PUSH2 0x56D JUMPI PUSH1 0x0 DUP1 REVERT JUMPDEST POP PUSH2 0x588 PUSH1 0x4 DUP1 CALLDATASIZE SUB DUP2 ADD SWAP1 PUSH2 0x583 SWAP2 SWAP1 PUSH2 0x358A JUMP JUMPDEST PUSH2 0x12B5 JUMP JUMPDEST PUSH1 0x40 MLOAD PUSH2 0x595 SWAP2 SWAP1 PUSH2 0x3606 JUMP JUMPDEST PUSH1 0x40 MLOAD DUP1 SWAP2 SUB SWAP1 RETURN JUMPDEST CALLVALUE DUP1 ISZERO PUSH2 0x5AA JUMPI PUSH1 0x0 DUP1 REVERT JUMPDEST POP PUSH2 0x5C5 PUSH1 0x4 DUP1 CALLDATASIZE SUB DUP2 ADD SWAP1 PUSH2 0x5C0 SWAP2 SWAP1 PUSH2 0x3871 JUMP JUMPDEST PUSH2 0x139F JUMP JUMPDEST STOP JUMPDEST CALLVALUE DUP1 ISZERO PUSH2 0x5D3 JUMPI PUSH1 0x0 DUP1 REVERT JUMPDEST POP PUSH2 0x5EE PUSH1 0x4 DUP1 CALLDATASIZE SUB DUP2 ADD SWAP1 PUSH2 0x5E9 SWAP2 SWAP1 PUSH2 0x34D5 JUMP JUMPDEST PUSH2 0x13B5 JUMP JUMPDEST PUSH1 0x40 MLOAD PUSH2 0x600 SWAP7 SWAP6 SWAP5 SWAP4 SWAP3 SWAP2 SWAP1 PUSH2 0x3928 JUMP JUMPDEST PUSH1 0x40 MLOAD DUP1 SWAP2 SUB SWAP1 RETURN JUMPDEST CALLVALUE DUP1 ISZERO PUSH2 0x615 JUMPI PUSH1 0x0 DUP1 REVERT JUMPDEST POP PUSH2 0x630 PUSH1 0x4 DUP1 CALLDATASIZE SUB DUP2 ADD SWAP1 PUSH2 0x62B SWAP2 SWAP1 PUSH2 0x34D5 JUMP JUMPDEST PUSH2 0x15B6 JUMP JUMPDEST STOP JUMPDEST CALLVALUE DUP1 ISZERO PUSH2 0x63E JUMPI PUSH1 0x0 DUP1 REVERT JUMPDEST POP PUSH2 0x659 PUSH1 0x4 DUP1 CALLDATASIZE SUB DUP2 ADD SWAP1 PUSH2 0x654 SWAP2 SWAP1 PUSH2 0x3A3F JUMP JUMPDEST PUSH2 0x1708 JUMP JUMPDEST STOP JUMPDEST CALLVALUE DUP1 ISZERO PUSH2 0x667 JUMPI PUSH1 0x0 DUP1 REVERT JUMPDEST POP PUSH2 0x670 PUSH2 0x176A JUMP JUMPDEST PUSH1 0x40 MLOAD PUSH2 0x67D SWAP2 SWAP1 PUSH2 0x3606 JUMP JUMPDEST PUSH1 0x40 MLOAD DUP1 SWAP2 SUB SWAP1 RETURN JUMPDEST PUSH2 0x6A0 PUSH1 0x4 DUP1 CALLDATASIZE SUB DUP2 ADD SWAP1 PUSH2 0x69B SWAP2 SWAP1 PUSH2 0x34D5 JUMP JUMPDEST PUSH2 0x1774 JUMP JUMPDEST STOP JUMPDEST CALLVALUE DUP1 ISZERO PUSH2 0x6AE JUMPI PUSH1 0x0 DUP1 REVERT JUMPDEST POP PUSH2 0x6C9 PUSH1 0x4 DUP1 CALLDATASIZE SUB DUP2 ADD SWAP1 PUSH2 0x6C4 SWAP2 SWAP1 PUSH2 0x34D5 JUMP JUMPDEST PUSH2 0x1A42 JUMP JUMPDEST PUSH1 0x40 MLOAD PUSH2 0x6D6 SWAP2 SWAP1 PUSH2 0x347D JUMP JUMPDEST PUSH1 0x40 MLOAD DUP1 SWAP2 SUB SWAP1 RETURN JUMPDEST CALLVALUE DUP1 ISZERO PUSH2 0x6EB JUMPI PUSH1 0x0 DUP1 REVERT JUMPDEST POP PUSH2 0x6F4 PUSH2 0x1D44 JUMP JUMPDEST PUSH1 0x40 MLOAD PUSH2 0x701 SWAP2 SWAP1 PUSH2 0x3543 JUMP JUMPDEST PUSH1 0x40 MLOAD DUP1 SWAP2 SUB SWAP1 RETURN JUMPDEST CALLVALUE DUP1 ISZERO PUSH2 0x716 JUMPI PUSH1 0x0 DUP1 REVERT JUMPDEST POP PUSH2 0x731 PUSH1 0x4 DUP1 CALLDATASIZE SUB DUP2 ADD SWAP1 PUSH2 0x72C SWAP2 SWAP1 PUSH2 0x34D5 JUMP JUMPDEST PUSH2 0x1D6A JUMP JUMPDEST PUSH1 0x40 MLOAD PUSH2 0x73E SWAP2 SWAP1 PUSH2 0x3606 JUMP JUMPDEST PUSH1 0x40 MLOAD DUP1 SWAP2 SUB SWAP1 RETURN JUMPDEST CALLVALUE DUP1 ISZERO PUSH2 0x753 JUMPI PUSH1 0x0 DUP1 REVERT JUMPDEST POP PUSH2 0x76E PUSH1 0x4 DUP1 CALLDATASIZE SUB DUP2 ADD SWAP1 PUSH2 0x769 SWAP2 SWAP1 PUSH2 0x3AC2 JUMP JUMPDEST PUSH2 0x1D82 JUMP JUMPDEST PUSH1 0x40 MLOAD PUSH2 0x77B SWAP2 SWAP1 PUSH2 0x33D2 JUMP JUMPDEST PUSH1 0x40 MLOAD DUP1 SWAP2 SUB SWAP1 RETURN JUMPDEST CALLVALUE DUP1 ISZERO PUSH2 0x790 JUMPI PUSH1 0x0 DUP1 REVERT JUMPDEST POP PUSH2 0x7AB PUSH1 0x4 DUP1 CALLDATASIZE SUB DUP2 ADD SWAP1 PUSH2 0x7A6 SWAP2 SWAP1 PUSH2 0x3B02 JUMP JUMPDEST PUSH2 0x1E16 JUMP JUMPDEST STOP JUMPDEST CALLVALUE DUP1 ISZERO PUSH2 0x7B9 JUMPI PUSH1 0x0 DUP1 REVERT JUMPDEST POP PUSH2 0x7D4 PUSH1 0x4 DUP1 CALLDATASIZE SUB DUP2 ADD SWAP1 PUSH2 0x7CF SWAP2 SWAP1 PUSH2 0x35CA JUMP JUMPDEST PUSH2 0x211B JUMP JUMPDEST STOP JUMPDEST PUSH1 0x0 PUSH2 0x7E1 DUP3 PUSH2 0x219E JUMP JUMPDEST SWAP1 POP SWAP2 SWAP1 POP JUMP JUMPDEST PUSH1 0x60 PUSH1 0x0 DUP1 SLOAD PUSH2 0x7F7 SWAP1 PUSH2 0x3BEC JUMP JUMPDEST DUP1 PUSH1 0x1F ADD PUSH1 0x20 DUP1 SWAP2 DIV MUL PUSH1 0x20 ADD PUSH1 0x40 MLOAD SWAP1 DUP2 ADD PUSH1 0x40 MSTORE DUP1 SWAP3 SWAP2 SWAP1 DUP2 DUP2 MSTORE PUSH1 0x20 ADD DUP3 DUP1 SLOAD PUSH2 0x823 SWAP1 PUSH2 0x3BEC JUMP JUMPDEST DUP1 ISZERO PUSH2 0x870 JUMPI DUP1 PUSH1 0x1F LT PUSH2 0x845 JUMPI PUSH2 0x100 DUP1 DUP4 SLOAD DIV MUL DUP4 MSTORE SWAP2 PUSH1 0x20 ADD SWAP2 PUSH2 0x870 JUMP JUMPDEST DUP3 ADD SWAP2 SWAP1 PUSH1 0x0 MSTORE PUSH1 0x20 PUSH1 0x0 KECCAK256 SWAP1 JUMPDEST DUP2 SLOAD DUP2 MSTORE SWAP1 PUSH1 0x1 ADD SWAP1 PUSH1 0x20 ADD DUP1 DUP4 GT PUSH2 0x853 JUMPI DUP3 SWAP1 SUB PUSH1 0x1F AND DUP3 ADD SWAP2 JUMPDEST POP POP POP POP POP SWAP1 POP SWAP1 JUMP JUMPDEST PUSH1 0x0 PUSH2 0x885 DUP3 PUSH2 0x21FF JUMP JUMPDEST PUSH1 0x4 PUSH1 0x0 DUP4 DUP2 MSTORE PUSH1 0x20 ADD SWAP1 DUP2 MSTORE PUSH1 0x20 ADD PUSH1 0x0 KECCAK256 PUSH1 0x0 SWAP1 SLOAD SWAP1 PUSH2 0x100 EXP SWAP1 DIV PUSH20 0xFFFFFFFFFFFFFFFFFFFFFFFFFFFFFFFFFFFFFFFF AND SWAP1 POP SWAP2 SWAP1 POP JUMP JUMPDEST PUSH1 0x0 PUSH2 0x8CB DUP3 PUSH2 0xEF9 JUMP JUMPDEST SWAP1 POP DUP1 PUSH20 0xFFFFFFFFFFFFFFFFFFFFFFFFFFFFFFFFFFFFFFFF AND DUP4 PUSH20 0xFFFFFFFFFFFFFFFFFFFFFFFFFFFFFFFFFFFFFFFF AND SUB PUSH2 0x93B JUMPI PUSH1 0x40 MLOAD PUSH32 0x8C379A000000000000000000000000000000000000000000000000000000000 DUP2 MSTORE PUSH1 0x4 ADD PUSH2 0x932 SWAP1 PUSH2 0x3C8F JUMP JUMPDEST PUSH1 0x40 MLOAD DUP1 SWAP2 SUB SWAP1 REVERT JUMPDEST DUP1 PUSH20 0xFFFFFFFFFFFFFFFFFFFFFFFFFFFFFFFFFFFFFFFF AND PUSH2 0x95A PUSH2 0x224A JUMP JUMPDEST PUSH20 0xFFFFFFFFFFFFFFFFFFFFFFFFFFFFFFFFFFFFFFFF AND EQ DUP1 PUSH2 0x989 JUMPI POP PUSH2 0x988 DUP2 PUSH2 0x983 PUSH2 0x224A JUMP JUMPDEST PUSH2 0x1D82 JUMP JUMPDEST JUMPDEST PUSH2 0x9C8 JUMPI PUSH1 0x40 MLOAD PUSH32 0x8C379A000000000000000000000000000000000000000000000000000000000 DUP2 MSTORE PUSH1 0x4 ADD PUSH2 0x9BF SWAP1 PUSH2 0x3D21 JUMP JUMPDEST PUSH1 0x40 MLOAD DUP1 SWAP2 SUB SWAP1 REVERT JUMPDEST PUSH2 0x9D2 DUP4 DUP4 PUSH2 0x2252 JUMP JUMPDEST POP POP POP JUMP JUMPDEST PUSH2 0x9DF PUSH2 0x230B JUMP JUMPDEST DUP1 PUSH1 0xF PUSH1 0x0 PUSH2 0x100 EXP DUP2 SLOAD DUP2 PUSH20 0xFFFFFFFFFFFFFFFFFFFFFFFFFFFFFFFFFFFFFFFF MUL NOT AND SWAP1 DUP4 PUSH20 0xFFFFFFFFFFFFFFFFFFFFFFFFFFFFFFFFFFFFFFFF AND MUL OR SWAP1 SSTORE POP POP JUMP JUMPDEST PUSH1 0x0 PUSH1 0xB SLOAD SWAP1 POP SWAP1 JUMP JUMPDEST PUSH2 0xA35 PUSH2 0x230B JUMP JUMPDEST PUSH2 0xA3D PUSH2 0x2389 JUMP JUMPDEST PUSH1 0x0 PUSH1 0xA PUSH1 0x0 DUP5 DUP2 MSTORE PUSH1 0x20 ADD SWAP1 DUP2 MSTORE PUSH1 0x20 ADD PUSH1 0x0 KECCAK256 SWAP1 POP PUSH1 0x0 PUSH20 0xFFFFFFFFFFFFFFFFFFFFFFFFFFFFFFFFFFFFFFFF AND DUP2 PUSH1 0x4 ADD PUSH1 0x0 SWAP1 SLOAD SWAP1 PUSH2 0x100 EXP SWAP1 DIV PUSH20 0xFFFFFFFFFFFFFFFFFFFFFFFFFFFFFFFFFFFFFFFF AND PUSH20 0xFFFFFFFFFFFFFFFFFFFFFFFFFFFFFFFFFFFFFFFF AND SUB PUSH2 0xADE JUMPI PUSH1 0x40 MLOAD PUSH32 0xA019981800000000000000000000000000000000000000000000000000000000 DUP2 MSTORE PUSH1 0x4 ADD PUSH1 0x40 MLOAD DUP1 SWAP2 SUB SWAP1 REVERT JUMPDEST PUSH1 0x0 PUSH1 0x2 DUP2 GT ISZERO PUSH2 0xAF2 JUMPI PUSH2 0xAF1 PUSH2 0x38B1 JUMP JUMPDEST JUMPDEST DUP2 PUSH1 0x4 ADD PUSH1 0x14 SWAP1 SLOAD SWAP1 PUSH2 0x100 EXP SWAP1 DIV PUSH1 0xFF AND PUSH1 0x2 DUP2 GT ISZERO PUSH2 0xB16 JUMPI PUSH2 0xB15 PUSH2 0x38B1 JUMP JUMPDEST JUMPDEST EQ PUSH2 0xB4D JUMPI PUSH1 0x40 MLOAD PUSH32 0x7DC6505A00000000000000000000000000000000000000000000000000000000 DUP2 MSTORE PUSH1 0x4 ADD PUSH1 0x40 MLOAD DUP1 SWAP2 SUB SWAP1 REVERT JUMPDEST PUSH1 0x1 DUP2 PUSH1 0x4 ADD PUSH1 0x14 PUSH2 0x100 EXP DUP2 SLOAD DUP2 PUSH1 0xFF MUL NOT AND SWAP1 DUP4 PUSH1 0x2 DUP2 GT ISZERO PUSH2 0xB75 JUMPI PUSH2 0xB74 PUSH2 0x38B1 JUMP JUMPDEST JUMPDEST MUL OR SWAP1 SSTORE POP PUSH1 0x0 PUSH2 0xB84 PUSH2 0xA23 JUMP JUMPDEST SWAP1 POP DUP4 PUSH1 0xC PUSH1 0x0 DUP4 DUP2 MSTORE PUSH1 0x20 ADD SWAP1 DUP2 MSTORE PUSH1 0x20 ADD PUSH1 0x0 KECCAK256 DUP2 SWAP1 SSTORE POP PUSH2 0xBCC DUP3 PUSH1 0x4 ADD PUSH1 0x0 SWAP1 SLOAD SWAP1 PUSH2 0x100 EXP SWAP1 DIV PUSH20 0xFFFFFFFFFFFFFFFFFFFFFFFFFFFFFFFFFFFFFFFF AND DUP3 PUSH2 0x23D8 JUMP JUMPDEST PUSH1 0xB PUSH1 0x0 DUP2 SLOAD DUP1 SWAP3 SWAP2 SWAP1 PUSH2 0xBDF SWAP1 PUSH2 0x3D70 JUMP JUMPDEST SWAP2 SWAP1 POP SSTORE POP PUSH2 0xBEE DUP2 DUP5 PUSH2 0x23F6 JUMP JUMPDEST DUP1 DUP5 PUSH32 0x638D892B8630B775FEA5D7A52B209E8BFA1D90C32B57CD37208AC84D4BCD6DCB PUSH1 0x40 MLOAD PUSH1 0x40 MLOAD DUP1 SWAP2 SUB SWAP1 LOG3 POP POP PUSH2 0xC26 PUSH2 0x249A JUMP JUMPDEST POP POP JUMP JUMPDEST PUSH2 0xC3B PUSH2 0xC35 PUSH2 0x224A JUMP JUMPDEST DUP3 PUSH2 0x24A4 JUMP JUMPDEST PUSH2 0xC7A JUMPI PUSH1 0x40 MLOAD PUSH32 0x8C379A000000000000000000000000000000000000000000000000000000000 DUP2 MSTORE PUSH1 0x4 ADD PUSH2 0xC71 SWAP1 PUSH2 0x3E2A JUMP JUMPDEST PUSH1 0x40 MLOAD DUP1 SWAP2 SUB SWAP1 REVERT JUMPDEST PUSH2 0xC85 DUP4 DUP4 DUP4 PUSH2 0x2539 JUMP JUMPDEST POP POP POP JUMP JUMPDEST PUSH2 0xC92 PUSH2 0x230B JUMP JUMPDEST PUSH1 0x0 PUSH1 0xA PUSH1 0x0 DUP5 DUP2 MSTORE PUSH1 0x20 ADD SWAP1 DUP2 MSTORE PUSH1 0x20 ADD PUSH1 0x0 KECCAK256 SWAP1 POP PUSH1 0x0 PUSH20 0xFFFFFFFFFFFFFFFFFFFFFFFFFFFFFFFFFFFFFFFF AND DUP2 PUSH1 0x4 ADD PUSH1 0x0 SWAP1 SLOAD SWAP1 PUSH2 0x100 EXP SWAP1 DIV PUSH20 0xFFFFFFFFFFFFFFFFFFFFFFFFFFFFFFFFFFFFFFFF AND PUSH20 0xFFFFFFFFFFFFFFFFFFFFFFFFFFFFFFFFFFFFFFFF AND SUB PUSH2 0xD33 JUMPI PUSH1 0x40 MLOAD PUSH32 0xA019981800000000000000000000000000000000000000000000000000000000 DUP2 MSTORE PUSH1 0x4 ADD PUSH1 0x40 MLOAD DUP1 SWAP2 SUB SWAP1 REVERT JUMPDEST PUSH1 0x0 PUSH1 0x2 DUP2 GT ISZERO PUSH2 0xD47 JUMPI PUSH2 0xD46 PUSH2 0x38B1 JUMP JUMPDEST JUMPDEST DUP2 PUSH1 0x4 ADD PUSH1 0x14 SWAP1 SLOAD SWAP1 PUSH2 0x100 EXP SWAP1 DIV PUSH1 0xFF AND PUSH1 0x2 DUP2 GT ISZERO PUSH2 0xD6B JUMPI PUSH2 0xD6A PUSH2 0x38B1 JUMP JUMPDEST JUMPDEST EQ PUSH2 0xDA2 JUMPI PUSH1 0x40 MLOAD PUSH32 0x7DC6505A00000000000000000000000000000000000000000000000000000000 DUP2 MSTORE PUSH1 0x4 ADD PUSH1 0x40 MLOAD DUP1 SWAP2 SUB SWAP1 REVERT JUMPDEST PUSH1 0x2 DUP2 PUSH1 0x4 ADD PUSH1 0x14 PUSH2 0x100 EXP DUP2 SLOAD DUP2 PUSH1 0xFF MUL NOT AND SWAP1 DUP4 PUSH1 0x2 DUP2 GT ISZERO PUSH2 0xDCA JUMPI PUSH2 0xDC9 PUSH2 0x38B1 JUMP JUMPDEST JUMPDEST MUL OR SWAP1 SSTORE POP DUP3 PUSH32 0x43CC3D080E025C67C26D62B18BD442511DC9C76C8AA3F48CC0E8F456173E61F1 DUP4 PUSH1 0x40 MLOAD PUSH2 0xDFF SWAP2 SWAP1 PUSH2 0x347D JUMP JUMPDEST PUSH1 0x40 MLOAD DUP1 SWAP2 SUB SWAP1 LOG2 POP POP POP JUMP JUMPDEST PUSH1 0x0 PUSH1 0xE PUSH1 0x0 DUP4 PUSH20 0xFFFFFFFFFFFFFFFFFFFFFFFFFFFFFFFFFFFFFFFF AND PUSH20 0xFFFFFFFFFFFFFFFFFFFFFFFFFFFFFFFFFFFFFFFF AND DUP2 MSTORE PUSH1 0x20 ADD SWAP1 DUP2 MSTORE PUSH1 0x20 ADD PUSH1 0x0 KECCAK256 DUP1 SLOAD SWAP1 POP SWAP1 POP SWAP2 SWAP1 POP JUMP JUMPDEST PUSH2 0xE73 DUP4 DUP4 DUP4 PUSH1 0x40 MLOAD DUP1 PUSH1 0x20 ADD PUSH1 0x40 MSTORE DUP1 PUSH1 0x0 DUP2 MSTORE POP PUSH2 0x1708 JUMP JUMPDEST POP POP POP JUMP JUMPDEST PUSH2 0xE81 DUP2 PUSH2 0x2832 JUMP JUMPDEST PUSH2 0xEC0 JUMPI PUSH1 0x40 MLOAD PUSH32 0x8C379A000000000000000000000000000000000000000000000000000000000 DUP2 MSTORE PUSH1 0x4 ADD PUSH2 0xEB7 SWAP1 PUSH2 0x3E96 JUMP JUMPDEST PUSH1 0x40 MLOAD DUP1 SWAP2 SUB SWAP1 REVERT JUMPDEST PUSH2 0xEC9 DUP2 PUSH2 0x2873 JUMP JUMPDEST DUP1 PUSH32 0xC526103B8F47AF5516191D0C89A598755BD00FAA211A3CB52E4C2CC782F7FE2 PUSH1 0x40 MLOAD PUSH1 0x40 MLOAD DUP1 SWAP2 SUB SWAP1 LOG2 POP JUMP JUMPDEST PUSH1 0x0 DUP1 PUSH2 0xF05 DUP4 PUSH2 0x28CF JUMP JUMPDEST SWAP1 POP PUSH1 0x0 PUSH20 0xFFFFFFFFFFFFFFFFFFFFFFFFFFFFFFFFFFFFFFFF AND DUP2 PUSH20 0xFFFFFFFFFFFFFFFFFFFFFFFFFFFFFFFFFFFFFFFF AND SUB PUSH2 0xF76 JUMPI PUSH1 0x40 MLOAD PUSH32 0x8C379A000000000000000000000000000000000000000000000000000000000 DUP2 MSTORE PUSH1 0x4 ADD PUSH2 0xF6D SWAP1 PUSH2 0x3F02 JUMP JUMPDEST PUSH1 0x40 MLOAD DUP1 SWAP2 SUB SWAP1 REVERT JUMPDEST DUP1 SWAP2 POP POP SWAP2 SWAP1 POP JUMP JUMPDEST PUSH1 0x0 DUP1 PUSH20 0xFFFFFFFFFFFFFFFFFFFFFFFFFFFFFFFFFFFFFFFF AND DUP3 PUSH20 0xFFFFFFFFFFFFFFFFFFFFFFFFFFFFFFFFFFFFFFFF AND SUB PUSH2 0xFEF JUMPI PUSH1 0x40 MLOAD PUSH32 0x8C379A000000000000000000000000000000000000000000000000000000000 DUP2 MSTORE PUSH1 0x4 ADD PUSH2 0xFE6 SWAP1 PUSH2 0x3F94 JUMP JUMPDEST PUSH1 0x40 MLOAD DUP1 SWAP2 SUB SWAP1 REVERT JUMPDEST PUSH1 0x3 PUSH1 0x0 DUP4 PUSH20 0xFFFFFFFFFFFFFFFFFFFFFFFFFFFFFFFFFFFFFFFF AND PUSH20 0xFFFFFFFFFFFFFFFFFFFFFFFFFFFFFFFFFFFFFFFF AND DUP2 MSTORE PUSH1 0x20 ADD SWAP1 DUP2 MSTORE PUSH1 0x20 ADD PUSH1 0x0 KECCAK256 SLOAD SWAP1 POP SWAP2 SWAP1 POP JUMP JUMPDEST PUSH2 0x103E PUSH2 0x230B JUMP JUMPDEST PUSH2 0x1048 PUSH1 0x0 PUSH2 0x290C JUMP JUMPDEST JUMP JUMPDEST PUSH2 0x1052 PUSH2 0x2389 JUMP JUMPDEST PUSH2 0x105B DUP3 PUSH2 0x2832 JUMP JUMPDEST PUSH2 0x1091 JUMPI PUSH1 0x40 MLOAD PUSH32 0xA019981800000000000000000000000000000000000000000000000000000000 DUP2 MSTORE PUSH1 0x4 ADD PUSH1 0x40 MLOAD DUP1 SWAP2 SUB SWAP1 REVERT JUMPDEST CALLER PUSH20 0xFFFFFFFFFFFFFFFFFFFFFFFFFFFFFFFFFFFFFFFF AND PUSH2 0x10B1 DUP4 PUSH2 0xEF9 JUMP JUMPDEST PUSH20 0xFFFFFFFFFFFFFFFFFFFFFFFFFFFFFFFFFFFFFFFF AND EQ PUSH2 0x10FE JUMPI PUSH1 0x40 MLOAD PUSH32 0x94EEEF6600000000000000000000000000000000000000000000000000000000 DUP2 MSTORE PUSH1 0x4 ADD PUSH1 0x40 MLOAD DUP1 SWAP2 SUB SWAP1 REVERT JUMPDEST PUSH1 0x0 DUP2 SUB PUSH2 0x1137 JUMPI PUSH1 0x40 MLOAD PUSH31 0xBFC92100000000000000000000000000000000000000000000000000000000 DUP2 MSTORE PUSH1 0x4 ADD PUSH1 0x40 MLOAD DUP1 SWAP2 SUB SWAP1 REVERT JUMPDEST PUSH1 0x0 PUSH1 0xD PUSH1 0x0 DUP5 DUP2 MSTORE PUSH1 0x20 ADD SWAP1 DUP2 MSTORE PUSH1 0x20 ADD PUSH1 0x0 KECCAK256 SLOAD GT ISZERO PUSH2 0x1185 JUMPI PUSH1 0x40 MLOAD PUSH32 0xA3D582EC00000000000000000000000000000000000000000000000000000000 DUP2 MSTORE PUSH1 0x4 ADD PUSH1 0x40 MLOAD DUP1 SWAP2 SUB SWAP1 REVERT JUMPDEST DUP1 PUSH1 0xD PUSH1 0x0 DUP5 DUP2 MSTORE PUSH1 0x20 ADD SWAP1 DUP2 MSTORE PUSH1 0x20 ADD PUSH1 0x0 KECCAK256 DUP2 SWAP1 SSTORE POP DUP2 PUSH32 0x1EA85AAF6731DAA0C29195039C2A36576FB04E2CD16335504FAB8967DFB03F15 DUP3 PUSH1 0x40 MLOAD PUSH2 0x11CD SWAP2 SWAP1 PUSH2 0x3606 JUMP JUMPDEST PUSH1 0x40 MLOAD DUP1 SWAP2 SUB SWAP1 LOG2 PUSH2 0x11DD PUSH2 0x249A JUMP JUMPDEST POP POP JUMP JUMPDEST PUSH1 0xC PUSH1 0x20 MSTORE DUP1 PUSH1 0x0 MSTORE PUSH1 0x40 PUSH1 0x0 KECCAK256 PUSH1 0x0 SWAP2 POP SWAP1 POP SLOAD DUP2 JUMP JUMPDEST PUSH1 0x0 PUSH1 0x7 PUSH1 0x0 SWAP1 SLOAD SWAP1 PUSH2 0x100 EXP SWAP1 DIV PUSH20 0xFFFFFFFFFFFFFFFFFFFFFFFFFFFFFFFFFFFFFFFF AND SWAP1 POP SWAP1 JUMP JUMPDEST PUSH1 0x60 PUSH1 0x1 DUP1 SLOAD PUSH2 0x1232 SWAP1 PUSH2 0x3BEC JUMP JUMPDEST DUP1 PUSH1 0x1F ADD PUSH1 0x20 DUP1 SWAP2 DIV MUL PUSH1 0x20 ADD PUSH1 0x40 MLOAD SWAP1 DUP2 ADD PUSH1 0x40 MSTORE DUP1 SWAP3 SWAP2 SWAP1 DUP2 DUP2 MSTORE PUSH1 0x20 ADD DUP3 DUP1 SLOAD PUSH2 0x125E SWAP1 PUSH2 0x3BEC JUMP JUMPDEST DUP1 ISZERO PUSH2 0x12AB JUMPI DUP1 PUSH1 0x1F LT PUSH2 0x1280 JUMPI PUSH2 0x100 DUP1 DUP4 SLOAD DIV MUL DUP4 MSTORE SWAP2 PUSH1 0x20 ADD SWAP2 PUSH2 0x12AB JUMP JUMPDEST DUP3 ADD SWAP2 SWAP1 PUSH1 0x0 MSTORE PUSH1 0x20 PUSH1 0x0 KECCAK256 SWAP1 JUMPDEST DUP2 SLOAD DUP2 MSTORE SWAP1 PUSH1 0x1 ADD SWAP1 PUSH1 0x20 ADD DUP1 DUP4 GT PUSH2 0x128E JUMPI DUP3 SWAP1 SUB PUSH1 0x1F AND DUP3 ADD SWAP2 JUMPDEST POP POP POP POP POP SWAP1 POP SWAP1 JUMP JUMPDEST PUSH1 0x0 PUSH1 0xE PUSH1 0x0 DUP5 PUSH20 0xFFFFFFFFFFFFFFFFFFFFFFFFFFFFFFFFFFFFFFFF AND PUSH20 0xFFFFFFFFFFFFFFFFFFFFFFFFFFFFFFFFFFFFFFFF AND DUP2 MSTORE PUSH1 0x20 ADD SWAP1 DUP2 MSTORE PUSH1 0x20 ADD PUSH1 0x0 KECCAK256 DUP1 SLOAD SWAP1 POP DUP3 LT PUSH2 0x133B JUMPI PUSH1 0x40 MLOAD PUSH32 0x8C379A000000000000000000000000000000000000000000000000000000000 DUP2 MSTORE PUSH1 0x4 ADD PUSH2 0x1332 SWAP1 PUSH2 0x4000 JUMP JUMPDEST PUSH1 0x40 MLOAD DUP1 SWAP2 SUB SWAP1 REVERT JUMPDEST PUSH1 0xE PUSH1 0x0 DUP5 PUSH20 0xFFFFFFFFFFFFFFFFFFFFFFFFFFFFFFFFFFFFFFFF AND PUSH20 0xFFFFFFFFFFFFFFFFFFFFFFFFFFFFFFFFFFFFFFFF AND DUP2 MSTORE PUSH1 0x20 ADD SWAP1 DUP2 MSTORE PUSH1 0x20 ADD PUSH1 0x0 KECCAK256 DUP3 DUP2 SLOAD DUP2 LT PUSH2 0x138C JUMPI PUSH2 0x138B PUSH2 0x4020 JUMP JUMPDEST JUMPDEST SWAP1 PUSH1 0x0 MSTORE PUSH1 0x20 PUSH1 0x0 KECCAK256 ADD SLOAD SWAP1 POP SWAP3 SWAP2 POP POP JUMP JUMPDEST PUSH2 0x13B1 PUSH2 0x13AA PUSH2 0x224A JUMP JUMPDEST DUP4 DUP4 PUSH2 0x29D2 JUMP JUMPDEST POP POP JUMP JUMPDEST PUSH1 0xA PUSH1 0x20 MSTORE DUP1 PUSH1 0x0 MSTORE PUSH1 0x40 PUSH1 0x0 KECCAK256 PUSH1 0x0 SWAP2 POP SWAP1 POP DUP1 PUSH1 0x0 ADD DUP1 SLOAD PUSH2 0x13D8 SWAP1 PUSH2 0x3BEC JUMP JUMPDEST DUP1 PUSH1 0x1F ADD PUSH1 0x20 DUP1 SWAP2 DIV MUL PUSH1 0x20 ADD PUSH1 0x40 MLOAD SWAP1 DUP2 ADD PUSH1 0x40 MSTORE DUP1 SWAP3 SWAP2 SWAP1 DUP2 DUP2 MSTORE PUSH1 0x20 ADD DUP3 DUP1 SLOAD PUSH2 0x1404 SWAP1 PUSH2 0x3BEC JUMP JUMPDEST DUP1 ISZERO PUSH2 0x1451 JUMPI DUP1 PUSH1 0x1F LT PUSH2 0x1426 JUMPI PUSH2 0x100 DUP1 DUP4 SLOAD DIV MUL DUP4 MSTORE SWAP2 PUSH1 0x20 ADD SWAP2 PUSH2 0x1451 JUMP JUMPDEST DUP3 ADD SWAP2 SWAP1 PUSH1 0x0 MSTORE PUSH1 0x20 PUSH1 0x0 KECCAK256 SWAP1 JUMPDEST DUP2 SLOAD DUP2 MSTORE SWAP1 PUSH1 0x1 ADD SWAP1 PUSH1 0x20 ADD DUP1 DUP4 GT PUSH2 0x1434 JUMPI DUP3 SWAP1 SUB PUSH1 0x1F AND DUP3 ADD SWAP2 JUMPDEST POP POP POP POP POP SWAP1 DUP1 PUSH1 0x1 ADD DUP1 SLOAD PUSH2 0x1466 SWAP1 PUSH2 0x3BEC JUMP JUMPDEST DUP1 PUSH1 0x1F ADD PUSH1 0x20 DUP1 SWAP2 DIV MUL PUSH1 0x20 ADD PUSH1 0x40 MLOAD SWAP1 DUP2 ADD PUSH1 0x40 MSTORE DUP1 SWAP3 SWAP2 SWAP1 DUP2 DUP2 MSTORE PUSH1 0x20 ADD DUP3 DUP1 SLOAD PUSH2 0x1492 SWAP1 PUSH2 0x3BEC JUMP JUMPDEST DUP1 ISZERO PUSH2 0x14DF JUMPI DUP1 PUSH1 0x1F LT PUSH2 0x14B4 JUMPI PUSH2 0x100 DUP1 DUP4 SLOAD DIV MUL DUP4 MSTORE SWAP2 PUSH1 0x20 ADD SWAP2 PUSH2 0x14DF JUMP JUMPDEST DUP3 ADD SWAP2 SWAP1 PUSH1 0x0 MSTORE PUSH1 0x20 PUSH1 0x0 KECCAK256 SWAP1 JUMPDEST DUP2 SLOAD DUP2 MSTORE SWAP1 PUSH1 0x1 ADD SWAP1 PUSH1 0x20 ADD DUP1 DUP4 GT PUSH2 0x14C2 JUMPI DUP3 SWAP1 SUB PUSH1 0x1F AND DUP3 ADD SWAP2 JUMPDEST POP POP POP POP POP SWAP1 DUP1 PUSH1 0x2 ADD SLOAD SWAP1 DUP1 PUSH1 0x3 ADD DUP1 SLOAD PUSH2 0x14FA SWAP1 PUSH2 0x3BEC JUMP JUMPDEST DUP1 PUSH1 0x1F ADD PUSH1 0x20 DUP1 SWAP2 DIV MUL PUSH1 0x20 ADD PUSH1 0x40 MLOAD SWAP1 DUP2 ADD PUSH1 0x40 MSTORE DUP1 SWAP3 SWAP2 SWAP1 DUP2 DUP2 MSTORE PUSH1 0x20 ADD DUP3 DUP1 SLOAD PUSH2 0x1526 SWAP1 PUSH2 0x3BEC JUMP JUMPDEST DUP1 ISZERO PUSH2 0x1573 JUMPI DUP1 PUSH1 0x1F LT PUSH2 0x1548 JUMPI PUSH2 0x100 DUP1 DUP4 SLOAD DIV MUL DUP4 MSTORE SWAP2 PUSH1 0x20 ADD SWAP2 PUSH2 0x1573 JUMP JUMPDEST DUP3 ADD SWAP2 SWAP1 PUSH1 0x0 MSTORE PUSH1 0x20 PUSH1 0x0 KECCAK256 SWAP1 JUMPDEST DUP2 SLOAD DUP2 MSTORE SWAP1 PUSH1 0x1 ADD SWAP1 PUSH1 0x20 ADD DUP1 DUP4 GT PUSH2 0x1556 JUMPI DUP3 SWAP1 SUB PUSH1 0x1F AND DUP3 ADD SWAP2 JUMPDEST POP POP POP POP POP SWAP1 DUP1 PUSH1 0x4 ADD PUSH1 0x0 SWAP1 SLOAD SWAP1 PUSH2 0x100 EXP SWAP1 DIV PUSH20 0xFFFFFFFFFFFFFFFFFFFFFFFFFFFFFFFFFFFFFFFF AND SWAP1 DUP1 PUSH1 0x4 ADD PUSH1 0x14 SWAP1 SLOAD SWAP1 PUSH2 0x100 EXP SWAP1 DIV PUSH1 0xFF AND SWAP1 POP DUP7 JUMP JUMPDEST PUSH2 0x15BE PUSH2 0x2389 JUMP JUMPDEST PUSH2 0x15C7 DUP2 PUSH2 0x2832 JUMP JUMPDEST PUSH2 0x15FD JUMPI PUSH1 0x40 MLOAD PUSH32 0xA019981800000000000000000000000000000000000000000000000000000000 DUP2 MSTORE PUSH1 0x4 ADD PUSH1 0x40 MLOAD DUP1 SWAP2 SUB SWAP1 REVERT JUMPDEST CALLER PUSH20 0xFFFFFFFFFFFFFFFFFFFFFFFFFFFFFFFFFFFFFFFF AND PUSH2 0x161D DUP3 PUSH2 0xEF9 JUMP JUMPDEST PUSH20 0xFFFFFFFFFFFFFFFFFFFFFFFFFFFFFFFFFFFFFFFF AND EQ PUSH2 0x166A JUMPI PUSH1 0x40 MLOAD PUSH32 0x94EEEF6600000000000000000000000000000000000000000000000000000000 DUP2 MSTORE PUSH1 0x4 ADD PUSH1 0x40 MLOAD DUP1 SWAP2 SUB SWAP1 REVERT JUMPDEST PUSH1 0x0 PUSH1 0xD PUSH1 0x0 DUP4 DUP2 MSTORE PUSH1 0x20 ADD SWAP1 DUP2 MSTORE PUSH1 0x20 ADD PUSH1 0x0 KECCAK256 SLOAD SUB PUSH2 0x16B7 JUMPI PUSH1 0x40 MLOAD PUSH32 0x665C1C5700000000000000000000000000000000000000000000000000000000 DUP2 MSTORE PUSH1 0x4 ADD PUSH1 0x40 MLOAD DUP1 SWAP2 SUB SWAP1 REVERT JUMPDEST PUSH1 0x0 PUSH1 0xD PUSH1 0x0 DUP4 DUP2 MSTORE PUSH1 0x20 ADD SWAP1 DUP2 MSTORE PUSH1 0x20 ADD PUSH1 0x0 KECCAK256 DUP2 SWAP1 SSTORE POP DUP1 PUSH32 0xE0BBA5D0BDEDDBCC4EF688B9D8170C81883FB4C4A7065D8970C58B47996DD2D7 PUSH1 0x40 MLOAD PUSH1 0x40 MLOAD DUP1 SWAP2 SUB SWAP1 LOG2 PUSH2 0x1705 PUSH2 0x249A JUMP JUMPDEST POP JUMP JUMPDEST PUSH2 0x1719 PUSH2 0x1713 PUSH2 0x224A JUMP JUMPDEST DUP4 PUSH2 0x24A4 JUMP JUMPDEST PUSH2 0x1758 JUMPI PUSH1 0x40 MLOAD PUSH32 0x8C379A000000000000000000000000000000000000000000000000000000000 DUP2 MSTORE PUSH1 0x4 ADD PUSH2 0x174F SWAP1 PUSH2 0x3E2A JUMP JUMPDEST PUSH1 0x40 MLOAD DUP1 SWAP2 SUB SWAP1 REVERT JUMPDEST PUSH2 0x1764 DUP5 DUP5 DUP5 DUP5 PUSH2 0x2B3E JUMP JUMPDEST POP POP POP POP JUMP JUMPDEST PUSH1 0x0 PUSH1 0x9 SLOAD SWAP1 POP SWAP1 JUMP JUMPDEST PUSH2 0x177C PUSH2 0x2389 JUMP JUMPDEST PUSH2 0x1785 DUP2 PUSH2 0x2832 JUMP JUMPDEST PUSH2 0x17BB JUMPI PUSH1 0x40 MLOAD PUSH32 0xA019981800000000000000000000000000000000000000000000000000000000 DUP2 MSTORE PUSH1 0x4 ADD PUSH1 0x40 MLOAD DUP1 SWAP2 SUB SWAP1 REVERT JUMPDEST PUSH1 0x0 PUSH1 0xD PUSH1 0x0 DUP4 DUP2 MSTORE PUSH1 0x20 ADD SWAP1 DUP2 MSTORE PUSH1 0x20 ADD PUSH1 0x0 KECCAK256 SLOAD SWAP1 POP PUSH1 0x0 DUP2 SUB PUSH2 0x180D JUMPI PUSH1 0x40 MLOAD PUSH32 0x665C1C5700000000000000000000000000000000000000000000000000000000 DUP2 MSTORE PUSH1 0x4 ADD PUSH1 0x40 MLOAD DUP1 SWAP2 SUB SWAP1 REVERT JUMPDEST DUP1 CALLVALUE LT ISZERO PUSH2 0x1847 JUMPI PUSH1 0x40 MLOAD PUSH32 0x356680B700000000000000000000000000000000000000000000000000000000 DUP2 MSTORE PUSH1 0x4 ADD PUSH1 0x40 MLOAD DUP1 SWAP2 SUB SWAP1 REVERT JUMPDEST PUSH1 0x0 PUSH2 0x1852 DUP4 PUSH2 0xEF9 JUMP JUMPDEST SWAP1 POP PUSH1 0x0 PUSH1 0xD PUSH1 0x0 DUP6 DUP2 MSTORE PUSH1 0x20 ADD SWAP1 DUP2 MSTORE PUSH1 0x20 ADD PUSH1 0x0 KECCAK256 DUP2 SWAP1 SSTORE POP PUSH2 0x1878 DUP2 CALLER DUP6 PUSH2 0x2539 JUMP JUMPDEST PUSH1 0x0 DUP2 PUSH20 0xFFFFFFFFFFFFFFFFFFFFFFFFFFFFFFFFFFFFFFFF AND DUP4 PUSH1 0x40 MLOAD PUSH2 0x189E SWAP1 PUSH2 0x4080 JUMP JUMPDEST PUSH1 0x0 PUSH1 0x40 MLOAD DUP1 DUP4 SUB DUP2 DUP6 DUP8 GAS CALL SWAP3 POP POP POP RETURNDATASIZE DUP1 PUSH1 0x0 DUP2 EQ PUSH2 0x18DB JUMPI PUSH1 0x40 MLOAD SWAP2 POP PUSH1 0x1F NOT PUSH1 0x3F RETURNDATASIZE ADD AND DUP3 ADD PUSH1 0x40 MSTORE RETURNDATASIZE DUP3 MSTORE RETURNDATASIZE PUSH1 0x0 PUSH1 0x20 DUP5 ADD RETURNDATACOPY PUSH2 0x18E0 JUMP JUMPDEST PUSH1 0x60 SWAP2 POP JUMPDEST POP POP SWAP1 POP DUP1 PUSH2 0x1924 JUMPI PUSH1 0x40 MLOAD PUSH32 0x8C379A000000000000000000000000000000000000000000000000000000000 DUP2 MSTORE PUSH1 0x4 ADD PUSH2 0x191B SWAP1 PUSH2 0x40E1 JUMP JUMPDEST PUSH1 0x40 MLOAD DUP1 SWAP2 SUB SWAP1 REVERT JUMPDEST DUP3 CALLVALUE GT ISZERO PUSH2 0x19E5 JUMPI PUSH1 0x0 CALLER PUSH20 0xFFFFFFFFFFFFFFFFFFFFFFFFFFFFFFFFFFFFFFFF AND DUP5 CALLVALUE PUSH2 0x1951 SWAP2 SWAP1 PUSH2 0x4101 JUMP JUMPDEST PUSH1 0x40 MLOAD PUSH2 0x195D SWAP1 PUSH2 0x4080 JUMP JUMPDEST PUSH1 0x0 PUSH1 0x40 MLOAD DUP1 DUP4 SUB DUP2 DUP6 DUP8 GAS CALL SWAP3 POP POP POP RETURNDATASIZE DUP1 PUSH1 0x0 DUP2 EQ PUSH2 0x199A JUMPI PUSH1 0x40 MLOAD SWAP2 POP PUSH1 0x1F NOT PUSH1 0x3F RETURNDATASIZE ADD AND DUP3 ADD PUSH1 0x40 MSTORE RETURNDATASIZE DUP3 MSTORE RETURNDATASIZE PUSH1 0x0 PUSH1 0x20 DUP5 ADD RETURNDATACOPY PUSH2 0x199F JUMP JUMPDEST PUSH1 0x60 SWAP2 POP JUMPDEST POP POP SWAP1 POP DUP1 PUSH2 0x19E3 JUMPI PUSH1 0x40 MLOAD PUSH32 0x8C379A000000000000000000000000000000000000000000000000000000000 DUP2 MSTORE PUSH1 0x4 ADD PUSH2 0x19DA SWAP1 PUSH2 0x4181 JUMP JUMPDEST PUSH1 0x40 MLOAD DUP1 SWAP2 SUB SWAP1 REVERT JUMPDEST POP JUMPDEST CALLER PUSH20 0xFFFFFFFFFFFFFFFFFFFFFFFFFFFFFFFFFFFFFFFF AND DUP5 PUSH32 0x1CB6DD09E77CF64C9D88C8E0CF8555EBFF062045F2068F22EFCBC60905730E71 DUP6 PUSH1 0x40 MLOAD PUSH2 0x1A2C SWAP2 SWAP1 PUSH2 0x3606 JUMP JUMPDEST PUSH1 0x40 MLOAD DUP1 SWAP2 SUB SWAP1 LOG3 POP POP POP PUSH2 0x1A3F PUSH2 0x249A JUMP JUMPDEST POP JUMP JUMPDEST PUSH1 0x60 PUSH2 0x1A4D DUP3 PUSH2 0x2832 JUMP JUMPDEST PUSH2 0x1A8C JUMPI PUSH1 0x40 MLOAD PUSH32 0x8C379A000000000000000000000000000000000000000000000000000000000 DUP2 MSTORE PUSH1 0x4 ADD PUSH2 0x1A83 SWAP1 PUSH2 0x3E96 JUMP JUMPDEST PUSH1 0x40 MLOAD DUP1 SWAP2 SUB SWAP1 REVERT JUMPDEST PUSH1 0x0 PUSH1 0xC PUSH1 0x0 DUP5 DUP2 MSTORE PUSH1 0x20 ADD SWAP1 DUP2 MSTORE PUSH1 0x20 ADD PUSH1 0x0 KECCAK256 SLOAD SWAP1 POP PUSH1 0x0 PUSH1 0xA PUSH1 0x0 DUP4 DUP2 MSTORE PUSH1 0x20 ADD SWAP1 DUP2 MSTORE PUSH1 0x20 ADD PUSH1 0x0 KECCAK256 PUSH1 0x40 MLOAD DUP1 PUSH1 0xC0 ADD PUSH1 0x40 MSTORE SWAP1 DUP2 PUSH1 0x0 DUP3 ADD DUP1 SLOAD PUSH2 0x1AD4 SWAP1 PUSH2 0x3BEC JUMP JUMPDEST DUP1 PUSH1 0x1F ADD PUSH1 0x20 DUP1 SWAP2 DIV MUL PUSH1 0x20 ADD PUSH1 0x40 MLOAD SWAP1 DUP2 ADD PUSH1 0x40 MSTORE DUP1 SWAP3 SWAP2 SWAP1 DUP2 DUP2 MSTORE PUSH1 0x20 ADD DUP3 DUP1 SLOAD PUSH2 0x1B00 SWAP1 PUSH2 0x3BEC JUMP JUMPDEST DUP1 ISZERO PUSH2 0x1B4D JUMPI DUP1 PUSH1 0x1F LT PUSH2 0x1B22 JUMPI PUSH2 0x100 DUP1 DUP4 SLOAD DIV MUL DUP4 MSTORE SWAP2 PUSH1 0x20 ADD SWAP2 PUSH2 0x1B4D JUMP JUMPDEST DUP3 ADD SWAP2 SWAP1 PUSH1 0x0 MSTORE PUSH1 0x20 PUSH1 0x0 KECCAK256 SWAP1 JUMPDEST DUP2 SLOAD DUP2 MSTORE SWAP1 PUSH1 0x1 ADD SWAP1 PUSH1 0x20 ADD DUP1 DUP4 GT PUSH2 0x1B30 JUMPI DUP3 SWAP1 SUB PUSH1 0x1F AND DUP3 ADD SWAP2 JUMPDEST POP POP POP POP POP DUP2 MSTORE PUSH1 0x20 ADD PUSH1 0x1 DUP3 ADD DUP1 SLOAD PUSH2 0x1B66 SWAP1 PUSH2 0x3BEC JUMP JUMPDEST DUP1 PUSH1 0x1F ADD PUSH1 0x20 DUP1 SWAP2 DIV MUL PUSH1 0x20 ADD PUSH1 0x40 MLOAD SWAP1 DUP2 ADD PUSH1 0x40 MSTORE DUP1 SWAP3 SWAP2 SWAP1 DUP2 DUP2 MSTORE PUSH1 0x20 ADD DUP3 DUP1 SLOAD PUSH2 0x1B92 SWAP1 PUSH2 0x3BEC JUMP JUMPDEST DUP1 ISZERO PUSH2 0x1BDF JUMPI DUP1 PUSH1 0x1F LT PUSH2 0x1BB4 JUMPI PUSH2 0x100 DUP1 DUP4 SLOAD DIV MUL DUP4 MSTORE SWAP2 PUSH1 0x20 ADD SWAP2 PUSH2 0x1BDF JUMP JUMPDEST DUP3 ADD SWAP2 SWAP1 PUSH1 0x0 MSTORE PUSH1 0x20 PUSH1 0x0 KECCAK256 SWAP1 JUMPDEST DUP2 SLOAD DUP2 MSTORE SWAP1 PUSH1 0x1 ADD SWAP1 PUSH1 0x20 ADD DUP1 DUP4 GT PUSH2 0x1BC2 JUMPI DUP3 SWAP1 SUB PUSH1 0x1F AND DUP3 ADD SWAP2 JUMPDEST POP POP POP POP POP DUP2 MSTORE PUSH1 0x20 ADD PUSH1 0x2 DUP3 ADD SLOAD DUP2 MSTORE PUSH1 0x20 ADD PUSH1 0x3 DUP3 ADD DUP1 SLOAD PUSH2 0x1C02 SWAP1 PUSH2 0x3BEC JUMP JUMPDEST DUP1 PUSH1 0x1F ADD PUSH1 0x20 DUP1 SWAP2 DIV MUL PUSH1 0x20 ADD PUSH1 0x40 MLOAD SWAP1 DUP2 ADD PUSH1 0x40 MSTORE DUP1 SWAP3 SWAP2 SWAP1 DUP2 DUP2 MSTORE PUSH1 0x20 ADD DUP3 DUP1 SLOAD PUSH2 0x1C2E SWAP1 PUSH2 0x3BEC JUMP JUMPDEST DUP1 ISZERO PUSH2 0x1C7B JUMPI DUP1 PUSH1 0x1F LT PUSH2 0x1C50 JUMPI PUSH2 0x100 DUP1 DUP4 SLOAD DIV MUL DUP4 MSTORE SWAP2 PUSH1 0x20 ADD SWAP2 PUSH2 0x1C7B JUMP JUMPDEST DUP3 ADD SWAP2 SWAP1 PUSH1 0x0 MSTORE PUSH1 0x20 PUSH1 0x0 KECCAK256 SWAP1 JUMPDEST DUP2 SLOAD DUP2 MSTORE SWAP1 PUSH1 0x1 ADD SWAP1 PUSH1 0x20 ADD DUP1 DUP4 GT PUSH2 0x1C5E JUMPI DUP3 SWAP1 SUB PUSH1 0x1F AND DUP3 ADD SWAP2 JUMPDEST POP POP POP POP POP DUP2 MSTORE PUSH1 0x20 ADD PUSH1 0x4 DUP3 ADD PUSH1 0x0 SWAP1 SLOAD SWAP1 PUSH2 0x100 EXP SWAP1 DIV PUSH20 0xFFFFFFFFFFFFFFFFFFFFFFFFFFFFFFFFFFFFFFFF AND PUSH20 0xFFFFFFFFFFFFFFFFFFFFFFFFFFFFFFFFFFFFFFFF AND PUSH20 0xFFFFFFFFFFFFFFFFFFFFFFFFFFFFFFFFFFFFFFFF AND DUP2 MSTORE PUSH1 0x20 ADD PUSH1 0x4 DUP3 ADD PUSH1 0x14 SWAP1 SLOAD SWAP1 PUSH2 0x100 EXP SWAP1 DIV PUSH1 0xFF AND PUSH1 0x2 DUP2 GT ISZERO PUSH2 0x1CFF JUMPI PUSH2 0x1CFE PUSH2 0x38B1 JUMP JUMPDEST JUMPDEST PUSH1 0x2 DUP2 GT ISZERO PUSH2 0x1D11 JUMPI PUSH2 0x1D10 PUSH2 0x38B1 JUMP JUMPDEST JUMPDEST DUP2 MSTORE POP POP SWAP1 POP DUP1 PUSH1 0x60 ADD MLOAD PUSH1 0x40 MLOAD PUSH1 0x20 ADD PUSH2 0x1D2C SWAP2 SWAP1 PUSH2 0x4229 JUMP JUMPDEST PUSH1 0x40 MLOAD PUSH1 0x20 DUP2 DUP4 SUB SUB DUP2 MSTORE SWAP1 PUSH1 0x40 MSTORE SWAP3 POP POP POP SWAP2 SWAP1 POP JUMP JUMPDEST PUSH1 0xF PUSH1 0x0 SWAP1 SLOAD SWAP1 PUSH2 0x100 EXP SWAP1 DIV PUSH20 0xFFFFFFFFFFFFFFFFFFFFFFFFFFFFFFFFFFFFFFFF AND DUP2 JUMP JUMPDEST PUSH1 0xD PUSH1 0x20 MSTORE DUP1 PUSH1 0x0 MSTORE PUSH1 0x40 PUSH1 0x0 KECCAK256 PUSH1 0x0 SWAP2 POP SWAP1 POP SLOAD DUP2 JUMP JUMPDEST PUSH1 0x0 PUSH1 0x5 PUSH1 0x0 DUP5 PUSH20 0xFFFFFFFFFFFFFFFFFFFFFFFFFFFFFFFFFFFFFFFF AND PUSH20 0xFFFFFFFFFFFFFFFFFFFFFFFFFFFFFFFFFFFFFFFF AND DUP2 MSTORE PUSH1 0x20 ADD SWAP1 DUP2 MSTORE PUSH1 0x20 ADD PUSH1 0x0 KECCAK256 PUSH1 0x0 DUP4 PUSH20 0xFFFFFFFFFFFFFFFFFFFFFFFFFFFFFFFFFFFFFFFF AND PUSH20 0xFFFFFFFFFFFFFFFFFFFFFFFFFFFFFFFFFFFFFFFF AND DUP2 MSTORE PUSH1 0x20 ADD SWAP1 DUP2 MSTORE PUSH1 0x20 ADD PUSH1 0x0 KECCAK256 PUSH1 0x0 SWAP1 SLOAD SWAP1 PUSH2 0x100 EXP SWAP1 DIV PUSH1 0xFF AND SWAP1 POP SWAP3 SWAP2 POP POP JUMP JUMPDEST PUSH2 0x1E1E PUSH2 0x2389 JUMP JUMPDEST PUSH1 0x0 DUP5 SUB PUSH2 0x1E58 JUMPI PUSH1 0x40 MLOAD PUSH32 0x9A01E5FD00000000000000000000000000000000000000000000000000000000 DUP2 MSTORE PUSH1 0x4 ADD PUSH1 0x40 MLOAD DUP1 SWAP2 SUB SWAP1 REVERT JUMPDEST PUSH1 0x0 DUP4 MLOAD SUB PUSH2 0x1E93 JUMPI PUSH1 0x40 MLOAD PUSH32 0x7299CB4100000000000000000000000000000000000000000000000000000000 DUP2 MSTORE PUSH1 0x4 ADD PUSH1 0x40 MLOAD DUP1 SWAP2 SUB SWAP1 REVERT JUMPDEST PUSH1 0x0 DUP3 MLOAD SUB PUSH2 0x1ECE JUMPI PUSH1 0x40 MLOAD PUSH32 0x40132F1F00000000000000000000000000000000000000000000000000000000 DUP2 MSTORE PUSH1 0x4 ADD PUSH1 0x40 MLOAD DUP1 SWAP2 SUB SWAP1 REVERT JUMPDEST PUSH1 0x2E DUP2 MLOAD EQ PUSH2 0x1F09 JUMPI PUSH1 0x40 MLOAD PUSH32 0xDCDB6D0200000000000000000000000000000000000000000000000000000000 DUP2 MSTORE PUSH1 0x4 ADD PUSH1 0x40 MLOAD DUP1 SWAP2 SUB SWAP1 REVERT JUMPDEST PUSH1 0x0 PUSH1 0x9 PUSH1 0x0 DUP2 SLOAD DUP1 SWAP3 SWAP2 SWAP1 PUSH2 0x1F1E SWAP1 PUSH2 0x3D70 JUMP JUMPDEST SWAP2 SWAP1 POP SSTORE SWAP1 POP PUSH1 0x40 MLOAD DUP1 PUSH1 0xC0 ADD PUSH1 0x40 MSTORE DUP1 DUP6 DUP2 MSTORE PUSH1 0x20 ADD DUP5 DUP2 MSTORE PUSH1 0x20 ADD DUP7 DUP2 MSTORE PUSH1 0x20 ADD DUP4 DUP2 MSTORE PUSH1 0x20 ADD CALLER PUSH20 0xFFFFFFFFFFFFFFFFFFFFFFFFFFFFFFFFFFFFFFFF AND DUP2 MSTORE PUSH1 0x20 ADD PUSH1 0x0 PUSH1 0x2 DUP2 GT ISZERO PUSH2 0x1F77 JUMPI PUSH2 0x1F76 PUSH2 0x38B1 JUMP JUMPDEST JUMPDEST DUP2 MSTORE POP PUSH1 0xA PUSH1 0x0 DUP4 DUP2 MSTORE PUSH1 0x20 ADD SWAP1 DUP2 MSTORE PUSH1 0x20 ADD PUSH1 0x0 KECCAK256 PUSH1 0x0 DUP3 ADD MLOAD DUP2 PUSH1 0x0 ADD SWAP1 DUP2 PUSH2 0x1FA2 SWAP2 SWAP1 PUSH2 0x43F7 JUMP JUMPDEST POP PUSH1 0x20 DUP3 ADD MLOAD DUP2 PUSH1 0x1 ADD SWAP1 DUP2 PUSH2 0x1FB8 SWAP2 SWAP1 PUSH2 0x43F7 JUMP JUMPDEST POP PUSH1 0x40 DUP3 ADD MLOAD DUP2 PUSH1 0x2 ADD SSTORE PUSH1 0x60 DUP3 ADD MLOAD DUP2 PUSH1 0x3 ADD SWAP1 DUP2 PUSH2 0x1FD8 SWAP2 SWAP1 PUSH2 0x43F7 JUMP JUMPDEST POP PUSH1 0x80 DUP3 ADD MLOAD DUP2 PUSH1 0x4 ADD PUSH1 0x0 PUSH2 0x100 EXP DUP2 SLOAD DUP2 PUSH20 0xFFFFFFFFFFFFFFFFFFFFFFFFFFFFFFFFFFFFFFFF MUL NOT AND SWAP1 DUP4 PUSH20 0xFFFFFFFFFFFFFFFFFFFFFFFFFFFFFFFFFFFFFFFF AND MUL OR SWAP1 SSTORE POP PUSH1 0xA0 DUP3 ADD MLOAD DUP2 PUSH1 0x4 ADD PUSH1 0x14 PUSH2 0x100 EXP DUP2 SLOAD DUP2 PUSH1 0xFF MUL NOT AND SWAP1 DUP4 PUSH1 0x2 DUP2 GT ISZERO PUSH2 0x204B JUMPI PUSH2 0x204A PUSH2 0x38B1 JUMP JUMPDEST JUMPDEST MUL OR SWAP1 SSTORE POP SWAP1 POP POP PUSH1 0xE PUSH1 0x0 CALLER PUSH20 0xFFFFFFFFFFFFFFFFFFFFFFFFFFFFFFFFFFFFFFFF AND PUSH20 0xFFFFFFFFFFFFFFFFFFFFFFFFFFFFFFFFFFFFFFFF AND DUP2 MSTORE PUSH1 0x20 ADD SWAP1 DUP2 MSTORE PUSH1 0x20 ADD PUSH1 0x0 KECCAK256 DUP2 SWAP1 DUP1 PUSH1 0x1 DUP2 SLOAD ADD DUP1 DUP3 SSTORE DUP1 SWAP2 POP POP PUSH1 0x1 SWAP1 SUB SWAP1 PUSH1 0x0 MSTORE PUSH1 0x20 PUSH1 0x0 KECCAK256 ADD PUSH1 0x0 SWAP1 SWAP2 SWAP1 SWAP2 SWAP1 SWAP2 POP SSTORE CALLER PUSH20 0xFFFFFFFFFFFFFFFFFFFFFFFFFFFFFFFFFFFFFFFF AND DUP2 PUSH32 0xD33658690112E8FE52B8E29967CA1ACAA7B543DF9D4DF01F8D18B8FB3D8622B1 DUP7 DUP9 DUP7 PUSH1 0x40 MLOAD PUSH2 0x2104 SWAP4 SWAP3 SWAP2 SWAP1 PUSH2 0x44C9 JUMP JUMPDEST PUSH1 0x40 MLOAD DUP1 SWAP2 SUB SWAP1 LOG3 POP PUSH2 0x2115 PUSH2 0x249A JUMP JUMPDEST POP POP POP POP JUMP JUMPDEST PUSH2 0x2123 PUSH2 0x230B JUMP JUMPDEST PUSH1 0x0 PUSH20 0xFFFFFFFFFFFFFFFFFFFFFFFFFFFFFFFFFFFFFFFF AND DUP2 PUSH20 0xFFFFFFFFFFFFFFFFFFFFFFFFFFFFFFFFFFFFFFFF AND SUB PUSH2 0x2192 JUMPI PUSH1 0x40 MLOAD PUSH32 0x8C379A000000000000000000000000000000000000000000000000000000000 DUP2 MSTORE PUSH1 0x4 ADD PUSH2 0x2189 SWAP1 PUSH2 0x4580 JUMP JUMPDEST PUSH1 0x40 MLOAD DUP1 SWAP2 SUB SWAP1 REVERT JUMPDEST PUSH2 0x219B DUP2 PUSH2 0x290C JUMP JUMPDEST POP JUMP JUMPDEST PUSH1 0x0 PUSH4 0x49064906 PUSH1 0xE0 SHL PUSH28 0xFFFFFFFFFFFFFFFFFFFFFFFFFFFFFFFFFFFFFFFFFFFFFFFFFFFFFFFF NOT AND DUP3 PUSH28 0xFFFFFFFFFFFFFFFFFFFFFFFFFFFFFFFFFFFFFFFFFFFFFFFFFFFFFFFF NOT AND EQ DUP1 PUSH2 0x21F8 JUMPI POP PUSH2 0x21F7 DUP3 PUSH2 0x2B9A JUMP JUMPDEST JUMPDEST SWAP1 POP SWAP2 SWAP1 POP JUMP JUMPDEST PUSH2 0x2208 DUP2 PUSH2 0x2832 JUMP JUMPDEST PUSH2 0x2247 JUMPI PUSH1 0x40 MLOAD PUSH32 0x8C379A000000000000000000000000000000000000000000000000000000000 DUP2 MSTORE PUSH1 0x4 ADD PUSH2 0x223E SWAP1 PUSH2 0x3F02 JUMP JUMPDEST PUSH1 0x40 MLOAD DUP1 SWAP2 SUB SWAP1 REVERT JUMPDEST POP JUMP JUMPDEST PUSH1 0x0 CALLER SWAP1 POP SWAP1 JUMP JUMPDEST DUP2 PUSH1 0x4 PUSH1 0x0 DUP4 DUP2 MSTORE PUSH1 0x20 ADD SWAP1 DUP2 MSTORE PUSH1 0x20 ADD PUSH1 0x0 KECCAK256 PUSH1 0x0 PUSH2 0x100 EXP DUP2 SLOAD DUP2 PUSH20 0xFFFFFFFFFFFFFFFFFFFFFFFFFFFFFFFFFFFFFFFF MUL NOT AND SWAP1 DUP4 PUSH20 0xFFFFFFFFFFFFFFFFFFFFFFFFFFFFFFFFFFFFFFFF AND MUL OR SWAP1 SSTORE POP DUP1 DUP3 PUSH20 0xFFFFFFFFFFFFFFFFFFFFFFFFFFFFFFFFFFFFFFFF AND PUSH2 0x22C5 DUP4 PUSH2 0xEF9 JUMP JUMPDEST PUSH20 0xFFFFFFFFFFFFFFFFFFFFFFFFFFFFFFFFFFFFFFFF AND PUSH32 0x8C5BE1E5EBEC7D5BD14F71427D1E84F3DD0314C0F7B2291E5B200AC8C7C3B925 PUSH1 0x40 MLOAD PUSH1 0x40 MLOAD DUP1 SWAP2 SUB SWAP1 LOG4 POP POP JUMP JUMPDEST PUSH2 0x2313 PUSH2 0x224A JUMP JUMPDEST PUSH20 0xFFFFFFFFFFFFFFFFFFFFFFFFFFFFFFFFFFFFFFFF AND PUSH2 0x2331 PUSH2 0x11F9 JUMP JUMPDEST PUSH20 0xFFFFFFFFFFFFFFFFFFFFFFFFFFFFFFFFFFFFFFFF AND EQ PUSH2 0x2387 JUMPI PUSH1 0x40 MLOAD PUSH32 0x8C379A000000000000000000000000000000000000000000000000000000000 DUP2 MSTORE PUSH1 0x4 ADD PUSH2 0x237E SWAP1 PUSH2 0x45EC JUMP JUMPDEST PUSH1 0x40 MLOAD DUP1 SWAP2 SUB SWAP1 REVERT JUMPDEST JUMP JUMPDEST PUSH1 0x2 PUSH1 0x8 SLOAD SUB PUSH2 0x23CE JUMPI PUSH1 0x40 MLOAD PUSH32 0x8C379A000000000000000000000000000000000000000000000000000000000 DUP2 MSTORE PUSH1 0x4 ADD PUSH2 0x23C5 SWAP1 PUSH2 0x4658 JUMP JUMPDEST PUSH1 0x40 MLOAD DUP1 SWAP2 SUB SWAP1 REVERT JUMPDEST PUSH1 0x2 PUSH1 0x8 DUP2 SWAP1 SSTORE POP JUMP JUMPDEST PUSH2 0x23F2 DUP3 DUP3 PUSH1 0x40 MLOAD DUP1 PUSH1 0x20 ADD PUSH1 0x40 MSTORE DUP1 PUSH1 0x0 DUP2 MSTORE POP PUSH2 0x2C7C JUMP JUMPDEST POP POP JUMP JUMPDEST PUSH2 0x23FF DUP3 PUSH2 0x2832 JUMP JUMPDEST PUSH2 0x243E JUMPI PUSH1 0x40 MLOAD PUSH32 0x8C379A000000000000000000000000000000000000000000000000000000000 DUP2 MSTORE PUSH1 0x4 ADD PUSH2 0x2435 SWAP1 PUSH2 0x46EA JUMP JUMPDEST PUSH1 0x40 MLOAD DUP1 SWAP2 SUB SWAP1 REVERT JUMPDEST DUP1 PUSH1 0x6 PUSH1 0x0 DUP5 DUP2 MSTORE PUSH1 0x20 ADD SWAP1 DUP2 MSTORE PUSH1 0x20 ADD PUSH1 0x0 KECCAK256 SWAP1 DUP2 PUSH2 0x245E SWAP2 SWAP1 PUSH2 0x43F7 JUMP JUMPDEST POP PUSH32 0xF8E1A15ABA9398E019F0B49DF1A4FDE98EE17AE345CB5F6B5E2C27F5033E8CE7 DUP3 PUSH1 0x40 MLOAD PUSH2 0x248E SWAP2 SWAP1 PUSH2 0x3606 JUMP JUMPDEST PUSH1 0x40 MLOAD DUP1 SWAP2 SUB SWAP1 LOG1 POP POP JUMP JUMPDEST PUSH1 0x1 PUSH1 0x8 DUP2 SWAP1 SSTORE POP JUMP JUMPDEST PUSH1 0x0 DUP1 PUSH2 0x24B0 DUP4 PUSH2 0xEF9 JUMP JUMPDEST SWAP1 POP DUP1 PUSH20 0xFFFFFFFFFFFFFFFFFFFFFFFFFFFFFFFFFFFFFFFF AND DUP5 PUSH20 0xFFFFFFFFFFFFFFFFFFFFFFFFFFFFFFFFFFFFFFFF AND EQ DUP1 PUSH2 0x24F2 JUMPI POP PUSH2 0x24F1 DUP2 DUP6 PUSH2 0x1D82 JUMP JUMPDEST JUMPDEST DUP1 PUSH2 0x2530 JUMPI POP DUP4 PUSH20 0xFFFFFFFFFFFFFFFFFFFFFFFFFFFFFFFFFFFFFFFF AND PUSH2 0x2518 DUP5 PUSH2 0x87A JUMP JUMPDEST PUSH20 0xFFFFFFFFFFFFFFFFFFFFFFFFFFFFFFFFFFFFFFFF AND EQ JUMPDEST SWAP2 POP POP SWAP3 SWAP2 POP POP JUMP JUMPDEST DUP3 PUSH20 0xFFFFFFFFFFFFFFFFFFFFFFFFFFFFFFFFFFFFFFFF AND PUSH2 0x2559 DUP3 PUSH2 0xEF9 JUMP JUMPDEST PUSH20 0xFFFFFFFFFFFFFFFFFFFFFFFFFFFFFFFFFFFFFFFF AND EQ PUSH2 0x25AF JUMPI PUSH1 0x40 MLOAD PUSH32 0x8C379A000000000000000000000000000000000000000000000000000000000 DUP2 MSTORE PUSH1 0x4 ADD PUSH2 0x25A6 SWAP1 PUSH2 0x477C JUMP JUMPDEST PUSH1 0x40 MLOAD DUP1 SWAP2 SUB SWAP1 REVERT JUMPDEST PUSH1 0x0 PUSH20 0xFFFFFFFFFFFFFFFFFFFFFFFFFFFFFFFFFFFFFFFF AND DUP3 PUSH20 0xFFFFFFFFFFFFFFFFFFFFFFFFFFFFFFFFFFFFFFFF AND SUB PUSH2 0x261E JUMPI PUSH1 0x40 MLOAD PUSH32 0x8C379A000000000000000000000000000000000000000000000000000000000 DUP2 MSTORE PUSH1 0x4 ADD PUSH2 0x2615 SWAP1 PUSH2 0x480E JUMP JUMPDEST PUSH1 0x40 MLOAD DUP1 SWAP2 SUB SWAP1 REVERT JUMPDEST PUSH2 0x262B DUP4 DUP4 DUP4 PUSH1 0x1 PUSH2 0x2CD7 JUMP JUMPDEST DUP3 PUSH20 0xFFFFFFFFFFFFFFFFFFFFFFFFFFFFFFFFFFFFFFFF AND PUSH2 0x264B DUP3 PUSH2 0xEF9 JUMP JUMPDEST PUSH20 0xFFFFFFFFFFFFFFFFFFFFFFFFFFFFFFFFFFFFFFFF AND EQ PUSH2 0x26A1 JUMPI PUSH1 0x40 MLOAD PUSH32 0x8C379A000000000000000000000000000000000000000000000000000000000 DUP2 MSTORE PUSH1 0x4 ADD PUSH2 0x2698 SWAP1 PUSH2 0x477C JUMP JUMPDEST PUSH1 0x40 MLOAD DUP1 SWAP2 SUB SWAP1 REVERT JUMPDEST PUSH1 0x4 PUSH1 0x0 DUP3 DUP2 MSTORE PUSH1 0x20 ADD SWAP1 DUP2 MSTORE PUSH1 0x20 ADD PUSH1 0x0 KECCAK256 PUSH1 0x0 PUSH2 0x100 EXP DUP2 SLOAD SWAP1 PUSH20 0xFFFFFFFFFFFFFFFFFFFFFFFFFFFFFFFFFFFFFFFF MUL NOT AND SWAP1 SSTORE PUSH1 0x1 PUSH1 0x3 PUSH1 0x0 DUP6 PUSH20 0xFFFFFFFFFFFFFFFFFFFFFFFFFFFFFFFFFFFFFFFF AND PUSH20 0xFFFFFFFFFFFFFFFFFFFFFFFFFFFFFFFFFFFFFFFF AND DUP2 MSTORE PUSH1 0x20 ADD SWAP1 DUP2 MSTORE PUSH1 0x20 ADD PUSH1 0x0 KECCAK256 PUSH1 0x0 DUP3 DUP3 SLOAD SUB SWAP3 POP POP DUP2 SWAP1 SSTORE POP PUSH1 0x1 PUSH1 0x3 PUSH1 0x0 DUP5 PUSH20 0xFFFFFFFFFFFFFFFFFFFFFFFFFFFFFFFFFFFFFFFF AND PUSH20 0xFFFFFFFFFFFFFFFFFFFFFFFFFFFFFFFFFFFFFFFF AND DUP2 MSTORE PUSH1 0x20 ADD SWAP1 DUP2 MSTORE PUSH1 0x20 ADD PUSH1 0x0 KECCAK256 PUSH1 0x0 DUP3 DUP3 SLOAD ADD SWAP3 POP POP DUP2 SWAP1 SSTORE POP DUP2 PUSH1 0x2 PUSH1 0x0 DUP4 DUP2 MSTORE PUSH1 0x20 ADD SWAP1 DUP2 MSTORE PUSH1 0x20 ADD PUSH1 0x0 KECCAK256 PUSH1 0x0 PUSH2 0x100 EXP DUP2 SLOAD DUP2 PUSH20 0xFFFFFFFFFFFFFFFFFFFFFFFFFFFFFFFFFFFFFFFF MUL NOT AND SWAP1 DUP4 PUSH20 0xFFFFFFFFFFFFFFFFFFFFFFFFFFFFFFFFFFFFFFFF AND MUL OR SWAP1 SSTORE POP DUP1 DUP3 PUSH20 0xFFFFFFFFFFFFFFFFFFFFFFFFFFFFFFFFFFFFFFFF AND DUP5 PUSH20 0xFFFFFFFFFFFFFFFFFFFFFFFFFFFFFFFFFFFFFFFF AND PUSH32 0xDDF252AD1BE2C89B69C2B068FC378DAA952BA7F163C4A11628F55A4DF523B3EF PUSH1 0x40 MLOAD PUSH1 0x40 MLOAD DUP1 SWAP2 SUB SWAP1 LOG4 PUSH2 0x282D DUP4 DUP4 DUP4 PUSH1 0x1 PUSH2 0x2CDD JUMP JUMPDEST POP POP POP JUMP JUMPDEST PUSH1 0x0 DUP1 PUSH20 0xFFFFFFFFFFFFFFFFFFFFFFFFFFFFFFFFFFFFFFFF AND PUSH2 0x2854 DUP4 PUSH2 0x28CF JUMP JUMPDEST PUSH20 0xFFFFFFFFFFFFFFFFFFFFFFFFFFFFFFFFFFFFFFFF AND EQ ISZERO SWAP1 POP SWAP2 SWAP1 POP JUMP JUMPDEST PUSH2 0x2884 PUSH2 0x287E PUSH2 0x224A JUMP JUMPDEST DUP3 PUSH2 0x24A4 JUMP JUMPDEST PUSH2 0x28C3 JUMPI PUSH1 0x40 MLOAD PUSH32 0x8C379A000000000000000000000000000000000000000000000000000000000 DUP2 MSTORE PUSH1 0x4 ADD PUSH2 0x28BA SWAP1 PUSH2 0x3E2A JUMP JUMPDEST PUSH1 0x40 MLOAD DUP1 SWAP2 SUB SWAP1 REVERT JUMPDEST PUSH2 0x28CC DUP2 PUSH2 0x2CE3 JUMP JUMPDEST POP JUMP JUMPDEST PUSH1 0x0 PUSH1 0x2 PUSH1 0x0 DUP4 DUP2 MSTORE PUSH1 0x20 ADD SWAP1 DUP2 MSTORE PUSH1 0x20 ADD PUSH1 0x0 KECCAK256 PUSH1 0x0 SWAP1 SLOAD SWAP1 PUSH2 0x100 EXP SWAP1 DIV PUSH20 0xFFFFFFFFFFFFFFFFFFFFFFFFFFFFFFFFFFFFFFFF AND SWAP1 POP SWAP2 SWAP1 POP JUMP JUMPDEST PUSH1 0x0 PUSH1 0x7 PUSH1 0x0 SWAP1 SLOAD SWAP1 PUSH2 0x100 EXP SWAP1 DIV PUSH20 0xFFFFFFFFFFFFFFFFFFFFFFFFFFFFFFFFFFFFFFFF AND SWAP1 POP DUP2 PUSH1 0x7 PUSH1 0x0 PUSH2 0x100 EXP DUP2 SLOAD DUP2 PUSH20 0xFFFFFFFFFFFFFFFFFFFFFFFFFFFFFFFFFFFFFFFF MUL NOT AND SWAP1 DUP4 PUSH20 0xFFFFFFFFFFFFFFFFFFFFFFFFFFFFFFFFFFFFFFFF AND MUL OR SWAP1 SSTORE POP DUP2 PUSH20 0xFFFFFFFFFFFFFFFFFFFFFFFFFFFFFFFFFFFFFFFF AND DUP2 PUSH20 0xFFFFFFFFFFFFFFFFFFFFFFFFFFFFFFFFFFFFFFFF AND PUSH32 0x8BE0079C531659141344CD1FD0A4F28419497F9722A3DAAFE3B4186F6B6457E0 PUSH1 0x40 MLOAD PUSH1 0x40 MLOAD DUP1 SWAP2 SUB SWAP1 LOG3 POP POP JUMP JUMPDEST DUP2 PUSH20 0xFFFFFFFFFFFFFFFFFFFFFFFFFFFFFFFFFFFFFFFF AND DUP4 PUSH20 0xFFFFFFFFFFFFFFFFFFFFFFFFFFFFFFFFFFFFFFFF AND SUB PUSH2 0x2A40 JUMPI PUSH1 0x40 MLOAD PUSH32 0x8C379A000000000000000000000000000000000000000000000000000000000 DUP2 MSTORE PUSH1 0x4 ADD PUSH2 0x2A37 SWAP1 PUSH2 0x487A JUMP JUMPDEST PUSH1 0x40 MLOAD DUP1 SWAP2 SUB SWAP1 REVERT JUMPDEST DUP1 PUSH1 0x5 PUSH1 0x0 DUP6 PUSH20 0xFFFFFFFFFFFFFFFFFFFFFFFFFFFFFFFFFFFFFFFF AND PUSH20 0xFFFFFFFFFFFFFFFFFFFFFFFFFFFFFFFFFFFFFFFF AND DUP2 MSTORE PUSH1 0x20 ADD SWAP1 DUP2 MSTORE PUSH1 0x20 ADD PUSH1 0x0 KECCAK256 PUSH1 0x0 DUP5 PUSH20 0xFFFFFFFFFFFFFFFFFFFFFFFFFFFFFFFFFFFFFFFF AND PUSH20 0xFFFFFFFFFFFFFFFFFFFFFFFFFFFFFFFFFFFFFFFF AND DUP2 MSTORE PUSH1 0x20 ADD SWAP1 DUP2 MSTORE PUSH1 0x20 ADD PUSH1 0x0 KECCAK256 PUSH1 0x0 PUSH2 0x100 EXP DUP2 SLOAD DUP2 PUSH1 0xFF MUL NOT AND SWAP1 DUP4 ISZERO ISZERO MUL OR SWAP1 SSTORE POP DUP2 PUSH20 0xFFFFFFFFFFFFFFFFFFFFFFFFFFFFFFFFFFFFFFFF AND DUP4 PUSH20 0xFFFFFFFFFFFFFFFFFFFFFFFFFFFFFFFFFFFFFFFF AND PUSH32 0x17307EAB39AB6107E8899845AD3D59BD9653F200F220920489CA2B5937696C31 DUP4 PUSH1 0x40 MLOAD PUSH2 0x2B31 SWAP2 SWAP1 PUSH2 0x33D2 JUMP JUMPDEST PUSH1 0x40 MLOAD DUP1 SWAP2 SUB SWAP1 LOG3 POP POP POP JUMP JUMPDEST PUSH2 0x2B49 DUP5 DUP5 DUP5 PUSH2 0x2539 JUMP JUMPDEST PUSH2 0x2B55 DUP5 DUP5 DUP5 DUP5 PUSH2 0x2CEF JUMP JUMPDEST PUSH2 0x2B94 JUMPI PUSH1 0x40 MLOAD PUSH32 0x8C379A000000000000000000000000000000000000000000000000000000000 DUP2 MSTORE PUSH1 0x4 ADD PUSH2 0x2B8B SWAP1 PUSH2 0x490C JUMP JUMPDEST PUSH1 0x40 MLOAD DUP1 SWAP2 SUB SWAP1 REVERT JUMPDEST POP POP POP POP JUMP JUMPDEST PUSH1 0x0 PUSH32 0x80AC58CD00000000000000000000000000000000000000000000000000000000 PUSH28 0xFFFFFFFFFFFFFFFFFFFFFFFFFFFFFFFFFFFFFFFFFFFFFFFFFFFFFFFF NOT AND DUP3 PUSH28 0xFFFFFFFFFFFFFFFFFFFFFFFFFFFFFFFFFFFFFFFFFFFFFFFFFFFFFFFF NOT AND EQ DUP1 PUSH2 0x2C65 JUMPI POP PUSH32 0x5B5E139F00000000000000000000000000000000000000000000000000000000 PUSH28 0xFFFFFFFFFFFFFFFFFFFFFFFFFFFFFFFFFFFFFFFFFFFFFFFFFFFFFFFF NOT AND DUP3 PUSH28 0xFFFFFFFFFFFFFFFFFFFFFFFFFFFFFFFFFFFFFFFFFFFFFFFFFFFFFFFF NOT AND EQ JUMPDEST DUP1 PUSH2 0x2C75 JUMPI POP PUSH2 0x2C74 DUP3 PUSH2 0x2E76 JUMP JUMPDEST JUMPDEST SWAP1 POP SWAP2 SWAP1 POP JUMP JUMPDEST PUSH2 0x2C86 DUP4 DUP4 PUSH2 0x2EE0 JUMP JUMPDEST PUSH2 0x2C93 PUSH1 0x0 DUP5 DUP5 DUP5 PUSH2 0x2CEF JUMP JUMPDEST PUSH2 0x2CD2 JUMPI PUSH1 0x40 MLOAD PUSH32 0x8C379A000000000000000000000000000000000000000000000000000000000 DUP2 MSTORE PUSH1 0x4 ADD PUSH2 0x2CC9 SWAP1 PUSH2 0x490C JUMP JUMPDEST PUSH1 0x40 MLOAD DUP1 SWAP2 SUB SWAP1 REVERT JUMPDEST POP POP POP JUMP JUMPDEST POP POP POP POP JUMP JUMPDEST POP POP POP POP JUMP JUMPDEST PUSH2 0x2CEC DUP2 PUSH2 0x30FD JUMP JUMPDEST POP JUMP JUMPDEST PUSH1 0x0 PUSH2 0x2D10 DUP5 PUSH20 0xFFFFFFFFFFFFFFFFFFFFFFFFFFFFFFFFFFFFFFFF AND PUSH2 0x3150 JUMP JUMPDEST ISZERO PUSH2 0x2E69 JUMPI DUP4 PUSH20 0xFFFFFFFFFFFFFFFFFFFFFFFFFFFFFFFFFFFFFFFF AND PUSH4 0x150B7A02 PUSH2 0x2D39 PUSH2 0x224A JUMP JUMPDEST DUP8 DUP7 DUP7 PUSH1 0x40 MLOAD DUP6 PUSH4 0xFFFFFFFF AND PUSH1 0xE0 SHL DUP2 MSTORE PUSH1 0x4 ADD PUSH2 0x2D5B SWAP5 SWAP4 SWAP3 SWAP2 SWAP1 PUSH2 0x4981 JUMP JUMPDEST PUSH1 0x20 PUSH1 0x40 MLOAD DUP1 DUP4 SUB DUP2 PUSH1 0x0 DUP8 GAS CALL SWAP3 POP POP POP DUP1 ISZERO PUSH2 0x2D97 JUMPI POP PUSH1 0x40 MLOAD RETURNDATASIZE PUSH1 0x1F NOT PUSH1 0x1F DUP3 ADD AND DUP3 ADD DUP1 PUSH1 0x40 MSTORE POP DUP2 ADD SWAP1 PUSH2 0x2D94 SWAP2 SWAP1 PUSH2 0x49E2 JUMP JUMPDEST PUSH1 0x1 JUMPDEST PUSH2 0x2E19 JUMPI RETURNDATASIZE DUP1 PUSH1 0x0 DUP2 EQ PUSH2 0x2DC7 JUMPI PUSH1 0x40 MLOAD SWAP2 POP PUSH1 0x1F NOT PUSH1 0x3F RETURNDATASIZE ADD AND DUP3 ADD PUSH1 0x40 MSTORE RETURNDATASIZE DUP3 MSTORE RETURNDATASIZE PUSH1 0x0 PUSH1 0x20 DUP5 ADD RETURNDATACOPY PUSH2 0x2DCC JUMP JUMPDEST PUSH1 0x60 SWAP2 POP JUMPDEST POP PUSH1 0x0 DUP2 MLOAD SUB PUSH2 0x2E11 JUMPI PUSH1 0x40 MLOAD PUSH32 0x8C379A000000000000000000000000000000000000000000000000000000000 DUP2 MSTORE PUSH1 0x4 ADD PUSH2 0x2E08 SWAP1 PUSH2 0x490C JUMP JUMPDEST PUSH1 0x40 MLOAD DUP1 SWAP2 SUB SWAP1 REVERT JUMPDEST DUP1 MLOAD DUP2 PUSH1 0x20 ADD REVERT JUMPDEST PUSH4 0x150B7A02 PUSH1 0xE0 SHL PUSH28 0xFFFFFFFFFFFFFFFFFFFFFFFFFFFFFFFFFFFFFFFFFFFFFFFFFFFFFFFF NOT AND DUP2 PUSH28 0xFFFFFFFFFFFFFFFFFFFFFFFFFFFFFFFFFFFFFFFFFFFFFFFFFFFFFFFF NOT AND EQ SWAP2 POP POP PUSH2 0x2E6E JUMP JUMPDEST PUSH1 0x1 SWAP1 POP JUMPDEST SWAP5 SWAP4 POP POP POP POP JUMP JUMPDEST PUSH1 0x0 PUSH32 0x1FFC9A700000000000000000000000000000000000000000000000000000000 PUSH28 0xFFFFFFFFFFFFFFFFFFFFFFFFFFFFFFFFFFFFFFFFFFFFFFFFFFFFFFFF NOT AND DUP3 PUSH28 0xFFFFFFFFFFFFFFFFFFFFFFFFFFFFFFFFFFFFFFFFFFFFFFFFFFFFFFFF NOT AND EQ SWAP1 POP SWAP2 SWAP1 POP JUMP JUMPDEST PUSH1 0x0 PUSH20 0xFFFFFFFFFFFFFFFFFFFFFFFFFFFFFFFFFFFFFFFF AND DUP3 PUSH20 0xFFFFFFFFFFFFFFFFFFFFFFFFFFFFFFFFFFFFFFFF AND SUB PUSH2 0x2F4F JUMPI PUSH1 0x40 MLOAD PUSH32 0x8C379A000000000000000000000000000000000000000000000000000000000 DUP2 MSTORE PUSH1 0x4 ADD PUSH2 0x2F46 SWAP1 PUSH2 0x4A5B JUMP JUMPDEST PUSH1 0x40 MLOAD DUP1 SWAP2 SUB SWAP1 REVERT JUMPDEST PUSH2 0x2F58 DUP2 PUSH2 0x2832 JUMP JUMPDEST ISZERO PUSH2 0x2F98 JUMPI PUSH1 0x40 MLOAD PUSH32 0x8C379A000000000000000000000000000000000000000000000000000000000 DUP2 MSTORE PUSH1 0x4 ADD PUSH2 0x2F8F SWAP1 PUSH2 0x4AC7 JUMP JUMPDEST PUSH1 0x40 MLOAD DUP1 SWAP2 SUB SWAP1 REVERT JUMPDEST PUSH2 0x2FA6 PUSH1 0x0 DUP4 DUP4 PUSH1 0x1 PUSH2 0x2CD7 JUMP JUMPDEST PUSH2 0x2FAF DUP2 PUSH2 0x2832 JUMP JUMPDEST ISZERO PUSH2 0x2FEF JUMPI PUSH1 0x40 MLOAD PUSH32 0x8C379A000000000000000000000000000000000000000000000000000000000 DUP2 MSTORE PUSH1 0x4 ADD PUSH2 0x2FE6 SWAP1 PUSH2 0x4AC7 JUMP JUMPDEST PUSH1 0x40 MLOAD DUP1 SWAP2 SUB SWAP1 REVERT JUMPDEST PUSH1 0x1 PUSH1 0x3 PUSH1 0x0 DUP5 PUSH20 0xFFFFFFFFFFFFFFFFFFFFFFFFFFFFFFFFFFFFFFFF AND PUSH20 0xFFFFFFFFFFFFFFFFFFFFFFFFFFFFFFFFFFFFFFFF AND DUP2 MSTORE PUSH1 0x20 ADD SWAP1 DUP2 MSTORE PUSH1 0x20 ADD PUSH1 0x0 KECCAK256 PUSH1 0x0 DUP3 DUP3 SLOAD ADD SWAP3 POP POP DUP2 SWAP1 SSTORE POP DUP2 PUSH1 0x2 PUSH1 0x0 DUP4 DUP2 MSTORE PUSH1 0x20 ADD SWAP1 DUP2 MSTORE PUSH1 0x20 ADD PUSH1 0x0 KECCAK256 PUSH1 0x0 PUSH2 0x100 EXP DUP2 SLOAD DUP2 PUSH20 0xFFFFFFFFFFFFFFFFFFFFFFFFFFFFFFFFFFFFFFFF MUL NOT AND SWAP1 DUP4 PUSH20 0xFFFFFFFFFFFFFFFFFFFFFFFFFFFFFFFFFFFFFFFF AND MUL OR SWAP1 SSTORE POP DUP1 DUP3 PUSH20 0xFFFFFFFFFFFFFFFFFFFFFFFFFFFFFFFFFFFFFFFF AND PUSH1 0x0 PUSH20 0xFFFFFFFFFFFFFFFFFFFFFFFFFFFFFFFFFFFFFFFF AND PUSH32 0xDDF252AD1BE2C89B69C2B068FC378DAA952BA7F163C4A11628F55A4DF523B3EF PUSH1 0x40 MLOAD PUSH1 0x40 MLOAD DUP1 SWAP2 SUB SWAP1 LOG4 PUSH2 0x30F9 PUSH1 0x0 DUP4 DUP4 PUSH1 0x1 PUSH2 0x2CDD JUMP JUMPDEST POP POP JUMP JUMPDEST PUSH2 0x3106 DUP2 PUSH2 0x3173 JUMP JUMPDEST PUSH1 0x0 PUSH1 0x6 PUSH1 0x0 DUP4 DUP2 MSTORE PUSH1 0x20 ADD SWAP1 DUP2 MSTORE PUSH1 0x20 ADD PUSH1 0x0 KECCAK256 DUP1 SLOAD PUSH2 0x3126 SWAP1 PUSH2 0x3BEC JUMP JUMPDEST SWAP1 POP EQ PUSH2 0x314D JUMPI PUSH1 0x6 PUSH1 0x0 DUP3 DUP2 MSTORE PUSH1 0x20 ADD SWAP1 DUP2 MSTORE PUSH1 0x20 ADD PUSH1 0x0 KECCAK256 PUSH1 0x0 PUSH2 0x314C SWAP2 SWAP1 PUSH2 0x32C1 JUMP JUMPDEST JUMPDEST POP JUMP JUMPDEST PUSH1 0x0 DUP1 DUP3 PUSH20 0xFFFFFFFFFFFFFFFFFFFFFFFFFFFFFFFFFFFFFFFF AND EXTCODESIZE GT SWAP1 POP SWAP2 SWAP1 POP JUMP JUMPDEST PUSH1 0x0 PUSH2 0x317E DUP3 PUSH2 0xEF9 JUMP JUMPDEST SWAP1 POP PUSH2 0x318E DUP2 PUSH1 0x0 DUP5 PUSH1 0x1 PUSH2 0x2CD7 JUMP JUMPDEST PUSH2 0x3197 DUP3 PUSH2 0xEF9 JUMP JUMPDEST SWAP1 POP PUSH1 0x4 PUSH1 0x0 DUP4 DUP2 MSTORE PUSH1 0x20 ADD SWAP1 DUP2 MSTORE PUSH1 0x20 ADD PUSH1 0x0 KECCAK256 PUSH1 0x0 PUSH2 0x100 EXP DUP2 SLOAD SWAP1 PUSH20 0xFFFFFFFFFFFFFFFFFFFFFFFFFFFFFFFFFFFFFFFF MUL NOT AND SWAP1 SSTORE PUSH1 0x1 PUSH1 0x3 PUSH1 0x0 DUP4 PUSH20 0xFFFFFFFFFFFFFFFFFFFFFFFFFFFFFFFFFFFFFFFF AND PUSH20 0xFFFFFFFFFFFFFFFFFFFFFFFFFFFFFFFFFFFFFFFF AND DUP2 MSTORE PUSH1 0x20 ADD SWAP1 DUP2 MSTORE PUSH1 0x20 ADD PUSH1 0x0 KECCAK256 PUSH1 0x0 DUP3 DUP3 SLOAD SUB SWAP3 POP POP DUP2 SWAP1 SSTORE POP PUSH1 0x2 PUSH1 0x0 DUP4 DUP2 MSTORE PUSH1 0x20 ADD SWAP1 DUP2 MSTORE PUSH1 0x20 ADD PUSH1 0x0 KECCAK256 PUSH1 0x0 PUSH2 0x100 EXP DUP2 SLOAD SWAP1 PUSH20 0xFFFFFFFFFFFFFFFFFFFFFFFFFFFFFFFFFFFFFFFF MUL NOT AND SWAP1 SSTORE DUP2 PUSH1 0x0 PUSH20 0xFFFFFFFFFFFFFFFFFFFFFFFFFFFFFFFFFFFFFFFF AND DUP3 PUSH20 0xFFFFFFFFFFFFFFFFFFFFFFFFFFFFFFFFFFFFFFFF AND PUSH32 0xDDF252AD1BE2C89B69C2B068FC378DAA952BA7F163C4A11628F55A4DF523B3EF PUSH1 0x40 MLOAD PUSH1 0x40 MLOAD DUP1 SWAP2 SUB SWAP1 LOG4 PUSH2 0x32BD DUP2 PUSH1 0x0 DUP5 PUSH1 0x1 PUSH2 0x2CDD JUMP JUMPDEST POP POP JUMP JUMPDEST POP DUP1 SLOAD PUSH2 0x32CD SWAP1 PUSH2 0x3BEC JUMP JUMPDEST PUSH1 0x0 DUP3 SSTORE DUP1 PUSH1 0x1F LT PUSH2 0x32DF JUMPI POP PUSH2 0x32FE JUMP JUMPDEST PUSH1 0x1F ADD PUSH1 0x20 SWAP1 DIV SWAP1 PUSH1 0x0 MSTORE PUSH1 0x20 PUSH1 0x0 KECCAK256 SWAP1 DUP2 ADD SWAP1 PUSH2 0x32FD SWAP2 SWAP1 PUSH2 0x3301 JUMP JUMPDEST JUMPDEST POP JUMP JUMPDEST JUMPDEST DUP1 DUP3 GT ISZERO PUSH2 0x331A JUMPI PUSH1 0x0 DUP2 PUSH1 0x0 SWAP1 SSTORE POP PUSH1 0x1 ADD PUSH2 0x3302 JUMP JUMPDEST POP SWAP1 JUMP JUMPDEST PUSH1 0x0 PUSH1 0x40 MLOAD SWAP1 POP SWAP1 JUMP JUMPDEST PUSH1 0x0 DUP1 REVERT JUMPDEST PUSH1 0x0 DUP1 REVERT JUMPDEST PUSH1 0x0 PUSH32 0xFFFFFFFF00000000000000000000000000000000000000000000000000000000 DUP3 AND SWAP1 POP SWAP2 SWAP1 POP JUMP JUMPDEST PUSH2 0x3367 DUP2 PUSH2 0x3332 JUMP JUMPDEST DUP2 EQ PUSH2 0x3372 JUMPI PUSH1 0x0 DUP1 REVERT JUMPDEST POP JUMP JUMPDEST PUSH1 0x0 DUP2 CALLDATALOAD SWAP1 POP PUSH2 0x3384 DUP2 PUSH2 0x335E JUMP JUMPDEST SWAP3 SWAP2 POP POP JUMP JUMPDEST PUSH1 0x0 PUSH1 0x20 DUP3 DUP5 SUB SLT ISZERO PUSH2 0x33A0 JUMPI PUSH2 0x339F PUSH2 0x3328 JUMP JUMPDEST JUMPDEST PUSH1 0x0 PUSH2 0x33AE DUP5 DUP3 DUP6 ADD PUSH2 0x3375 JUMP JUMPDEST SWAP2 POP POP SWAP3 SWAP2 POP POP JUMP JUMPDEST PUSH1 0x0 DUP2 ISZERO ISZERO SWAP1 POP SWAP2 SWAP1 POP JUMP JUMPDEST PUSH2 0x33CC DUP2 PUSH2 0x33B7 JUMP JUMPDEST DUP3 MSTORE POP POP JUMP JUMPDEST PUSH1 0x0 PUSH1 0x20 DUP3 ADD SWAP1 POP PUSH2 0x33E7 PUSH1 0x0 DUP4 ADD DUP5 PUSH2 0x33C3 JUMP JUMPDEST SWAP3 SWAP2 POP POP JUMP JUMPDEST PUSH1 0x0 DUP2 MLOAD SWAP1 POP SWAP2 SWAP1 POP JUMP JUMPDEST PUSH1 0x0 DUP3 DUP3 MSTORE PUSH1 0x20 DUP3 ADD SWAP1 POP SWAP3 SWAP2 POP POP JUMP JUMPDEST PUSH1 0x0 JUMPDEST DUP4 DUP2 LT ISZERO PUSH2 0x3427 JUMPI DUP1 DUP3 ADD MLOAD DUP2 DUP5 ADD MSTORE PUSH1 0x20 DUP2 ADD SWAP1 POP PUSH2 0x340C JUMP JUMPDEST PUSH1 0x0 DUP5 DUP5 ADD MSTORE POP POP POP POP JUMP JUMPDEST PUSH1 0x0 PUSH1 0x1F NOT PUSH1 0x1F DUP4 ADD AND SWAP1 POP SWAP2 SWAP1 POP JUMP JUMPDEST PUSH1 0x0 PUSH2 0x344F DUP3 PUSH2 0x33ED JUMP JUMPDEST PUSH2 0x3459 DUP2 DUP6 PUSH2 0x33F8 JUMP JUMPDEST SWAP4 POP PUSH2 0x3469 DUP2 DUP6 PUSH1 0x20 DUP7 ADD PUSH2 0x3409 JUMP JUMPDEST PUSH2 0x3472 DUP2 PUSH2 0x3433 JUMP JUMPDEST DUP5 ADD SWAP2 POP POP SWAP3 SWAP2 POP POP JUMP JUMPDEST PUSH1 0x0 PUSH1 0x20 DUP3 ADD SWAP1 POP DUP2 DUP2 SUB PUSH1 0x0 DUP4 ADD MSTORE PUSH2 0x3497 DUP2 DUP5 PUSH2 0x3444 JUMP JUMPDEST SWAP1 POP SWAP3 SWAP2 POP POP JUMP JUMPDEST PUSH1 0x0 DUP2 SWAP1 POP SWAP2 SWAP1 POP JUMP JUMPDEST PUSH2 0x34B2 DUP2 PUSH2 0x349F JUMP JUMPDEST DUP2 EQ PUSH2 0x34BD JUMPI PUSH1 0x0 DUP1 REVERT JUMPDEST POP JUMP JUMPDEST PUSH1 0x0 DUP2 CALLDATALOAD SWAP1 POP PUSH2 0x34CF DUP2 PUSH2 0x34A9 JUMP JUMPDEST SWAP3 SWAP2 POP POP JUMP JUMPDEST PUSH1 0x0 PUSH1 0x20 DUP3 DUP5 SUB SLT ISZERO PUSH2 0x34EB JUMPI PUSH2 0x34EA PUSH2 0x3328 JUMP JUMPDEST JUMPDEST PUSH1 0x0 PUSH2 0x34F9 DUP5 DUP3 DUP6 ADD PUSH2 0x34C0 JUMP JUMPDEST SWAP2 POP POP SWAP3 SWAP2 POP POP JUMP JUMPDEST PUSH1 0x0 PUSH20 0xFFFFFFFFFFFFFFFFFFFFFFFFFFFFFFFFFFFFFFFF DUP3 AND SWAP1 POP SWAP2 SWAP1 POP JUMP JUMPDEST PUSH1 0x0 PUSH2 0x352D DUP3 PUSH2 0x3502 JUMP JUMPDEST SWAP1 POP SWAP2 SWAP1 POP JUMP JUMPDEST PUSH2 0x353D DUP2 PUSH2 0x3522 JUMP JUMPDEST DUP3 MSTORE POP POP JUMP JUMPDEST PUSH1 0x0 PUSH1 0x20 DUP3 ADD SWAP1 POP PUSH2 0x3558 PUSH1 0x0 DUP4 ADD DUP5 PUSH2 0x3534 JUMP JUMPDEST SWAP3 SWAP2 POP POP JUMP JUMPDEST PUSH2 0x3567 DUP2 PUSH2 0x3522 JUMP JUMPDEST DUP2 EQ PUSH2 0x3572 JUMPI PUSH1 0x0 DUP1 REVERT JUMPDEST POP JUMP JUMPDEST PUSH1 0x0 DUP2 CALLDATALOAD SWAP1 POP PUSH2 0x3584 DUP2 PUSH2 0x355E JUMP JUMPDEST SWAP3 SWAP2 POP POP JUMP JUMPDEST PUSH1 0x0 DUP1 PUSH1 0x40 DUP4 DUP6 SUB SLT ISZERO PUSH2 0x35A1 JUMPI PUSH2 0x35A0 PUSH2 0x3328 JUMP JUMPDEST JUMPDEST PUSH1 0x0 PUSH2 0x35AF DUP6 DUP3 DUP7 ADD PUSH2 0x3575 JUMP JUMPDEST SWAP3 POP POP PUSH1 0x20 PUSH2 0x35C0 DUP6 DUP3 DUP7 ADD PUSH2 0x34C0 JUMP JUMPDEST SWAP2 POP POP SWAP3 POP SWAP3 SWAP1 POP JUMP JUMPDEST PUSH1 0x0 PUSH1 0x20 DUP3 DUP5 SUB SLT ISZERO PUSH2 0x35E0 JUMPI PUSH2 0x35DF PUSH2 0x3328 JUMP JUMPDEST JUMPDEST PUSH1 0x0 PUSH2 0x35EE DUP5 DUP3 DUP6 ADD PUSH2 0x3575 JUMP JUMPDEST SWAP2 POP POP SWAP3 SWAP2 POP POP JUMP JUMPDEST PUSH2 0x3600 DUP2 PUSH2 0x349F JUMP JUMPDEST DUP3 MSTORE POP POP JUMP JUMPDEST PUSH1 0x0 PUSH1 0x20 DUP3 ADD SWAP1 POP PUSH2 0x361B PUSH1 0x0 DUP4 ADD DUP5 PUSH2 0x35F7 JUMP JUMPDEST SWAP3 SWAP2 POP POP JUMP JUMPDEST PUSH1 0x0 DUP1 REVERT JUMPDEST PUSH1 0x0 DUP1 REVERT JUMPDEST PUSH32 0x4E487B7100000000000000000000000000000000000000000000000000000000 PUSH1 0x0 MSTORE PUSH1 0x41 PUSH1 0x4 MSTORE PUSH1 0x24 PUSH1 0x0 REVERT JUMPDEST PUSH2 0x3663 DUP3 PUSH2 0x3433 JUMP JUMPDEST DUP2 ADD DUP2 DUP2 LT PUSH8 0xFFFFFFFFFFFFFFFF DUP3 GT OR ISZERO PUSH2 0x3682 JUMPI PUSH2 0x3681 PUSH2 0x362B JUMP JUMPDEST JUMPDEST DUP1 PUSH1 0x40 MSTORE POP POP POP JUMP JUMPDEST PUSH1 0x0 PUSH2 0x3695 PUSH2 0x331E JUMP JUMPDEST SWAP1 POP PUSH2 0x36A1 DUP3 DUP3 PUSH2 0x365A JUMP JUMPDEST SWAP2 SWAP1 POP JUMP JUMPDEST PUSH1 0x0 PUSH8 0xFFFFFFFFFFFFFFFF DUP3 GT ISZERO PUSH2 0x36C1 JUMPI PUSH2 0x36C0 PUSH2 0x362B JUMP JUMPDEST JUMPDEST PUSH2 0x36CA DUP3 PUSH2 0x3433 JUMP JUMPDEST SWAP1 POP PUSH1 0x20 DUP2 ADD SWAP1 POP SWAP2 SWAP1 POP JUMP JUMPDEST DUP3 DUP2 DUP4 CALLDATACOPY PUSH1 0x0 DUP4 DUP4 ADD MSTORE POP POP POP JUMP JUMPDEST PUSH1 0x0 PUSH2 0x36F9 PUSH2 0x36F4 DUP5 PUSH2 0x36A6 JUMP JUMPDEST PUSH2 0x368B JUMP JUMPDEST SWAP1 POP DUP3 DUP2 MSTORE PUSH1 0x20 DUP2 ADD DUP5 DUP5 DUP5 ADD GT ISZERO PUSH2 0x3715 JUMPI PUSH2 0x3714 PUSH2 0x3626 JUMP JUMPDEST JUMPDEST PUSH2 0x3720 DUP5 DUP3 DUP6 PUSH2 0x36D7 JUMP JUMPDEST POP SWAP4 SWAP3 POP POP POP JUMP JUMPDEST PUSH1 0x0 DUP3 PUSH1 0x1F DUP4 ADD SLT PUSH2 0x373D JUMPI PUSH2 0x373C PUSH2 0x3621 JUMP JUMPDEST JUMPDEST DUP2 CALLDATALOAD PUSH2 0x374D DUP5 DUP3 PUSH1 0x20 DUP7 ADD PUSH2 0x36E6 JUMP JUMPDEST SWAP2 POP POP SWAP3 SWAP2 POP POP JUMP JUMPDEST PUSH1 0x0 DUP1 PUSH1 0x40 DUP4 DUP6 SUB SLT ISZERO PUSH2 0x376D JUMPI PUSH2 0x376C PUSH2 0x3328 JUMP JUMPDEST JUMPDEST PUSH1 0x0 PUSH2 0x377B DUP6 DUP3 DUP7 ADD PUSH2 0x34C0 JUMP JUMPDEST SWAP3 POP POP PUSH1 0x20 DUP4 ADD CALLDATALOAD PUSH8 0xFFFFFFFFFFFFFFFF DUP2 GT ISZERO PUSH2 0x379C JUMPI PUSH2 0x379B PUSH2 0x332D JUMP JUMPDEST JUMPDEST PUSH2 0x37A8 DUP6 DUP3 DUP7 ADD PUSH2 0x3728 JUMP JUMPDEST SWAP2 POP POP SWAP3 POP SWAP3 SWAP1 POP JUMP JUMPDEST PUSH1 0x0 DUP1 PUSH1 0x0 PUSH1 0x60 DUP5 DUP7 SUB SLT ISZERO PUSH2 0x37CB JUMPI PUSH2 0x37CA PUSH2 0x3328 JUMP JUMPDEST JUMPDEST PUSH1 0x0 PUSH2 0x37D9 DUP7 DUP3 DUP8 ADD PUSH2 0x3575 JUMP JUMPDEST SWAP4 POP POP PUSH1 0x20 PUSH2 0x37EA DUP7 DUP3 DUP8 ADD PUSH2 0x3575 JUMP JUMPDEST SWAP3 POP POP PUSH1 0x40 PUSH2 0x37FB DUP7 DUP3 DUP8 ADD PUSH2 0x34C0 JUMP JUMPDEST SWAP2 POP POP SWAP3 POP SWAP3 POP SWAP3 JUMP JUMPDEST PUSH1 0x0 DUP1 PUSH1 0x40 DUP4 DUP6 SUB SLT ISZERO PUSH2 0x381C JUMPI PUSH2 0x381B PUSH2 0x3328 JUMP JUMPDEST JUMPDEST PUSH1 0x0 PUSH2 0x382A DUP6 DUP3 DUP7 ADD PUSH2 0x34C0 JUMP JUMPDEST SWAP3 POP POP PUSH1 0x20 PUSH2 0x383B DUP6 DUP3 DUP7 ADD PUSH2 0x34C0 JUMP JUMPDEST SWAP2 POP POP SWAP3 POP SWAP3 SWAP1 POP JUMP JUMPDEST PUSH2 0x384E DUP2 PUSH2 0x33B7 JUMP JUMPDEST DUP2 EQ PUSH2 0x3859 JUMPI PUSH1 0x0 DUP1 REVERT JUMPDEST POP JUMP JUMPDEST PUSH1 0x0 DUP2 CALLDATALOAD SWAP1 POP PUSH2 0x386B DUP2 PUSH2 0x3845 JUMP JUMPDEST SWAP3 SWAP2 POP POP JUMP JUMPDEST PUSH1 0x0 DUP1 PUSH1 0x40 DUP4 DUP6 SUB SLT ISZERO PUSH2 0x3888 JUMPI PUSH2 0x3887 PUSH2 0x3328 JUMP JUMPDEST JUMPDEST PUSH1 0x0 PUSH2 0x3896 DUP6 DUP3 DUP7 ADD PUSH2 0x3575 JUMP JUMPDEST SWAP3 POP POP PUSH1 0x20 PUSH2 0x38A7 DUP6 DUP3 DUP7 ADD PUSH2 0x385C JUMP JUMPDEST SWAP2 POP POP SWAP3 POP SWAP3 SWAP1 POP JUMP JUMPDEST PUSH32 0x4E487B7100000000000000000000000000000000000000000000000000000000 PUSH1 0x0 MSTORE PUSH1 0x21 PUSH1 0x4 MSTORE PUSH1 0x24 PUSH1 0x0 REVERT JUMPDEST PUSH1 0x3 DUP2 LT PUSH2 0x38F1 JUMPI PUSH2 0x38F0 PUSH2 0x38B1 JUMP JUMPDEST JUMPDEST POP JUMP JUMPDEST PUSH1 0x0 DUP2 SWAP1 POP PUSH2 0x3902 DUP3 PUSH2 0x38E0 JUMP JUMPDEST SWAP2 SWAP1 POP JUMP JUMPDEST PUSH1 0x0 PUSH2 0x3912 DUP3 PUSH2 0x38F4 JUMP JUMPDEST SWAP1 POP SWAP2 SWAP1 POP JUMP JUMPDEST PUSH2 0x3922 DUP2 PUSH2 0x3907 JUMP JUMPDEST DUP3 MSTORE POP POP JUMP JUMPDEST PUSH1 0x0 PUSH1 0xC0 DUP3 ADD SWAP1 POP DUP2 DUP2 SUB PUSH1 0x0 DUP4 ADD MSTORE PUSH2 0x3942 DUP2 DUP10 PUSH2 0x3444 JUMP JUMPDEST SWAP1 POP DUP2 DUP2 SUB PUSH1 0x20 DUP4 ADD MSTORE PUSH2 0x3956 DUP2 DUP9 PUSH2 0x3444 JUMP JUMPDEST SWAP1 POP PUSH2 0x3965 PUSH1 0x40 DUP4 ADD DUP8 PUSH2 0x35F7 JUMP JUMPDEST DUP2 DUP2 SUB PUSH1 0x60 DUP4 ADD MSTORE PUSH2 0x3977 DUP2 DUP7 PUSH2 0x3444 JUMP JUMPDEST SWAP1 POP PUSH2 0x3986 PUSH1 0x80 DUP4 ADD DUP6 PUSH2 0x3534 JUMP JUMPDEST PUSH2 0x3993 PUSH1 0xA0 DUP4 ADD DUP5 PUSH2 0x3919 JUMP JUMPDEST SWAP8 SWAP7 POP POP POP POP POP POP POP JUMP JUMPDEST PUSH1 0x0 PUSH8 0xFFFFFFFFFFFFFFFF DUP3 GT ISZERO PUSH2 0x39B9 JUMPI PUSH2 0x39B8 PUSH2 0x362B JUMP JUMPDEST JUMPDEST PUSH2 0x39C2 DUP3 PUSH2 0x3433 JUMP JUMPDEST SWAP1 POP PUSH1 0x20 DUP2 ADD SWAP1 POP SWAP2 SWAP1 POP JUMP JUMPDEST PUSH1 0x0 PUSH2 0x39E2 PUSH2 0x39DD DUP5 PUSH2 0x399E JUMP JUMPDEST PUSH2 0x368B JUMP JUMPDEST SWAP1 POP DUP3 DUP2 MSTORE PUSH1 0x20 DUP2 ADD DUP5 DUP5 DUP5 ADD GT ISZERO PUSH2 0x39FE JUMPI PUSH2 0x39FD PUSH2 0x3626 JUMP JUMPDEST JUMPDEST PUSH2 0x3A09 DUP5 DUP3 DUP6 PUSH2 0x36D7 JUMP JUMPDEST POP SWAP4 SWAP3 POP POP POP JUMP JUMPDEST PUSH1 0x0 DUP3 PUSH1 0x1F DUP4 ADD SLT PUSH2 0x3A26 JUMPI PUSH2 0x3A25 PUSH2 0x3621 JUMP JUMPDEST JUMPDEST DUP2 CALLDATALOAD PUSH2 0x3A36 DUP5 DUP3 PUSH1 0x20 DUP7 ADD PUSH2 0x39CF JUMP JUMPDEST SWAP2 POP POP SWAP3 SWAP2 POP POP JUMP JUMPDEST PUSH1 0x0 DUP1 PUSH1 0x0 DUP1 PUSH1 0x80 DUP6 DUP8 SUB SLT ISZERO PUSH2 0x3A59 JUMPI PUSH2 0x3A58 PUSH2 0x3328 JUMP JUMPDEST JUMPDEST PUSH1 0x0 PUSH2 0x3A67 DUP8 DUP3 DUP9 ADD PUSH2 0x3575 JUMP JUMPDEST SWAP5 POP POP PUSH1 0x20 PUSH2 0x3A78 DUP8 DUP3 DUP9 ADD PUSH2 0x3575 JUMP JUMPDEST SWAP4 POP POP PUSH1 0x40 PUSH2 0x3A89 DUP8 DUP3 DUP9 ADD PUSH2 0x34C0 JUMP JUMPDEST SWAP3 POP POP PUSH1 0x60 DUP6 ADD CALLDATALOAD PUSH8 0xFFFFFFFFFFFFFFFF DUP2 GT ISZERO PUSH2 0x3AAA JUMPI PUSH2 0x3AA9 PUSH2 0x332D JUMP JUMPDEST JUMPDEST PUSH2 0x3AB6 DUP8 DUP3 DUP9 ADD PUSH2 0x3A11 JUMP JUMPDEST SWAP2 POP POP SWAP3 SWAP6 SWAP2 SWAP5 POP SWAP3 POP JUMP JUMPDEST PUSH1 0x0 DUP1 PUSH1 0x40 DUP4 DUP6 SUB SLT ISZERO PUSH2 0x3AD9 JUMPI PUSH2 0x3AD8 PUSH2 0x3328 JUMP JUMPDEST JUMPDEST PUSH1 0x0 PUSH2 0x3AE7 DUP6 DUP3 DUP7 ADD PUSH2 0x3575 JUMP JUMPDEST SWAP3 POP POP PUSH1 0x20 PUSH2 0x3AF8 DUP6 DUP3 DUP7 ADD PUSH2 0x3575 JUMP JUMPDEST SWAP2 POP POP SWAP3 POP SWAP3 SWAP1 POP JUMP JUMPDEST PUSH1 0x0 DUP1 PUSH1 0x0 DUP1 PUSH1 0x80 DUP6 DUP8 SUB SLT ISZERO PUSH2 0x3B1C JUMPI PUSH2 0x3B1B PUSH2 0x3328 JUMP JUMPDEST JUMPDEST PUSH1 0x0 PUSH2 0x3B2A DUP8 DUP3 DUP9 ADD PUSH2 0x34C0 JUMP JUMPDEST SWAP5 POP POP PUSH1 0x20 DUP6 ADD CALLDATALOAD PUSH8 0xFFFFFFFFFFFFFFFF DUP2 GT ISZERO PUSH2 0x3B4B JUMPI PUSH2 0x3B4A PUSH2 0x332D JUMP JUMPDEST JUMPDEST PUSH2 0x3B57 DUP8 DUP3 DUP9 ADD PUSH2 0x3728 JUMP JUMPDEST SWAP4 POP POP PUSH1 0x40 DUP6 ADD CALLDATALOAD PUSH8 0xFFFFFFFFFFFFFFFF DUP2 GT ISZERO PUSH2 0x3B78 JUMPI PUSH2 0x3B77 PUSH2 0x332D JUMP JUMPDEST JUMPDEST PUSH2 0x3B84 DUP8 DUP3 DUP9 ADD PUSH2 0x3728 JUMP JUMPDEST SWAP3 POP POP PUSH1 0x60 DUP6 ADD CALLDATALOAD PUSH8 0xFFFFFFFFFFFFFFFF DUP2 GT ISZERO PUSH2 0x3BA5 JUMPI PUSH2 0x3BA4 PUSH2 0x332D JUMP JUMPDEST JUMPDEST PUSH2 0x3BB1 DUP8 DUP3 DUP9 ADD PUSH2 0x3728 JUMP JUMPDEST SWAP2 POP POP SWAP3 SWAP6 SWAP2 SWAP5 POP SWAP3 POP JUMP JUMPDEST PUSH32 0x4E487B7100000000000000000000000000000000000000000000000000000000 PUSH1 0x0 MSTORE PUSH1 0x22 PUSH1 0x4 MSTORE PUSH1 0x24 PUSH1 0x0 REVERT JUMPDEST PUSH1 0x0 PUSH1 0x2 DUP3 DIV SWAP1 POP PUSH1 0x1 DUP3 AND DUP1 PUSH2 0x3C04 JUMPI PUSH1 0x7F DUP3 AND SWAP2 POP JUMPDEST PUSH1 0x20 DUP3 LT DUP2 SUB PUSH2 0x3C17 JUMPI PUSH2 0x3C16 PUSH2 0x3BBD JUMP JUMPDEST JUMPDEST POP SWAP2 SWAP1 POP JUMP JUMPDEST PUSH32 0x4552433732313A20617070726F76616C20746F2063757272656E74206F776E65 PUSH1 0x0 DUP3 ADD MSTORE PUSH32 0x7200000000000000000000000000000000000000000000000000000000000000 PUSH1 0x20 DUP3 ADD MSTORE POP JUMP JUMPDEST PUSH1 0x0 PUSH2 0x3C79 PUSH1 0x21 DUP4 PUSH2 0x33F8 JUMP JUMPDEST SWAP2 POP PUSH2 0x3C84 DUP3 PUSH2 0x3C1D JUMP JUMPDEST PUSH1 0x40 DUP3 ADD SWAP1 POP SWAP2 SWAP1 POP JUMP JUMPDEST PUSH1 0x0 PUSH1 0x20 DUP3 ADD SWAP1 POP DUP2 DUP2 SUB PUSH1 0x0 DUP4 ADD MSTORE PUSH2 0x3CA8 DUP2 PUSH2 0x3C6C JUMP JUMPDEST SWAP1 POP SWAP2 SWAP1 POP JUMP JUMPDEST PUSH32 0x4552433732313A20617070726F76652063616C6C6572206973206E6F7420746F PUSH1 0x0 DUP3 ADD MSTORE PUSH32 0x6B656E206F776E6572206F7220617070726F76656420666F7220616C6C000000 PUSH1 0x20 DUP3 ADD MSTORE POP JUMP JUMPDEST PUSH1 0x0 PUSH2 0x3D0B PUSH1 0x3D DUP4 PUSH2 0x33F8 JUMP JUMPDEST SWAP2 POP PUSH2 0x3D16 DUP3 PUSH2 0x3CAF JUMP JUMPDEST PUSH1 0x40 DUP3 ADD SWAP1 POP SWAP2 SWAP1 POP JUMP JUMPDEST PUSH1 0x0 PUSH1 0x20 DUP3 ADD SWAP1 POP DUP2 DUP2 SUB PUSH1 0x0 DUP4 ADD MSTORE PUSH2 0x3D3A DUP2 PUSH2 0x3CFE JUMP JUMPDEST SWAP1 POP SWAP2 SWAP1 POP JUMP JUMPDEST PUSH32 0x4E487B7100000000000000000000000000000000000000000000000000000000 PUSH1 0x0 MSTORE PUSH1 0x11 PUSH1 0x4 MSTORE PUSH1 0x24 PUSH1 0x0 REVERT JUMPDEST PUSH1 0x0 PUSH2 0x3D7B DUP3 PUSH2 0x349F JUMP JUMPDEST SWAP2 POP PUSH32 0xFFFFFFFFFFFFFFFFFFFFFFFFFFFFFFFFFFFFFFFFFFFFFFFFFFFFFFFFFFFFFFFF DUP3 SUB PUSH2 0x3DAD JUMPI PUSH2 0x3DAC PUSH2 0x3D41 JUMP JUMPDEST JUMPDEST PUSH1 0x1 DUP3 ADD SWAP1 POP SWAP2 SWAP1 POP JUMP JUMPDEST PUSH32 0x4552433732313A2063616C6C6572206973206E6F7420746F6B656E206F776E65 PUSH1 0x0 DUP3 ADD MSTORE PUSH32 0x72206F7220617070726F76656400000000000000000000000000000000000000 PUSH1 0x20 DUP3 ADD MSTORE POP JUMP JUMPDEST PUSH1 0x0 PUSH2 0x3E14 PUSH1 0x2D DUP4 PUSH2 0x33F8 JUMP JUMPDEST SWAP2 POP PUSH2 0x3E1F DUP3 PUSH2 0x3DB8 JUMP JUMPDEST PUSH1 0x40 DUP3 ADD SWAP1 POP SWAP2 SWAP1 POP JUMP JUMPDEST PUSH1 0x0 PUSH1 0x20 DUP3 ADD SWAP1 POP DUP2 DUP2 SUB PUSH1 0x0 DUP4 ADD MSTORE PUSH2 0x3E43 DUP2 PUSH2 0x3E07 JUMP JUMPDEST SWAP1 POP SWAP2 SWAP1 POP JUMP JUMPDEST PUSH32 0x546F6B656E20646F6573206E6F74206578697374000000000000000000000000 PUSH1 0x0 DUP3 ADD MSTORE POP JUMP JUMPDEST PUSH1 0x0 PUSH2 0x3E80 PUSH1 0x14 DUP4 PUSH2 0x33F8 JUMP JUMPDEST SWAP2 POP PUSH2 0x3E8B DUP3 PUSH2 0x3E4A JUMP JUMPDEST PUSH1 0x20 DUP3 ADD SWAP1 POP SWAP2 SWAP1 POP JUMP JUMPDEST PUSH1 0x0 PUSH1 0x20 DUP3 ADD SWAP1 POP DUP2 DUP2 SUB PUSH1 0x0 DUP4 ADD MSTORE PUSH2 0x3EAF DUP2 PUSH2 0x3E73 JUMP JUMPDEST SWAP1 POP SWAP2 SWAP1 POP JUMP JUMPDEST PUSH32 0x4552433732313A20696E76616C696420746F6B656E2049440000000000000000 PUSH1 0x0 DUP3 ADD MSTORE POP JUMP JUMPDEST PUSH1 0x0 PUSH2 0x3EEC PUSH1 0x18 DUP4 PUSH2 0x33F8 JUMP JUMPDEST SWAP2 POP PUSH2 0x3EF7 DUP3 PUSH2 0x3EB6 JUMP JUMPDEST PUSH1 0x20 DUP3 ADD SWAP1 POP SWAP2 SWAP1 POP JUMP JUMPDEST PUSH1 0x0 PUSH1 0x20 DUP3 ADD SWAP1 POP DUP2 DUP2 SUB PUSH1 0x0 DUP4 ADD MSTORE PUSH2 0x3F1B DUP2 PUSH2 0x3EDF JUMP JUMPDEST SWAP1 POP SWAP2 SWAP1 POP JUMP JUMPDEST PUSH32 0x4552433732313A2061646472657373207A65726F206973206E6F742061207661 PUSH1 0x0 DUP3 ADD MSTORE PUSH32 0x6C6964206F776E65720000000000000000000000000000000000000000000000 PUSH1 0x20 DUP3 ADD MSTORE POP JUMP JUMPDEST PUSH1 0x0 PUSH2 0x3F7E PUSH1 0x29 DUP4 PUSH2 0x33F8 JUMP JUMPDEST SWAP2 POP PUSH2 0x3F89 DUP3 PUSH2 0x3F22 JUMP JUMPDEST PUSH1 0x40 DUP3 ADD SWAP1 POP SWAP2 SWAP1 POP JUMP JUMPDEST PUSH1 0x0 PUSH1 0x20 DUP3 ADD SWAP1 POP DUP2 DUP2 SUB PUSH1 0x0 DUP4 ADD MSTORE PUSH2 0x3FAD DUP2 PUSH2 0x3F71 JUMP JUMPDEST SWAP1 POP SWAP2 SWAP1 POP JUMP JUMPDEST PUSH32 0x496E646578206F7574206F6620626F756E647300000000000000000000000000 PUSH1 0x0 DUP3 ADD MSTORE POP JUMP JUMPDEST PUSH1 0x0 PUSH2 0x3FEA PUSH1 0x13 DUP4 PUSH2 0x33F8 JUMP JUMPDEST SWAP2 POP PUSH2 0x3FF5 DUP3 PUSH2 0x3FB4 JUMP JUMPDEST PUSH1 0x20 DUP3 ADD SWAP1 POP SWAP2 SWAP1 POP JUMP JUMPDEST PUSH1 0x0 PUSH1 0x20 DUP3 ADD SWAP1 POP DUP2 DUP2 SUB PUSH1 0x0 DUP4 ADD MSTORE PUSH2 0x4019 DUP2 PUSH2 0x3FDD JUMP JUMPDEST SWAP1 POP SWAP2 SWAP1 POP JUMP JUMPDEST PUSH32 0x4E487B7100000000000000000000000000000000000000000000000000000000 PUSH1 0x0 MSTORE PUSH1 0x32 PUSH1 0x4 MSTORE PUSH1 0x24 PUSH1 0x0 REVERT JUMPDEST PUSH1 0x0 DUP2 SWAP1 POP SWAP3 SWAP2 POP POP JUMP JUMPDEST POP JUMP JUMPDEST PUSH1 0x0 PUSH2 0x406A PUSH1 0x0 DUP4 PUSH2 0x404F JUMP JUMPDEST SWAP2 POP PUSH2 0x4075 DUP3 PUSH2 0x405A JUMP JUMPDEST PUSH1 0x0 DUP3 ADD SWAP1 POP SWAP2 SWAP1 POP JUMP JUMPDEST PUSH1 0x0 PUSH2 0x408B DUP3 PUSH2 0x405D JUMP JUMPDEST SWAP2 POP DUP2 SWAP1 POP SWAP2 SWAP1 POP JUMP JUMPDEST PUSH32 0x455448207472616E73666572206661696C656400000000000000000000000000 PUSH1 0x0 DUP3 ADD MSTORE POP JUMP JUMPDEST PUSH1 0x0 PUSH2 0x40CB PUSH1 0x13 DUP4 PUSH2 0x33F8 JUMP JUMPDEST SWAP2 POP PUSH2 0x40D6 DUP3 PUSH2 0x4095 JUMP JUMPDEST PUSH1 0x20 DUP3 ADD SWAP1 POP SWAP2 SWAP1 POP JUMP JUMPDEST PUSH1 0x0 PUSH1 0x20 DUP3 ADD SWAP1 POP DUP2 DUP2 SUB PUSH1 0x0 DUP4 ADD MSTORE PUSH2 0x40FA DUP2 PUSH2 0x40BE JUMP JUMPDEST SWAP1 POP SWAP2 SWAP1 POP JUMP JUMPDEST PUSH1 0x0 PUSH2 0x410C DUP3 PUSH2 0x349F JUMP JUMPDEST SWAP2 POP PUSH2 0x4117 DUP4 PUSH2 0x349F JUMP JUMPDEST SWAP3 POP DUP3 DUP3 SUB SWAP1 POP DUP2 DUP2 GT ISZERO PUSH2 0x412F JUMPI PUSH2 0x412E PUSH2 0x3D41 JUMP JUMPDEST JUMPDEST SWAP3 SWAP2 POP POP JUMP JUMPDEST PUSH32 0x526566756E64206661696C656400000000000000000000000000000000000000 PUSH1 0x0 DUP3 ADD MSTORE POP JUMP JUMPDEST PUSH1 0x0 PUSH2 0x416B PUSH1 0xD DUP4 PUSH2 0x33F8 JUMP JUMPDEST SWAP2 POP PUSH2 0x4176 DUP3 PUSH2 0x4135 JUMP JUMPDEST PUSH1 0x20 DUP3 ADD SWAP1 POP SWAP2 SWAP1 POP JUMP JUMPDEST PUSH1 0x0 PUSH1 0x20 DUP3 ADD SWAP1 POP DUP2 DUP2 SUB PUSH1 0x0 DUP4 ADD MSTORE PUSH2 0x419A DUP2 PUSH2 0x415E JUMP JUMPDEST SWAP1 POP SWAP2 SWAP1 POP JUMP JUMPDEST PUSH1 0x0 DUP2 SWAP1 POP SWAP3 SWAP2 POP POP JUMP JUMPDEST PUSH32 0x697066733A2F2F00000000000000000000000000000000000000000000000000 PUSH1 0x0 DUP3 ADD MSTORE POP JUMP JUMPDEST PUSH1 0x0 PUSH2 0x41E2 PUSH1 0x7 DUP4 PUSH2 0x41A1 JUMP JUMPDEST SWAP2 POP PUSH2 0x41ED DUP3 PUSH2 0x41AC JUMP JUMPDEST PUSH1 0x7 DUP3 ADD SWAP1 POP SWAP2 SWAP1 POP JUMP JUMPDEST PUSH1 0x0 PUSH2 0x4203 DUP3 PUSH2 0x33ED JUMP JUMPDEST PUSH2 0x420D DUP2 DUP6 PUSH2 0x41A1 JUMP JUMPDEST SWAP4 POP PUSH2 0x421D DUP2 DUP6 PUSH1 0x20 DUP7 ADD PUSH2 0x3409 JUMP JUMPDEST DUP1 DUP5 ADD SWAP2 POP POP SWAP3 SWAP2 POP POP JUMP JUMPDEST PUSH1 0x0 PUSH2 0x4234 DUP3 PUSH2 0x41D5 JUMP JUMPDEST SWAP2 POP PUSH2 0x4240 DUP3 DUP5 PUSH2 0x41F8 JUMP JUMPDEST SWAP2 POP DUP2 SWAP1 POP SWAP3 SWAP2 POP POP JUMP JUMPDEST PUSH1 0x0 DUP2 SWAP1 POP DUP2 PUSH1 0x0 MSTORE PUSH1 0x20 PUSH1 0x0 KECCAK256 SWAP1 POP SWAP2 SWAP1 POP JUMP JUMPDEST PUSH1 0x0 PUSH1 0x20 PUSH1 0x1F DUP4 ADD DIV SWAP1 POP SWAP2 SWAP1 POP JUMP JUMPDEST PUSH1 0x0 DUP3 DUP3 SHL SWAP1 POP SWAP3 SWAP2 POP POP JUMP JUMPDEST PUSH1 0x0 PUSH1 0x8 DUP4 MUL PUSH2 0x42AD PUSH32 0xFFFFFFFFFFFFFFFFFFFFFFFFFFFFFFFFFFFFFFFFFFFFFFFFFFFFFFFFFFFFFFFF DUP3 PUSH2 0x4270 JUMP JUMPDEST PUSH2 0x42B7 DUP7 DUP4 PUSH2 0x4270 JUMP JUMPDEST SWAP6 POP DUP1 NOT DUP5 AND SWAP4 POP DUP1 DUP7 AND DUP5 OR SWAP3 POP POP POP SWAP4 SWAP3 POP POP POP JUMP JUMPDEST PUSH1 0x0 DUP2 SWAP1 POP SWAP2 SWAP1 POP JUMP JUMPDEST PUSH1 0x0 PUSH2 0x42F4 PUSH2 0x42EF PUSH2 0x42EA DUP5 PUSH2 0x349F JUMP JUMPDEST PUSH2 0x42CF JUMP JUMPDEST PUSH2 0x349F JUMP JUMPDEST SWAP1 POP SWAP2 SWAP1 POP JUMP JUMPDEST PUSH1 0x0 DUP2 SWAP1 POP SWAP2 SWAP1 POP JUMP JUMPDEST PUSH2 0x430E DUP4 PUSH2 0x42D9 JUMP JUMPDEST PUSH2 0x4322 PUSH2 0x431A DUP3 PUSH2 0x42FB JUMP JUMPDEST DUP5 DUP5 SLOAD PUSH2 0x427D JUMP JUMPDEST DUP3 SSTORE POP POP POP POP JUMP JUMPDEST PUSH1 0x0 SWAP1 JUMP JUMPDEST PUSH2 0x4337 PUSH2 0x432A JUMP JUMPDEST PUSH2 0x4342 DUP2 DUP5 DUP5 PUSH2 0x4305 JUMP JUMPDEST POP POP POP JUMP JUMPDEST JUMPDEST DUP2 DUP2 LT ISZERO PUSH2 0x4366 JUMPI PUSH2 0x435B PUSH1 0x0 DUP3 PUSH2 0x432F JUMP JUMPDEST PUSH1 0x1 DUP2 ADD SWAP1 POP PUSH2 0x4348 JUMP JUMPDEST POP POP JUMP JUMPDEST PUSH1 0x1F DUP3 GT ISZERO PUSH2 0x43AB JUMPI PUSH2 0x437C DUP2 PUSH2 0x424B JUMP JUMPDEST PUSH2 0x4385 DUP5 PUSH2 0x4260 JUMP JUMPDEST DUP2 ADD PUSH1 0x20 DUP6 LT ISZERO PUSH2 0x4394 JUMPI DUP2 SWAP1 POP JUMPDEST PUSH2 0x43A8 PUSH2 0x43A0 DUP6 PUSH2 0x4260 JUMP JUMPDEST DUP4 ADD DUP3 PUSH2 0x4347 JUMP JUMPDEST POP POP JUMPDEST POP POP POP JUMP JUMPDEST PUSH1 0x0 DUP3 DUP3 SHR SWAP1 POP SWAP3 SWAP2 POP POP JUMP JUMPDEST PUSH1 0x0 PUSH2 0x43CE PUSH1 0x0 NOT DUP5 PUSH1 0x8 MUL PUSH2 0x43B0 JUMP JUMPDEST NOT DUP1 DUP4 AND SWAP2 POP POP SWAP3 SWAP2 POP POP JUMP JUMPDEST PUSH1 0x0 PUSH2 0x43E7 DUP4 DUP4 PUSH2 0x43BD JUMP JUMPDEST SWAP2 POP DUP3 PUSH1 0x2 MUL DUP3 OR SWAP1 POP SWAP3 SWAP2 POP POP JUMP JUMPDEST PUSH2 0x4400 DUP3 PUSH2 0x33ED JUMP JUMPDEST PUSH8 0xFFFFFFFFFFFFFFFF DUP2 GT ISZERO PUSH2 0x4419 JUMPI PUSH2 0x4418 PUSH2 0x362B JUMP JUMPDEST JUMPDEST PUSH2 0x4423 DUP3 SLOAD PUSH2 0x3BEC JUMP JUMPDEST PUSH2 0x442E DUP3 DUP3 DUP6 PUSH2 0x436A JUMP JUMPDEST PUSH1 0x0 PUSH1 0x20 SWAP1 POP PUSH1 0x1F DUP4 GT PUSH1 0x1 DUP2 EQ PUSH2 0x4461 JUMPI PUSH1 0x0 DUP5 ISZERO PUSH2 0x444F JUMPI DUP3 DUP8 ADD MLOAD SWAP1 POP JUMPDEST PUSH2 0x4459 DUP6 DUP3 PUSH2 0x43DB JUMP JUMPDEST DUP7 SSTORE POP PUSH2 0x44C1 JUMP JUMPDEST PUSH1 0x1F NOT DUP5 AND PUSH2 0x446F DUP7 PUSH2 0x424B JUMP JUMPDEST PUSH1 0x0 JUMPDEST DUP3 DUP2 LT ISZERO PUSH2 0x4497 JUMPI DUP5 DUP10 ADD MLOAD DUP3 SSTORE PUSH1 0x1 DUP3 ADD SWAP2 POP PUSH1 0x20 DUP6 ADD SWAP5 POP PUSH1 0x20 DUP2 ADD SWAP1 POP PUSH2 0x4472 JUMP JUMPDEST DUP7 DUP4 LT ISZERO PUSH2 0x44B4 JUMPI DUP5 DUP10 ADD MLOAD PUSH2 0x44B0 PUSH1 0x1F DUP10 AND DUP3 PUSH2 0x43BD JUMP JUMPDEST DUP4 SSTORE POP JUMPDEST PUSH1 0x1 PUSH1 0x2 DUP9 MUL ADD DUP9 SSTORE POP POP POP JUMPDEST POP POP POP POP POP POP JUMP JUMPDEST PUSH1 0x0 PUSH1 0x60 DUP3 ADD SWAP1 POP DUP2 DUP2 SUB PUSH1 0x0 DUP4 ADD MSTORE PUSH2 0x44E3 DUP2 DUP7 PUSH2 0x3444 JUMP JUMPDEST SWAP1 POP PUSH2 0x44F2 PUSH1 0x20 DUP4 ADD DUP6 PUSH2 0x35F7 JUMP JUMPDEST DUP2 DUP2 SUB PUSH1 0x40 DUP4 ADD MSTORE PUSH2 0x4504 DUP2 DUP5 PUSH2 0x3444 JUMP JUMPDEST SWAP1 POP SWAP5 SWAP4 POP POP POP POP JUMP JUMPDEST PUSH32 0x4F776E61626C653A206E6577206F776E657220697320746865207A65726F2061 PUSH1 0x0 DUP3 ADD MSTORE PUSH32 0x6464726573730000000000000000000000000000000000000000000000000000 PUSH1 0x20 DUP3 ADD MSTORE POP JUMP JUMPDEST PUSH1 0x0 PUSH2 0x456A PUSH1 0x26 DUP4 PUSH2 0x33F8 JUMP JUMPDEST SWAP2 POP PUSH2 0x4575 DUP3 PUSH2 0x450E JUMP JUMPDEST PUSH1 0x40 DUP3 ADD SWAP1 POP SWAP2 SWAP1 POP JUMP JUMPDEST PUSH1 0x0 PUSH1 0x20 DUP3 ADD SWAP1 POP DUP2 DUP2 SUB PUSH1 0x0 DUP4 ADD MSTORE PUSH2 0x4599 DUP2 PUSH2 0x455D JUMP JUMPDEST SWAP1 POP SWAP2 SWAP1 POP JUMP JUMPDEST PUSH32 0x4F776E61626C653A2063616C6C6572206973206E6F7420746865206F776E6572 PUSH1 0x0 DUP3 ADD MSTORE POP JUMP JUMPDEST PUSH1 0x0 PUSH2 0x45D6 PUSH1 0x20 DUP4 PUSH2 0x33F8 JUMP JUMPDEST SWAP2 POP PUSH2 0x45E1 DUP3 PUSH2 0x45A0 JUMP JUMPDEST PUSH1 0x20 DUP3 ADD SWAP1 POP SWAP2 SWAP1 POP JUMP JUMPDEST PUSH1 0x0 PUSH1 0x20 DUP3 ADD SWAP1 POP DUP2 DUP2 SUB PUSH1 0x0 DUP4 ADD MSTORE PUSH2 0x4605 DUP2 PUSH2 0x45C9 JUMP JUMPDEST SWAP1 POP SWAP2 SWAP1 POP JUMP JUMPDEST PUSH32 0x5265656E7472616E637947756172643A207265656E7472616E742063616C6C00 PUSH1 0x0 DUP3 ADD MSTORE POP JUMP JUMPDEST PUSH1 0x0 PUSH2 0x4642 PUSH1 0x1F DUP4 PUSH2 0x33F8 JUMP JUMPDEST SWAP2 POP PUSH2 0x464D DUP3 PUSH2 0x460C JUMP JUMPDEST PUSH1 0x20 DUP3 ADD SWAP1 POP SWAP2 SWAP1 POP JUMP JUMPDEST PUSH1 0x0 PUSH1 0x20 DUP3 ADD SWAP1 POP DUP2 DUP2 SUB PUSH1 0x0 DUP4 ADD MSTORE PUSH2 0x4671 DUP2 PUSH2 0x4635 JUMP JUMPDEST SWAP1 POP SWAP2 SWAP1 POP JUMP JUMPDEST PUSH32 0x45524337323155524953746F726167653A2055524920736574206F66206E6F6E PUSH1 0x0 DUP3 ADD MSTORE PUSH32 0x6578697374656E7420746F6B656E000000000000000000000000000000000000 PUSH1 0x20 DUP3 ADD MSTORE POP JUMP JUMPDEST PUSH1 0x0 PUSH2 0x46D4 PUSH1 0x2E DUP4 PUSH2 0x33F8 JUMP JUMPDEST SWAP2 POP PUSH2 0x46DF DUP3 PUSH2 0x4678 JUMP JUMPDEST PUSH1 0x40 DUP3 ADD SWAP1 POP SWAP2 SWAP1 POP JUMP JUMPDEST PUSH1 0x0 PUSH1 0x20 DUP3 ADD SWAP1 POP DUP2 DUP2 SUB PUSH1 0x0 DUP4 ADD MSTORE PUSH2 0x4703 DUP2 PUSH2 0x46C7 JUMP JUMPDEST SWAP1 POP SWAP2 SWAP1 POP JUMP JUMPDEST PUSH32 0x4552433732313A207472616E736665722066726F6D20696E636F727265637420 PUSH1 0x0 DUP3 ADD MSTORE PUSH32 0x6F776E6572000000000000000000000000000000000000000000000000000000 PUSH1 0x20 DUP3 ADD MSTORE POP JUMP JUMPDEST PUSH1 0x0 PUSH2 0x4766 PUSH1 0x25 DUP4 PUSH2 0x33F8 JUMP JUMPDEST SWAP2 POP PUSH2 0x4771 DUP3 PUSH2 0x470A JUMP JUMPDEST PUSH1 0x40 DUP3 ADD SWAP1 POP SWAP2 SWAP1 POP JUMP JUMPDEST PUSH1 0x0 PUSH1 0x20 DUP3 ADD SWAP1 POP DUP2 DUP2 SUB PUSH1 0x0 DUP4 ADD MSTORE PUSH2 0x4795 DUP2 PUSH2 0x4759 JUMP JUMPDEST SWAP1 POP SWAP2 SWAP1 POP JUMP JUMPDEST PUSH32 0x4552433732313A207472616E7366657220746F20746865207A65726F20616464 PUSH1 0x0 DUP3 ADD MSTORE PUSH32 0x7265737300000000000000000000000000000000000000000000000000000000 PUSH1 0x20 DUP3 ADD MSTORE POP JUMP JUMPDEST PUSH1 0x0 PUSH2 0x47F8 PUSH1 0x24 DUP4 PUSH2 0x33F8 JUMP JUMPDEST SWAP2 POP PUSH2 0x4803 DUP3 PUSH2 0x479C JUMP JUMPDEST PUSH1 0x40 DUP3 ADD SWAP1 POP SWAP2 SWAP1 POP JUMP JUMPDEST PUSH1 0x0 PUSH1 0x20 DUP3 ADD SWAP1 POP DUP2 DUP2 SUB PUSH1 0x0 DUP4 ADD MSTORE PUSH2 0x4827 DUP2 PUSH2 0x47EB JUMP JUMPDEST SWAP1 POP SWAP2 SWAP1 POP JUMP JUMPDEST PUSH32 0x4552433732313A20617070726F766520746F2063616C6C657200000000000000 PUSH1 0x0 DUP3 ADD MSTORE POP JUMP JUMPDEST PUSH1 0x0 PUSH2 0x4864 PUSH1 0x19 DUP4 PUSH2 0x33F8 JUMP JUMPDEST SWAP2 POP PUSH2 0x486F DUP3 PUSH2 0x482E JUMP JUMPDEST PUSH1 0x20 DUP3 ADD SWAP1 POP SWAP2 SWAP1 POP JUMP JUMPDEST PUSH1 0x0 PUSH1 0x20 DUP3 ADD SWAP1 POP DUP2 DUP2 SUB PUSH1 0x0 DUP4 ADD MSTORE PUSH2 0x4893 DUP2 PUSH2 0x4857 JUMP JUMPDEST SWAP1 POP SWAP2 SWAP1 POP JUMP JUMPDEST PUSH32 0x4552433732313A207472616E7366657220746F206E6F6E204552433732315265 PUSH1 0x0 DUP3 ADD MSTORE PUSH32 0x63656976657220696D706C656D656E7465720000000000000000000000000000 PUSH1 0x20 DUP3 ADD MSTORE POP JUMP JUMPDEST PUSH1 0x0 PUSH2 0x48F6 PUSH1 0x32 DUP4 PUSH2 0x33F8 JUMP JUMPDEST SWAP2 POP PUSH2 0x4901 DUP3 PUSH2 0x489A JUMP JUMPDEST PUSH1 0x40 DUP3 ADD SWAP1 POP SWAP2 SWAP1 POP JUMP JUMPDEST PUSH1 0x0 PUSH1 0x20 DUP3 ADD SWAP1 POP DUP2 DUP2 SUB PUSH1 0x0 DUP4 ADD MSTORE PUSH2 0x4925 DUP2 PUSH2 0x48E9 JUMP JUMPDEST SWAP1 POP SWAP2 SWAP1 POP JUMP JUMPDEST PUSH1 0x0 DUP2 MLOAD SWAP1 POP SWAP2 SWAP1 POP JUMP JUMPDEST PUSH1 0x0 DUP3 DUP3 MSTORE PUSH1 0x20 DUP3 ADD SWAP1 POP SWAP3 SWAP2 POP POP JUMP JUMPDEST PUSH1 0x0 PUSH2 0x4953 DUP3 PUSH2 0x492C JUMP JUMPDEST PUSH2 0x495D DUP2 DUP6 PUSH2 0x4937 JUMP JUMPDEST SWAP4 POP PUSH2 0x496D DUP2 DUP6 PUSH1 0x20 DUP7 ADD PUSH2 0x3409 JUMP JUMPDEST PUSH2 0x4976 DUP2 PUSH2 0x3433 JUMP JUMPDEST DUP5 ADD SWAP2 POP POP SWAP3 SWAP2 POP POP JUMP JUMPDEST PUSH1 0x0 PUSH1 0x80 DUP3 ADD SWAP1 POP PUSH2 0x4996 PUSH1 0x0 DUP4 ADD DUP8 PUSH2 0x3534 JUMP JUMPDEST PUSH2 0x49A3 PUSH1 0x20 DUP4 ADD DUP7 PUSH2 0x3534 JUMP JUMPDEST PUSH2 0x49B0 PUSH1 0x40 DUP4 ADD DUP6 PUSH2 0x35F7 JUMP JUMPDEST DUP2 DUP2 SUB PUSH1 0x60 DUP4 ADD MSTORE PUSH2 0x49C2 DUP2 DUP5 PUSH2 0x4948 JUMP JUMPDEST SWAP1 POP SWAP6 SWAP5 POP POP POP POP POP JUMP JUMPDEST PUSH1 0x0 DUP2 MLOAD SWAP1 POP PUSH2 0x49DC DUP2 PUSH2 0x335E JUMP JUMPDEST SWAP3 SWAP2 POP POP JUMP JUMPDEST PUSH1 0x0 PUSH1 0x20 DUP3 DUP5 SUB SLT ISZERO PUSH2 0x49F8 JUMPI PUSH2 0x49F7 PUSH2 0x3328 JUMP JUMPDEST JUMPDEST PUSH1 0x0 PUSH2 0x4A06 DUP5 DUP3 DUP6 ADD PUSH2 0x49CD JUMP JUMPDEST SWAP2 POP POP SWAP3 SWAP2 POP POP JUMP JUMPDEST PUSH32 0x4552433732313A206D696E7420746F20746865207A65726F2061646472657373 PUSH1 0x0 DUP3 ADD MSTORE POP JUMP JUMPDEST PUSH1 0x0 PUSH2 0x4A45 PUSH1 0x20 DUP4 PUSH2 0x33F8 JUMP JUMPDEST SWAP2 POP PUSH2 0x4A50 DUP3 PUSH2 0x4A0F JUMP JUMPDEST PUSH1 0x20 DUP3 ADD SWAP1 POP SWAP2 SWAP1 POP JUMP JUMPDEST PUSH1 0x0 PUSH1 0x20 DUP3 ADD SWAP1 POP DUP2 DUP2 SUB PUSH1 0x0 DUP4 ADD MSTORE PUSH2 0x4A74 DUP2 PUSH2 0x4A38 JUMP JUMPDEST SWAP1 POP SWAP2 SWAP1 POP JUMP JUMPDEST PUSH32 0x4552433732313A20746F6B656E20616C7265616479206D696E74656400000000 PUSH1 0x0 DUP3 ADD MSTORE POP JUMP JUMPDEST PUSH1 0x0 PUSH2 0x4AB1 PUSH1 0x1C DUP4 PUSH2 0x33F8 JUMP JUMPDEST SWAP2 POP PUSH2 0x4ABC DUP3 PUSH2 0x4A7B JUMP JUMPDEST PUSH1 0x20 DUP3 ADD SWAP1 POP SWAP2 SWAP1 POP JUMP JUMPDEST PUSH1 0x0 PUSH1 0x20 DUP3 ADD SWAP1 POP DUP2 DUP2 SUB PUSH1 0x0 DUP4 ADD MSTORE PUSH2 0x4AE0 DUP2 PUSH2 0x4AA4 JUMP JUMPDEST SWAP1 POP SWAP2 SWAP1 POP JUMP INVALID LOG2 PUSH5 0x6970667358 0x22 SLT KECCAK256 PUSH29 0xD259C68B2A96E0679D96D8ABDB91D9673028A804427C7603EA3B3FA4E7 PUSH29 0x7564736F6C634300081400330000000000000000000000000000000000 "},"methodIdentifiers":{"approve(address,uint256)":"095ea7b3","approveClaim(uint256,string)":"192875d7","balanceOf(address)":"70a08231","burn(uint256)":"42966c68","claims(uint256)":"a888c2cd","externalToken()":"c9828ae0","getApproved(uint256)":"081812fc","getClaimCount()":"ba4611d9","getUserClaimCount(address)":"40676a51","isApprovedForAll(address,address)":"e985e9c5","listToken(uint256,uint256)":"75c1631d","name()":"06fdde03","owner()":"8da5cb5b","ownerOf(uint256)":"6352211e","purchaseToken(uint256)":"c2db2c42","rejectClaim(uint256,string)":"3577a5ad","renounceOwnership()":"715018a6","safeTransferFrom(address,address,uint256)":"42842e0e","safeTransferFrom(address,address,uint256,bytes)":"b88d4fde","setApprovalForAll(address,bool)":"a22cb465","setExternalToken(address)":"1633bb1b","submitClaim(uint256,string,string,string)":"efbd8e5e","supportsInterface(bytes4)":"01ffc9a7","symbol()":"95d89b41","tokenPrices(uint256)":"e5afe3e6","tokenToClaim(uint256)":"8ad5048b","tokenURI(uint256)":"c87b56dd","totalSupply()":"18160ddd","transferFrom(address,address,uint256)":"23b872dd","transferOwnership(address)":"f2fde38b","unlistToken(uint256)":"ad3a358c","userClaimIds(address,uint256)":"97ff9bce"}}}}}