{
  "_format": "hh-sol-artifact-1",
  "contractName": "CarbonOffsetNFT",
  "sourceName": "contracts/CarbonOffsetNFT.sol",
  "abi": [
    {
      "inputs": [],
      "stateMutability": "nonpayable",
      "type": "constructor"
    },
    {
      "inputs": [],
      "name": "AlreadyListed",
      "type": "error"
    },
    {
      "inputs": [],
      "name": "ClaimDoesNotExist",
      "type": "error"
    },
    {
      "inputs": [],
      "name": "InsufficientFunds",
      "type": "error"
    },
    {
      "inputs": [],
      "name": "InvalidCO2Offset",
      "type": "error"
    },
    {
      "inputs": [],
      "name": "InvalidDescription",
      "type": "error"
    },
    {
      "inputs": [],
      "name": "InvalidIPFSHash",
      "type": "error"
    },
    {
      "inputs": [],
      "name": "InvalidPrice",
      "type": "error"
    },
    {
      "inputs": [],
      "name": "InvalidProjectName",
      "type": "error"
    },
    {
      "inputs": [],
      "name": "NotClaimant",
      "type": "error"
    },
    {
      "inputs": [],
      "name": "NotListed",
      "type": "error"
    },
    {
      "inputs": [],
      "name": "NotPending",
      "type": "error"
    },
    {
      "anonymous": false,
      "inputs": [
        {
          "indexed": true,
          "internalType": "address",
          "name": "owner",
          "type": "address"
        },
        {
          "indexed": true,
          "internalType": "address",
          "name": "approved",
          "type": "address"
        },
        {
          "indexed": true,
          "internalType": "uint256",
          "name": "tokenId",
          "type": "uint256"
        }
      ],
      "name": "Approval",
      "type": "event"
    },
    {
      "anonymous": false,
      "inputs": [
        {
          "indexed": true,
          "internalType": "address",
          "name": "owner",
          "type": "address"
        },
        {
          "indexed": true,
          "internalType": "address",
          "name": "operator",
          "type": "address"
        },
        {
          "indexed": false,
          "internalType": "bool",
          "name": "approved",
          "type": "bool"
        }
      ],
      "name": "ApprovalForAll",
      "type": "event"
    },
    {
      "anonymous": false,
      "inputs": [
        {
          "indexed": false,
          "internalType": "uint256",
          "name": "_fromTokenId",
          "type": "uint256"
        },
        {
          "indexed": false,
          "internalType": "uint256",
          "name": "_toTokenId",
          "type": "uint256"
        }
      ],
      "name": "BatchMetadataUpdate",
      "type": "event"
    },
    {
      "anonymous": false,
      "inputs": [
        {
          "indexed": true,
          "internalType": "uint256",
          "name": "claimId",
          "type": "uint256"
        },
        {
          "indexed": true,
          "internalType": "uint256",
          "name": "tokenId",
          "type": "uint256"
        }
      ],
      "name": "ClaimApproved",
      "type": "event"
    },
    {
      "anonymous": false,
      "inputs": [
        {
          "indexed": true,
          "internalType": "uint256",
          "name": "claimId",
          "type": "uint256"
        },
        {
          "indexed": false,
          "internalType": "string",
          "name": "reason",
          "type": "string"
        }
      ],
      "name": "ClaimRejected",
      "type": "event"
    },
    {
      "anonymous": false,
      "inputs": [
        {
          "indexed": true,
          "internalType": "uint256",
          "name": "claimId",
          "type": "uint256"
        },
        {
          "indexed": true,
          "internalType": "address",
          "name": "claimant",
          "type": "address"
        },
        {
          "indexed": false,
          "internalType": "string",
          "name": "projectName",
          "type": "string"
        },
        {
          "indexed": false,
          "internalType": "uint256",
          "name": "co2Offset",
          "type": "uint256"
        },
        {
          "indexed": false,
          "internalType": "string",
          "name": "ipfsHash",
          "type": "string"
        }
      ],
      "name": "ClaimSubmitted",
      "type": "event"
    },
    {
      "anonymous": false,
      "inputs": [
        {
          "indexed": false,
          "internalType": "uint256",
          "name": "_tokenId",
          "type": "uint256"
        }
      ],
      "name": "MetadataUpdate",
      "type": "event"
    },
    {
      "anonymous": false,
      "inputs": [
        {
          "indexed": true,
          "internalType": "address",
          "name": "previousOwner",
          "type": "address"
        },
        {
          "indexed": true,
          "internalType": "address",
          "name": "newOwner",
          "type": "address"
        }
      ],
      "name": "OwnershipTransferred",
      "type": "event"
    },
    {
      "anonymous": false,
      "inputs": [
        {
          "indexed": true,
          "internalType": "uint256",
          "name": "tokenId",
          "type": "uint256"
        }
      ],
      "name": "TokenBurned",
      "type": "event"
    },
    {
      "anonymous": false,
      "inputs": [
        {
          "indexed": true,
          "internalType": "uint256",
          "name": "tokenId",
          "type": "uint256"
        },
        {
          "indexed": false,
          "internalType": "uint256",
          "name": "price",
          "type": "uint256"
        }
      ],
      "name": "TokenListed",
      "type": "event"
    },
    {
      "anonymous": false,
      "inputs": [
        {
          "indexed": true,
          "internalType": "uint256",
          "name": "tokenId",
          "type": "uint256"
        },
        {
          "indexed": true,
          "internalType": "address",
          "name": "buyer",
          "type": "address"
        },
        {
          "indexed": false,
          "internalType": "uint256",
          "name": "price",
          "type": "uint256"
        }
      ],
      "name": "TokenPurchased",
      "type": "event"
    },
    {
      "anonymous": false,
      "inputs": [
        {
          "indexed": true,
          "internalType": "uint256",
          "name": "tokenId",
          "type": "uint256"
        }
      ],
      "name": "TokenUnlisted",
      "type": "event"
    },
    {
      "anonymous": false,
      "inputs": [
        {
          "indexed": true,
          "internalType": "address",
          "name": "from",
          "type": "address"
        },
        {
          "indexed": true,
          "internalType": "address",
          "name": "to",
          "type": "address"
        },
        {
          "indexed": true,
          "internalType": "uint256",
          "name": "tokenId",
          "type": "uint256"
        }
      ],
      "name": "Transfer",
      "type": "event"
    },
    {
      "inputs": [
        {
          "internalType": "address",
          "name": "to",
          "type": "address"
        },
        {
          "internalType": "uint256",
          "name": "tokenId",
          "type": "uint256"
        }
      ],
      "name": "approve",
      "outputs": [],
      "stateMutability": "nonpayable",
      "type": "function"
    },
    {
      "inputs": [
        {
          "internalType": "uint256",
          "name": "claimId",
          "type": "uint256"
        },
        {
          "internalType": "string",
          "name": "tokenURI",
          "type": "string"
        }
      ],
      "name": "approveClaim",
      "outputs": [],
      "stateMutability": "nonpayable",
      "type": "function"
    },
    {
      "inputs": [
        {
          "internalType": "address",
          "name": "owner",
          "type": "address"
        }
      ],
      "name": "balanceOf",
      "outputs": [
        {
          "internalType": "uint256",
          "name": "",
          "type": "uint256"
        }
      ],
      "stateMutability": "view",
      "type": "function"
    },
    {
      "inputs": [
        {
          "internalType": "uint256",
          "name": "tokenId",
          "type": "uint256"
        }
      ],
      "name": "burn",
      "outputs": [],
      "stateMutability": "nonpayable",
      "type": "function"
    },
    {
      "inputs": [
        {
          "internalType": "uint256",
          "name": "",
          "type": "uint256"
        }
      ],
      "name": "claims",
      "outputs": [
        {
          "internalType": "string",
          "name": "projectName",
          "type": "string"
        },
        {
          "internalType": "string",
          "name": "description",
          "type": "string"
        },
        {
          "internalType": "uint256",
          "name": "co2Offset",
          "type": "uint256"
        },
        {
          "internalType": "string",
          "name": "ipfsHash",
          "type": "string"
        },
        {
          "internalType": "address",
          "name": "claimant",
          "type": "address"
        },
        {
          "internalType": "enum CarbonOffsetNFT.ClaimStatus",
          "name": "status",
          "type": "uint8"
        }
      ],
      "stateMutability": "view",
      "type": "function"
    },
    {
      "inputs": [],
      "name": "externalToken",
      "outputs": [
        {
          "internalType": "address",
          "name": "",
          "type": "address"
        }
      ],
      "stateMutability": "view",
      "type": "function"
    },
    {
      "inputs": [
        {
          "internalType": "uint256",
          "name": "tokenId",
          "type": "uint256"
        }
      ],
      "name": "getApproved",
      "outputs": [
        {
          "internalType": "address",
          "name": "",
          "type": "address"
        }
      ],
      "stateMutability": "view",
      "type": "function"
    },
    {
      "inputs": [],
      "name": "getClaimCount",
      "outputs": [
        {
          "internalType": "uint256",
          "name": "",
          "type": "uint256"
        }
      ],
      "stateMutability": "view",
      "type": "function"
    },
    {
      "inputs": [
        {
          "internalType": "address",
          "name": "user",
          "type": "address"
        }
      ],
      "name": "getUserClaimCount",
      "outputs": [
        {
          "internalType": "uint256",
          "name": "",
          "type": "uint256"
        }
      ],
      "stateMutability": "view",
      "type": "function"
    },
    {
      "inputs": [
        {
          "internalType": "address",
          "name": "owner",
          "type": "address"
        },
        {
          "internalType": "address",
          "name": "operator",
          "type": "address"
        }
      ],
      "name": "isApprovedForAll",
      "outputs": [
        {
          "internalType": "bool",
          "name": "",
          "type": "bool"
        }
      ],
      "stateMutability": "view",
      "type": "function"
    },
    {
      "inputs": [
        {
          "internalType": "uint256",
          "name": "tokenId",
          "type": "uint256"
        },
        {
          "internalType": "uint256",
          "name": "price",
          "type": "uint256"
        }
      ],
      "name": "listToken",
      "outputs": [],
      "stateMutability": "nonpayable",
      "type": "function"
    },
    {
      "inputs": [],
      "name": "name",
      "outputs": [
        {
          "internalType": "string",
          "name": "",
          "type": "string"
        }
      ],
      "stateMutability": "view",
      "type": "function"
    },
    {
      "inputs": [],
      "name": "owner",
      "outputs": [
        {
          "internalType": "address",
          "name": "",
          "type": "address"
        }
      ],
      "stateMutability": "view",
      "type": "function"
    },
    {
      "inputs": [
        {
          "internalType": "uint256",
          "name": "tokenId",
          "type": "uint256"
        }
      ],
      "name": "ownerOf",
      "outputs": [
        {
          "internalType": "address",
          "name": "",
          "type": "address"
        }
      ],
      "stateMutability": "view",
      "type": "function"
    },
    {
      "inputs": [
        {
          "internalType": "uint256",
          "name": "tokenId",
          "type": "uint256"
        }
      ],
      "name": "purchaseToken",
      "outputs": [],
      "stateMutability": "payable",
      "type": "function"
    },
    {
      "inputs": [
        {
          "internalType": "uint256",
          "name": "claimId",
          "type": "uint256"
        },
        {
          "internalType": "string",
          "name": "reason",
          "type": "string"
        }
      ],
      "name": "rejectClaim",
      "outputs": [],
      "stateMutability": "nonpayable",
      "type": "function"
    },
    {
      "inputs": [],
      "name": "renounceOwnership",
      "outputs": [],
      "stateMutability": "nonpayable",
      "type": "function"
    },
    {
      "inputs": [
        {
          "internalType": "address",
          "name": "from",
          "type": "address"
        },
        {
          "internalType": "address",
          "name": "to",
          "type": "address"
        },
        {
          "internalType": "uint256",
          "name": "tokenId",
          "type": "uint256"
        }
      ],
      "name": "safeTransferFrom",
      "outputs": [],
      "stateMutability": "nonpayable",
      "type": "function"
    },
    {
      "inputs": [
        {
          "internalType": "address",
          "name": "from",
          "type": "address"
        },
        {
          "internalType": "address",
          "name": "to",
          "type": "address"
        },
        {
          "internalType": "uint256",
          "name": "tokenId",
          "type": "uint256"
        },
        {
          "internalType": "bytes",
          "name": "data",
          "type": "bytes"
        }
      ],
      "name": "safeTransferFrom",
      "outputs": [],
      "stateMutability": "nonpayable",
      "type": "function"
    },
    {
      "inputs": [
        {
          "internalType": "address",
          "name": "operator",
          "type": "address"
        },
        {
          "internalType": "bool",
          "name": "approved",
          "type": "bool"
        }
      ],
      "name": "setApprovalForAll",
      "outputs": [],
      "stateMutability": "nonpayable",
      "type": "function"
    },
    {
      "inputs": [
        {
          "internalType": "address",
          "name": "tokenAddress",
          "type": "address"
        }
      ],
      "name": "setExternalToken",
      "outputs": [],
      "stateMutability": "nonpayable",
      "type": "function"
    },
    {
      "inputs": [
        {
          "internalType": "uint256",
          "name": "co2Offset",
          "type": "uint256"
        },
        {
          "internalType": "string",
          "name": "projectName",
          "type": "string"
        },
        {
          "internalType": "string",
          "name": "description",
          "type": "string"
        },
        {
          "internalType": "string",
          "name": "ipfsHash",
          "type": "string"
        }
      ],
      "name": "submitClaim",
      "outputs": [],
      "stateMutability": "nonpayable",
      "type": "function"
    },
    {
      "inputs": [
        {
          "internalType": "bytes4",
          "name": "interfaceId",
          "type": "bytes4"
        }
      ],
      "name": "supportsInterface",
      "outputs": [
        {
          "internalType": "bool",
          "name": "",
          "type": "bool"
        }
      ],
      "stateMutability": "view",
      "type": "function"
    },
    {
      "inputs": [],
      "name": "symbol",
      "outputs": [
        {
          "internalType": "string",
          "name": "",
          "type": "string"
        }
      ],
      "stateMutability": "view",
      "type": "function"
    },
    {
      "inputs": [
        {
          "internalType": "uint256",
          "name": "",
          "type": "uint256"
        }
      ],
      "name": "tokenPrices",
      "outputs": [
        {
          "internalType": "uint256",
          "name": "",
          "type": "uint256"
        }
      ],
      "stateMutability": "view",
      "type": "function"
    },
    {
      "inputs": [
        {
          "internalType": "uint256",
          "name": "",
          "type": "uint256"
        }
      ],
      "name": "tokenToClaim",
      "outputs": [
        {
          "internalType": "uint256",
          "name": "",
          "type": "uint256"
        }
      ],
      "stateMutability": "view",
      "type": "function"
    },
    {
      "inputs": [
        {
          "internalType": "uint256",
          "name": "tokenId",
          "type": "uint256"
        }
      ],
      "name": "tokenURI",
      "outputs": [
        {
          "internalType": "string",
          "name": "",
          "type": "string"
        }
      ],
      "stateMutability": "view",
      "type": "function"
    },
    {
      "inputs": [],
      "name": "totalSupply",
      "outputs": [
        {
          "internalType": "uint256",
          "name": "",
          "type": "uint256"
        }
      ],
      "stateMutability": "view",
      "type": "function"
    },
    {
      "inputs": [
        {
          "internalType": "address",
          "name": "from",
          "type": "address"
        },
        {
          "internalType": "address",
          "name": "to",
          "type": "address"
        },
        {
          "internalType": "uint256",
          "name": "tokenId",
          "type": "uint256"
        }
      ],
      "name": "transferFrom",
      "outputs": [],
      "stateMutability": "nonpayable",
      "type": "function"
    },
    {
      "inputs": [
        {
          "internalType": "address",
          "name": "newOwner",
          "type": "address"
        }
      ],
      "name": "transferOwnership",
      "outputs": [],
      "stateMutability": "nonpayable",
      "type": "function"
    },
    {
      "inputs": [
        {
          "internalType": "uint256",
          "name": "tokenId",
          "type": "uint256"
        }
      ],
      "name": "unlistToken",
      "outputs": [],
      "stateMutability": "nonpayable",
      "type": "function"
    },
    {
      "inputs": [
        {
          "internalType": "address",
          "name": "user",
          "type": "address"
        },
        {
          "internalType": "uint256",
          "name": "index",
          "type": "uint256"
        }
      ],
      "name": "userClaimIds",
      "outputs": [
        {
          "internalType": "uint256",
          "name": "",
          "type": "uint256"
        }
      ],
      "stateMutability": "view",
      "type": "function"
    }
  ],
  "bytecode": "0x60806040523480156200001157600080fd5b506040518060400160405280601781526020017f436172626f6e4f666673657443657274696669636174650000000000000000008152506040518060400160405280600381526020017f434f43000000000000000000000000000000000000000000000000000000000081525081600090816200008f91906200043f565b508060019081620000a191906200043f565b505050620000c4620000b8620000f760201b60201c565b620000ff60201b60201c565b6001600881905550620000f173ad64703c63fa940c909d0bd54a76025fd89deb4b620000ff60201b60201c565b62000526565b600033905090565b6000600760009054906101000a900473ffffffffffffffffffffffffffffffffffffffff16905081600760006101000a81548173ffffffffffffffffffffffffffffffffffffffff021916908373ffffffffffffffffffffffffffffffffffffffff1602179055508173ffffffffffffffffffffffffffffffffffffffff168173ffffffffffffffffffffffffffffffffffffffff167f8be0079c531659141344cd1fd0a4f28419497f9722a3daafe3b4186f6b6457e060405160405180910390a35050565b600081519050919050565b7f4e487b7100000000000000000000000000000000000000000000000000000000600052604160045260246000fd5b7f4e487b7100000000000000000000000000000000000000000000000000000000600052602260045260246000fd5b600060028204905060018216806200024757607f821691505b6020821081036200025d576200025c620001ff565b5b50919050565b60008190508160005260206000209050919050565b60006020601f8301049050919050565b600082821b905092915050565b600060088302620002c77fffffffffffffffffffffffffffffffffffffffffffffffffffffffffffffffff8262000288565b620002d3868362000288565b95508019841693508086168417925050509392505050565b6000819050919050565b6000819050919050565b6000620003206200031a6200031484620002eb565b620002f5565b620002eb565b9050919050565b6000819050919050565b6200033c83620002ff565b620003546200034b8262000327565b84845462000295565b825550505050565b600090565b6200036b6200035c565b6200037881848462000331565b505050565b5b81811015620003a0576200039460008262000361565b6001810190506200037e565b5050565b601f821115620003ef57620003b98162000263565b620003c48462000278565b81016020851015620003d4578190505b620003ec620003e38562000278565b8301826200037d565b50505b505050565b600082821c905092915050565b60006200041460001984600802620003f4565b1980831691505092915050565b60006200042f838362000401565b9150826002028217905092915050565b6200044a82620001c5565b67ffffffffffffffff811115620004665762000465620001d0565b5b6200047282546200022e565b6200047f828285620003a4565b600060209050601f831160018114620004b75760008415620004a2578287015190505b620004ae858262000421565b8655506200051e565b601f198416620004c78662000263565b60005b82811015620004f157848901518255600182019150602085019450602081019050620004ca565b868310156200051157848901516200050d601f89168262000401565b8355505b6001600288020188555050505b505050505050565b614b1d80620005366000396000f3fe6080604052600436106101e35760003560e01c80638ad5048b11610102578063ba4611d911610095578063e5afe3e611610064578063e5afe3e61461070a578063e985e9c514610747578063efbd8e5e14610784578063f2fde38b146107ad576101e3565b8063ba4611d91461065b578063c2db2c4214610686578063c87b56dd146106a2578063c9828ae0146106df576101e3565b8063a22cb465116100d1578063a22cb4651461059e578063a888c2cd146105c7578063ad3a358c14610609578063b88d4fde14610632576101e3565b80638ad5048b146104ce5780638da5cb5b1461050b57806395d89b411461053657806397ff9bce14610561576101e3565b80633577a5ad1161017a5780636352211e116101495780636352211e1461041457806370a0823114610451578063715018a61461048e57806375c1631d146104a5576101e3565b80633577a5ad1461035c57806340676a511461038557806342842e0e146103c257806342966c68146103eb576101e3565b80631633bb1b116101b65780631633bb1b146102b657806318160ddd146102df578063192875d71461030a57806323b872dd14610333576101e3565b806301ffc9a7146101e857806306fdde0314610225578063081812fc14610250578063095ea7b31461028d575b600080fd5b3480156101f457600080fd5b5061020f600480360381019061020a919061338a565b6107d6565b60405161021c91906133d2565b60405180910390f35b34801561023157600080fd5b5061023a6107e8565b604051610247919061347d565b60405180910390f35b34801561025c57600080fd5b50610277600480360381019061027291906134d5565b61087a565b6040516102849190613543565b60405180910390f35b34801561029957600080fd5b506102b460048036038101906102af919061358a565b6108c0565b005b3480156102c257600080fd5b506102dd60048036038101906102d891906135ca565b6109d7565b005b3480156102eb57600080fd5b506102f4610a23565b6040516103019190613606565b60405180910390f35b34801561031657600080fd5b50610331600480360381019061032c9190613756565b610a2d565b005b34801561033f57600080fd5b5061035a600480360381019061035591906137b2565b610c2a565b005b34801561036857600080fd5b50610383600480360381019061037e9190613756565b610c8a565b005b34801561039157600080fd5b506103ac60048036038101906103a791906135ca565b610e0c565b6040516103b99190613606565b60405180910390f35b3480156103ce57600080fd5b506103e960048036038101906103e491906137b2565b610e58565b005b3480156103f757600080fd5b50610412600480360381019061040d91906134d5565b610e78565b005b34801561042057600080fd5b5061043b600480360381019061043691906134d5565b610ef9565b6040516104489190613543565b60405180910390f35b34801561045d57600080fd5b50610478600480360381019061047391906135ca565b610f7f565b6040516104859190613606565b60405180910390f35b34801561049a57600080fd5b506104a3611036565b005b3480156104b157600080fd5b506104cc60048036038101906104c79190613805565b61104a565b005b3480156104da57600080fd5b506104f560048036038101906104f091906134d5565b6111e1565b6040516105029190613606565b60405180910390f35b34801561051757600080fd5b506105206111f9565b60405161052d9190613543565b60405180910390f35b34801561054257600080fd5b5061054b611223565b604051610558919061347d565b60405180910390f35b34801561056d57600080fd5b506105886004803603810190610583919061358a565b6112b5565b6040516105959190613606565b60405180910390f35b3480156105aa57600080fd5b506105c560048036038101906105c09190613871565b61139f565b005b3480156105d357600080fd5b506105ee60048036038101906105e991906134d5565b6113b5565b60405161060096959493929190613928565b60405180910390f35b34801561061557600080fd5b50610630600480360381019061062b91906134d5565b6115b6565b005b34801561063e57600080fd5b5061065960048036038101906106549190613a3f565b611708565b005b34801561066757600080fd5b5061067061176a565b60405161067d9190613606565b60405180910390f35b6106a0600480360381019061069b91906134d5565b611774565b005b3480156106ae57600080fd5b506106c960048036038101906106c491906134d5565b611a42565b6040516106d6919061347d565b60405180910390f35b3480156106eb57600080fd5b506106f4611d44565b6040516107019190613543565b60405180910390f35b34801561071657600080fd5b50610731600480360381019061072c91906134d5565b611d6a565b60405161073e9190613606565b60405180910390f35b34801561075357600080fd5b5061076e60048036038101906107699190613ac2565b611d82565b60405161077b91906133d2565b60405180910390f35b34801561079057600080fd5b506107ab60048036038101906107a69190613b02565b611e16565b005b3480156107b957600080fd5b506107d460048036038101906107cf91906135ca565b61211b565b005b60006107e18261219e565b9050919050565b6060600080546107f790613bec565b80601f016020809104026020016040519081016040528092919081815260200182805461082390613bec565b80156108705780601f1061084557610100808354040283529160200191610870565b820191906000526020600020905b81548152906001019060200180831161085357829003601f168201915b5050505050905090565b6000610885826121ff565b6004600083815260200190815260200160002060009054906101000a900473ffffffffffffffffffffffffffffffffffffffff169050919050565b60006108cb82610ef9565b90508073ffffffffffffffffffffffffffffffffffffffff168373ffffffffffffffffffffffffffffffffffffffff160361093b576040517f08c379a000000000000000000000000000000000000000000000000000000000815260040161093290613c8f565b60405180910390fd5b8073ffffffffffffffffffffffffffffffffffffffff1661095a61224a565b73ffffffffffffffffffffffffffffffffffffffff16148061098957506109888161098361224a565b611d82565b5b6109c8576040517f08c379a00000000000000000000000000000000000000000000000000000000081526004016109bf90613d21565b60405180910390fd5b6109d28383612252565b505050565b6109df61230b565b80600f60006101000a81548173ffffffffffffffffffffffffffffffffffffffff021916908373ffffffffffffffffffffffffffffffffffffffff16021790555050565b6000600b54905090565b610a3561230b565b610a3d612389565b6000600a60008481526020019081526020016000209050600073ffffffffffffffffffffffffffffffffffffffff168160040160009054906101000a900473ffffffffffffffffffffffffffffffffffffffff1673ffffffffffffffffffffffffffffffffffffffff1603610ade576040517fa019981800000000000000000000000000000000000000000000000000000000815260040160405180910390fd5b60006002811115610af257610af16138b1565b5b8160040160149054906101000a900460ff166002811115610b1657610b156138b1565b5b14610b4d576040517f7dc6505a00000000000000000000000000000000000000000000000000000000815260040160405180910390fd5b60018160040160146101000a81548160ff02191690836002811115610b7557610b746138b1565b5b02179055506000610b84610a23565b905083600c600083815260200190815260200160002081905550610bcc8260040160009054906101000a900473ffffffffffffffffffffffffffffffffffffffff16826123d8565b600b6000815480929190610bdf90613d70565b9190505550610bee81846123f6565b80847f638d892b8630b775fea5d7a52b209e8bfa1d90c32b57cd37208ac84d4bcd6dcb60405160405180910390a35050610c2661249a565b5050565b610c3b610c3561224a565b826124a4565b610c7a576040517f08c379a0000000000000000000000000000000000000000000000000000000008152600401610c7190613e2a565b60405180910390fd5b610c85838383612539565b505050565b610c9261230b565b6000600a60008481526020019081526020016000209050600073ffffffffffffffffffffffffffffffffffffffff168160040160009054906101000a900473ffffffffffffffffffffffffffffffffffffffff1673ffffffffffffffffffffffffffffffffffffffff1603610d33576040517fa019981800000000000000000000000000000000000000000000000000000000815260040160405180910390fd5b60006002811115610d4757610d466138b1565b5b8160040160149054906101000a900460ff166002811115610d6b57610d6a6138b1565b5b14610da2576040517f7dc6505a00000000000000000000000000000000000000000000000000000000815260040160405180910390fd5b60028160040160146101000a81548160ff02191690836002811115610dca57610dc96138b1565b5b0217905550827f43cc3d080e025c67c26d62b18bd442511dc9c76c8aa3f48cc0e8f456173e61f183604051610dff919061347d565b60405180910390a2505050565b6000600e60008373ffffffffffffffffffffffffffffffffffffffff1673ffffffffffffffffffffffffffffffffffffffff168152602001908152602001600020805490509050919050565b610e7383838360405180602001604052806000815250611708565b505050565b610e8181612832565b610ec0576040517f08c379a0000000000000000000000000000000000000000000000000000000008152600401610eb790613e96565b60405180910390fd5b610ec981612873565b807f0c526103b8f47af5516191d0c89a598755bd00faa211a3cb52e4c2cc782f7fe260405160405180910390a250565b600080610f05836128cf565b9050600073ffffffffffffffffffffffffffffffffffffffff168173ffffffffffffffffffffffffffffffffffffffff1603610f76576040517f08c379a0000000000000000000000000000000000000000000000000000000008152600401610f6d90613f02565b60405180910390fd5b80915050919050565b60008073ffffffffffffffffffffffffffffffffffffffff168273ffffffffffffffffffffffffffffffffffffffff1603610fef576040517f08c379a0000000000000000000000000000000000000000000000000000000008152600401610fe690613f94565b60405180910390fd5b600360008373ffffffffffffffffffffffffffffffffffffffff1673ffffffffffffffffffffffffffffffffffffffff168152602001908152602001600020549050919050565b61103e61230b565b611048600061290c565b565b611052612389565b61105b82612832565b611091576040517fa019981800000000000000000000000000000000000000000000000000000000815260040160405180910390fd5b3373ffffffffffffffffffffffffffffffffffffffff166110b183610ef9565b73ffffffffffffffffffffffffffffffffffffffff16146110fe576040517f94eeef6600000000000000000000000000000000000000000000000000000000815260040160405180910390fd5b60008103611137576040517ebfc92100000000000000000000000000000000000000000000000000000000815260040160405180910390fd5b6000600d6000848152602001908152602001600020541115611185576040517fa3d582ec00000000000000000000000000000000000000000000000000000000815260040160405180910390fd5b80600d600084815260200190815260200160002081905550817f1ea85aaf6731daa0c29195039c2a36576fb04e2cd16335504fab8967dfb03f15826040516111cd9190613606565b60405180910390a26111dd61249a565b5050565b600c6020528060005260406000206000915090505481565b6000600760009054906101000a900473ffffffffffffffffffffffffffffffffffffffff16905090565b60606001805461123290613bec565b80601f016020809104026020016040519081016040528092919081815260200182805461125e90613bec565b80156112ab5780601f10611280576101008083540402835291602001916112ab565b820191906000526020600020905b81548152906001019060200180831161128e57829003601f168201915b5050505050905090565b6000600e60008473ffffffffffffffffffffffffffffffffffffffff1673ffffffffffffffffffffffffffffffffffffffff16815260200190815260200160002080549050821061133b576040517f08c379a000000000000000000000000000000000000000000000000000000000815260040161133290614000565b60405180910390fd5b600e60008473ffffffffffffffffffffffffffffffffffffffff1673ffffffffffffffffffffffffffffffffffffffff168152602001908152602001600020828154811061138c5761138b614020565b5b9060005260206000200154905092915050565b6113b16113aa61224a565b83836129d2565b5050565b600a6020528060005260406000206000915090508060000180546113d890613bec565b80601f016020809104026020016040519081016040528092919081815260200182805461140490613bec565b80156114515780601f1061142657610100808354040283529160200191611451565b820191906000526020600020905b81548152906001019060200180831161143457829003601f168201915b50505050509080600101805461146690613bec565b80601f016020809104026020016040519081016040528092919081815260200182805461149290613bec565b80156114df5780601f106114b4576101008083540402835291602001916114df565b820191906000526020600020905b8154815290600101906020018083116114c257829003601f168201915b5050505050908060020154908060030180546114fa90613bec565b80601f016020809104026020016040519081016040528092919081815260200182805461152690613bec565b80156115735780601f1061154857610100808354040283529160200191611573565b820191906000526020600020905b81548152906001019060200180831161155657829003601f168201915b5050505050908060040160009054906101000a900473ffffffffffffffffffffffffffffffffffffffff16908060040160149054906101000a900460ff16905086565b6115be612389565b6115c781612832565b6115fd576040517fa019981800000000000000000000000000000000000000000000000000000000815260040160405180910390fd5b3373ffffffffffffffffffffffffffffffffffffffff1661161d82610ef9565b73ffffffffffffffffffffffffffffffffffffffff161461166a576040517f94eeef6600000000000000000000000000000000000000000000000000000000815260040160405180910390fd5b6000600d600083815260200190815260200160002054036116b7576040517f665c1c5700000000000000000000000000000000000000000000000000000000815260040160405180910390fd5b6000600d600083815260200190815260200160002081905550807fe0bba5d0bdeddbcc4ef688b9d8170c81883fb4c4a7065d8970c58b47996dd2d760405160405180910390a261170561249a565b50565b61171961171361224a565b836124a4565b611758576040517f08c379a000000000000000000000000000000000000000000000000000000000815260040161174f90613e2a565b60405180910390fd5b61176484848484612b3e565b50505050565b6000600954905090565b61177c612389565b61178581612832565b6117bb576040517fa019981800000000000000000000000000000000000000000000000000000000815260040160405180910390fd5b6000600d60008381526020019081526020016000205490506000810361180d576040517f665c1c5700000000000000000000000000000000000000000000000000000000815260040160405180910390fd5b80341015611847576040517f356680b700000000000000000000000000000000000000000000000000000000815260040160405180910390fd5b600061185283610ef9565b90506000600d600085815260200190815260200160002081905550611878813385612539565b60008173ffffffffffffffffffffffffffffffffffffffff168360405161189e90614080565b60006040518083038185875af1925050503d80600081146118db576040519150601f19603f3d011682016040523d82523d6000602084013e6118e0565b606091505b5050905080611924576040517f08c379a000000000000000000000000000000000000000000000000000000000815260040161191b906140e1565b60405180910390fd5b823411156119e55760003373ffffffffffffffffffffffffffffffffffffffff1684346119519190614101565b60405161195d90614080565b60006040518083038185875af1925050503d806000811461199a576040519150601f19603f3d011682016040523d82523d6000602084013e61199f565b606091505b50509050806119e3576040517f08c379a00000000000000000000000000000000000000000000000000000000081526004016119da90614181565b60405180910390fd5b505b3373ffffffffffffffffffffffffffffffffffffffff16847f1cb6dd09e77cf64c9d88c8e0cf8555ebff062045f2068f22efcbc60905730e7185604051611a2c9190613606565b60405180910390a3505050611a3f61249a565b50565b6060611a4d82612832565b611a8c576040517f08c379a0000000000000000000000000000000000000000000000000000000008152600401611a8390613e96565b60405180910390fd5b6000600c60008481526020019081526020016000205490506000600a60008381526020019081526020016000206040518060c0016040529081600082018054611ad490613bec565b80601f0160208091040260200160405190810160405280929190818152602001828054611b0090613bec565b8015611b4d5780601f10611b2257610100808354040283529160200191611b4d565b820191906000526020600020905b815481529060010190602001808311611b3057829003601f168201915b50505050508152602001600182018054611b6690613bec565b80601f0160208091040260200160405190810160405280929190818152602001828054611b9290613bec565b8015611bdf5780601f10611bb457610100808354040283529160200191611bdf565b820191906000526020600020905b815481529060010190602001808311611bc257829003601f168201915b5050505050815260200160028201548152602001600382018054611c0290613bec565b80601f0160208091040260200160405190810160405280929190818152602001828054611c2e90613bec565b8015611c7b5780601f10611c5057610100808354040283529160200191611c7b565b820191906000526020600020905b815481529060010190602001808311611c5e57829003601f168201915b505050505081526020016004820160009054906101000a900473ffffffffffffffffffffffffffffffffffffffff1673ffffffffffffffffffffffffffffffffffffffff1673ffffffffffffffffffffffffffffffffffffffff1681526020016004820160149054906101000a900460ff166002811115611cff57611cfe6138b1565b5b6002811115611d1157611d106138b1565b5b8152505090508060600151604051602001611d2c9190614229565b60405160208183030381529060405292505050919050565b600f60009054906101000a900473ffffffffffffffffffffffffffffffffffffffff1681565b600d6020528060005260406000206000915090505481565b6000600560008473ffffffffffffffffffffffffffffffffffffffff1673ffffffffffffffffffffffffffffffffffffffff16815260200190815260200160002060008373ffffffffffffffffffffffffffffffffffffffff1673ffffffffffffffffffffffffffffffffffffffff16815260200190815260200160002060009054906101000a900460ff16905092915050565b611e1e612389565b60008403611e58576040517f9a01e5fd00000000000000000000000000000000000000000000000000000000815260040160405180910390fd5b6000835103611e93576040517f7299cb4100000000000000000000000000000000000000000000000000000000815260040160405180910390fd5b6000825103611ece576040517f40132f1f00000000000000000000000000000000000000000000000000000000815260040160405180910390fd5b602e815114611f09576040517fdcdb6d0200000000000000000000000000000000000000000000000000000000815260040160405180910390fd5b600060096000815480929190611f1e90613d70565b9190505590506040518060c001604052808581526020018481526020018681526020018381526020013373ffffffffffffffffffffffffffffffffffffffff16815260200160006002811115611f7757611f766138b1565b5b815250600a60008381526020019081526020016000206000820151816000019081611fa291906143f7565b506020820151816001019081611fb891906143f7565b50604082015181600201556060820151816003019081611fd891906143f7565b5060808201518160040160006101000a81548173ffffffffffffffffffffffffffffffffffffffff021916908373ffffffffffffffffffffffffffffffffffffffff16021790555060a08201518160040160146101000a81548160ff0219169083600281111561204b5761204a6138b1565b5b0217905550905050600e60003373ffffffffffffffffffffffffffffffffffffffff1673ffffffffffffffffffffffffffffffffffffffff1681526020019081526020016000208190806001815401808255809150506001900390600052602060002001600090919091909150553373ffffffffffffffffffffffffffffffffffffffff16817fd33658690112e8fe52b8e29967ca1acaa7b543df9d4df01f8d18b8fb3d8622b1868886604051612104939291906144c9565b60405180910390a35061211561249a565b50505050565b61212361230b565b600073ffffffffffffffffffffffffffffffffffffffff168173ffffffffffffffffffffffffffffffffffffffff1603612192576040517f08c379a000000000000000000000000000000000000000000000000000000000815260040161218990614580565b60405180910390fd5b61219b8161290c565b50565b6000634906490660e01b7bffffffffffffffffffffffffffffffffffffffffffffffffffffffff1916827bffffffffffffffffffffffffffffffffffffffffffffffffffffffff191614806121f857506121f782612b9a565b5b9050919050565b61220881612832565b612247576040517f08c379a000000000000000000000000000000000000000000000000000000000815260040161223e90613f02565b60405180910390fd5b50565b600033905090565b816004600083815260200190815260200160002060006101000a81548173ffffffffffffffffffffffffffffffffffffffff021916908373ffffffffffffffffffffffffffffffffffffffff160217905550808273ffffffffffffffffffffffffffffffffffffffff166122c583610ef9565b73ffffffffffffffffffffffffffffffffffffffff167f8c5be1e5ebec7d5bd14f71427d1e84f3dd0314c0f7b2291e5b200ac8c7c3b92560405160405180910390a45050565b61231361224a565b73ffffffffffffffffffffffffffffffffffffffff166123316111f9565b73ffffffffffffffffffffffffffffffffffffffff1614612387576040517f08c379a000000000000000000000000000000000000000000000000000000000815260040161237e906145ec565b60405180910390fd5b565b6002600854036123ce576040517f08c379a00000000000000000000000000000000000000000000000000000000081526004016123c590614658565b60405180910390fd5b6002600881905550565b6123f2828260405180602001604052806000815250612c7c565b5050565b6123ff82612832565b61243e576040517f08c379a0000000000000000000000000000000000000000000000000000000008152600401612435906146ea565b60405180910390fd5b8060066000848152602001908152602001600020908161245e91906143f7565b507ff8e1a15aba9398e019f0b49df1a4fde98ee17ae345cb5f6b5e2c27f5033e8ce78260405161248e9190613606565b60405180910390a15050565b6001600881905550565b6000806124b083610ef9565b90508073ffffffffffffffffffffffffffffffffffffffff168473ffffffffffffffffffffffffffffffffffffffff1614806124f257506124f18185611d82565b5b8061253057508373ffffffffffffffffffffffffffffffffffffffff166125188461087a565b73ffffffffffffffffffffffffffffffffffffffff16145b91505092915050565b8273ffffffffffffffffffffffffffffffffffffffff1661255982610ef9565b73ffffffffffffffffffffffffffffffffffffffff16146125af576040517f08c379a00000000000000000000000000000000000000000000000000000000081526004016125a69061477c565b60405180910390fd5b600073ffffffffffffffffffffffffffffffffffffffff168273ffffffffffffffffffffffffffffffffffffffff160361261e576040517f08c379a00000000000000000000000000000000000000000000000000000000081526004016126159061480e565b60405180910390fd5b61262b8383836001612cd7565b8273ffffffffffffffffffffffffffffffffffffffff1661264b82610ef9565b73ffffffffffffffffffffffffffffffffffffffff16146126a1576040517f08c379a00000000000000000000000000000000000000000000000000000000081526004016126989061477c565b60405180910390fd5b6004600082815260200190815260200160002060006101000a81549073ffffffffffffffffffffffffffffffffffffffff02191690556001600360008573ffffffffffffffffffffffffffffffffffffffff1673ffffffffffffffffffffffffffffffffffffffff168152602001908152602001600020600082825403925050819055506001600360008473ffffffffffffffffffffffffffffffffffffffff1673ffffffffffffffffffffffffffffffffffffffff16815260200190815260200160002060008282540192505081905550816002600083815260200190815260200160002060006101000a81548173ffffffffffffffffffffffffffffffffffffffff021916908373ffffffffffffffffffffffffffffffffffffffff160217905550808273ffffffffffffffffffffffffffffffffffffffff168473ffffffffffffffffffffffffffffffffffffffff167fddf252ad1be2c89b69c2b068fc378daa952ba7f163c4a11628f55a4df523b3ef60405160405180910390a461282d8383836001612cdd565b505050565b60008073ffffffffffffffffffffffffffffffffffffffff16612854836128cf565b73ffffffffffffffffffffffffffffffffffffffff1614159050919050565b61288461287e61224a565b826124a4565b6128c3576040517f08c379a00000000000000000000000000000000000000000000000000000000081526004016128ba90613e2a565b60405180910390fd5b6128cc81612ce3565b50565b60006002600083815260200190815260200160002060009054906101000a900473ffffffffffffffffffffffffffffffffffffffff169050919050565b6000600760009054906101000a900473ffffffffffffffffffffffffffffffffffffffff16905081600760006101000a81548173ffffffffffffffffffffffffffffffffffffffff021916908373ffffffffffffffffffffffffffffffffffffffff1602179055508173ffffffffffffffffffffffffffffffffffffffff168173ffffffffffffffffffffffffffffffffffffffff167f8be0079c531659141344cd1fd0a4f28419497f9722a3daafe3b4186f6b6457e060405160405180910390a35050565b8173ffffffffffffffffffffffffffffffffffffffff168373ffffffffffffffffffffffffffffffffffffffff1603612a40576040517f08c379a0000000000000000000000000000000000000000000000000000000008152600401612a379061487a565b60405180910390fd5b80600560008573ffffffffffffffffffffffffffffffffffffffff1673ffffffffffffffffffffffffffffffffffffffff16815260200190815260200160002060008473ffffffffffffffffffffffffffffffffffffffff1673ffffffffffffffffffffffffffffffffffffffff16815260200190815260200160002060006101000a81548160ff0219169083151502179055508173ffffffffffffffffffffffffffffffffffffffff168373ffffffffffffffffffffffffffffffffffffffff167f17307eab39ab6107e8899845ad3d59bd9653f200f220920489ca2b5937696c3183604051612b3191906133d2565b60405180910390a3505050565b612b49848484612539565b612b5584848484612cef565b612b94576040517f08c379a0000000000000000000000000000000000000000000000000000000008152600401612b8b9061490c565b60405180910390fd5b50505050565b60007f80ac58cd000000000000000000000000000000000000000000000000000000007bffffffffffffffffffffffffffffffffffffffffffffffffffffffff1916827bffffffffffffffffffffffffffffffffffffffffffffffffffffffff19161480612c6557507f5b5e139f000000000000000000000000000000000000000000000000000000007bffffffffffffffffffffffffffffffffffffffffffffffffffffffff1916827bffffffffffffffffffffffffffffffffffffffffffffffffffffffff1916145b80612c755750612c7482612e76565b5b9050919050565b612c868383612ee0565b612c936000848484612cef565b612cd2576040517f08c379a0000000000000000000000000000000000000000000000000000000008152600401612cc99061490c565b60405180910390fd5b505050565b50505050565b50505050565b612cec816130fd565b50565b6000612d108473ffffffffffffffffffffffffffffffffffffffff16613150565b15612e69578373ffffffffffffffffffffffffffffffffffffffff1663150b7a02612d3961224a565b8786866040518563ffffffff1660e01b8152600401612d5b9493929190614981565b6020604051808303816000875af1925050508015612d9757506040513d601f19601f82011682018060405250810190612d9491906149e2565b60015b612e19573d8060008114612dc7576040519150601f19603f3d011682016040523d82523d6000602084013e612dcc565b606091505b506000815103612e11576040517f08c379a0000000000000000000000000000000000000000000000000000000008152600401612e089061490c565b60405180910390fd5b805181602001fd5b63150b7a0260e01b7bffffffffffffffffffffffffffffffffffffffffffffffffffffffff1916817bffffffffffffffffffffffffffffffffffffffffffffffffffffffff191614915050612e6e565b600190505b949350505050565b60007f01ffc9a7000000000000000000000000000000000000000000000000000000007bffffffffffffffffffffffffffffffffffffffffffffffffffffffff1916827bffffffffffffffffffffffffffffffffffffffffffffffffffffffff1916149050919050565b600073ffffffffffffffffffffffffffffffffffffffff168273ffffffffffffffffffffffffffffffffffffffff1603612f4f576040517f08c379a0000000000000000000000000000000000000000000000000000000008152600401612f4690614a5b565b60405180910390fd5b612f5881612832565b15612f98576040517f08c379a0000000000000000000000000000000000000000000000000000000008152600401612f8f90614ac7565b60405180910390fd5b612fa6600083836001612cd7565b612faf81612832565b15612fef576040517f08c379a0000000000000000000000000000000000000000000000000000000008152600401612fe690614ac7565b60405180910390fd5b6001600360008473ffffffffffffffffffffffffffffffffffffffff1673ffffffffffffffffffffffffffffffffffffffff16815260200190815260200160002060008282540192505081905550816002600083815260200190815260200160002060006101000a81548173ffffffffffffffffffffffffffffffffffffffff021916908373ffffffffffffffffffffffffffffffffffffffff160217905550808273ffffffffffffffffffffffffffffffffffffffff16600073ffffffffffffffffffffffffffffffffffffffff167fddf252ad1be2c89b69c2b068fc378daa952ba7f163c4a11628f55a4df523b3ef60405160405180910390a46130f9600083836001612cdd565b5050565b61310681613173565b600060066000838152602001908152602001600020805461312690613bec565b90501461314d5760066000828152602001908152602001600020600061314c91906132c1565b5b50565b6000808273ffffffffffffffffffffffffffffffffffffffff163b119050919050565b600061317e82610ef9565b905061318e816000846001612cd7565b61319782610ef9565b90506004600083815260200190815260200160002060006101000a81549073ffffffffffffffffffffffffffffffffffffffff02191690556001600360008373ffffffffffffffffffffffffffffffffffffffff1673ffffffffffffffffffffffffffffffffffffffff168152602001908152602001600020600082825403925050819055506002600083815260200190815260200160002060006101000a81549073ffffffffffffffffffffffffffffffffffffffff021916905581600073ffffffffffffffffffffffffffffffffffffffff168273ffffffffffffffffffffffffffffffffffffffff167fddf252ad1be2c89b69c2b068fc378daa952ba7f163c4a11628f55a4df523b3ef60405160405180910390a46132bd816000846001612cdd565b5050565b5080546132cd90613bec565b6000825580601f106132df57506132fe565b601f0160209004906000526020600020908101906132fd9190613301565b5b50565b5b8082111561331a576000816000905550600101613302565b5090565b6000604051905090565b600080fd5b600080fd5b60007fffffffff0000000000000000000000000000000000000000000000000000000082169050919050565b61336781613332565b811461337257600080fd5b50565b6000813590506133848161335e565b92915050565b6000602082840312156133a05761339f613328565b5b60006133ae84828501613375565b91505092915050565b60008115159050919050565b6133cc816133b7565b82525050565b60006020820190506133e760008301846133c3565b92915050565b600081519050919050565b600082825260208201905092915050565b60005b8381101561342757808201518184015260208101905061340c565b60008484015250505050565b6000601f19601f8301169050919050565b600061344f826133ed565b61345981856133f8565b9350613469818560208601613409565b61347281613433565b840191505092915050565b600060208201905081810360008301526134978184613444565b905092915050565b6000819050919050565b6134b28161349f565b81146134bd57600080fd5b50565b6000813590506134cf816134a9565b92915050565b6000602082840312156134eb576134ea613328565b5b60006134f9848285016134c0565b91505092915050565b600073ffffffffffffffffffffffffffffffffffffffff82169050919050565b600061352d82613502565b9050919050565b61353d81613522565b82525050565b60006020820190506135586000830184613534565b92915050565b61356781613522565b811461357257600080fd5b50565b6000813590506135848161355e565b92915050565b600080604083850312156135a1576135a0613328565b5b60006135af85828601613575565b92505060206135c0858286016134c0565b9150509250929050565b6000602082840312156135e0576135df613328565b5b60006135ee84828501613575565b91505092915050565b6136008161349f565b82525050565b600060208201905061361b60008301846135f7565b92915050565b600080fd5b600080fd5b7f4e487b7100000000000000000000000000000000000000000000000000000000600052604160045260246000fd5b61366382613433565b810181811067ffffffffffffffff821117156136825761368161362b565b5b80604052505050565b600061369561331e565b90506136a1828261365a565b919050565b600067ffffffffffffffff8211156136c1576136c061362b565b5b6136ca82613433565b9050602081019050919050565b82818337600083830152505050565b60006136f96136f4846136a6565b61368b565b90508281526020810184848401111561371557613714613626565b5b6137208482856136d7565b509392505050565b600082601f83011261373d5761373c613621565b5b813561374d8482602086016136e6565b91505092915050565b6000806040838503121561376d5761376c613328565b5b600061377b858286016134c0565b925050602083013567ffffffffffffffff81111561379c5761379b61332d565b5b6137a885828601613728565b9150509250929050565b6000806000606084860312156137cb576137ca613328565b5b60006137d986828701613575565b93505060206137ea86828701613575565b92505060406137fb868287016134c0565b9150509250925092565b6000806040838503121561381c5761381b613328565b5b600061382a858286016134c0565b925050602061383b858286016134c0565b9150509250929050565b61384e816133b7565b811461385957600080fd5b50565b60008135905061386b81613845565b92915050565b6000806040838503121561388857613887613328565b5b600061389685828601613575565b92505060206138a78582860161385c565b9150509250929050565b7f4e487b7100000000000000000000000000000000000000000000000000000000600052602160045260246000fd5b600381106138f1576138f06138b1565b5b50565b6000819050613902826138e0565b919050565b6000613912826138f4565b9050919050565b61392281613907565b82525050565b600060c08201905081810360008301526139428189613444565b905081810360208301526139568188613444565b905061396560408301876135f7565b81810360608301526139778186613444565b90506139866080830185613534565b61399360a0830184613919565b979650505050505050565b600067ffffffffffffffff8211156139b9576139b861362b565b5b6139c282613433565b9050602081019050919050565b60006139e26139dd8461399e565b61368b565b9050828152602081018484840111156139fe576139fd613626565b5b613a098482856136d7565b509392505050565b600082601f830112613a2657613a25613621565b5b8135613a368482602086016139cf565b91505092915050565b60008060008060808587031215613a5957613a58613328565b5b6000613a6787828801613575565b9450506020613a7887828801613575565b9350506040613a89878288016134c0565b925050606085013567ffffffffffffffff811115613aaa57613aa961332d565b5b613ab687828801613a11565b91505092959194509250565b60008060408385031215613ad957613ad8613328565b5b6000613ae785828601613575565b9250506020613af885828601613575565b9150509250929050565b60008060008060808587031215613b1c57613b1b613328565b5b6000613b2a878288016134c0565b945050602085013567ffffffffffffffff811115613b4b57613b4a61332d565b5b613b5787828801613728565b935050604085013567ffffffffffffffff811115613b7857613b7761332d565b5b613b8487828801613728565b925050606085013567ffffffffffffffff811115613ba557613ba461332d565b5b613bb187828801613728565b91505092959194509250565b7f4e487b7100000000000000000000000000000000000000000000000000000000600052602260045260246000fd5b60006002820490506001821680613c0457607f821691505b602082108103613c1757613c16613bbd565b5b50919050565b7f4552433732313a20617070726f76616c20746f2063757272656e74206f776e6560008201527f7200000000000000000000000000000000000000000000000000000000000000602082015250565b6000613c796021836133f8565b9150613c8482613c1d565b604082019050919050565b60006020820190508181036000830152613ca881613c6c565b9050919050565b7f4552433732313a20617070726f76652063616c6c6572206973206e6f7420746f60008201527f6b656e206f776e6572206f7220617070726f76656420666f7220616c6c000000602082015250565b6000613d0b603d836133f8565b9150613d1682613caf565b604082019050919050565b60006020820190508181036000830152613d3a81613cfe565b9050919050565b7f4e487b7100000000000000000000000000000000000000000000000000000000600052601160045260246000fd5b6000613d7b8261349f565b91507fffffffffffffffffffffffffffffffffffffffffffffffffffffffffffffffff8203613dad57613dac613d41565b5b600182019050919050565b7f4552433732313a2063616c6c6572206973206e6f7420746f6b656e206f776e6560008201527f72206f7220617070726f76656400000000000000000000000000000000000000602082015250565b6000613e14602d836133f8565b9150613e1f82613db8565b604082019050919050565b60006020820190508181036000830152613e4381613e07565b9050919050565b7f546f6b656e20646f6573206e6f74206578697374000000000000000000000000600082015250565b6000613e806014836133f8565b9150613e8b82613e4a565b602082019050919050565b60006020820190508181036000830152613eaf81613e73565b9050919050565b7f4552433732313a20696e76616c696420746f6b656e2049440000000000000000600082015250565b6000613eec6018836133f8565b9150613ef782613eb6565b602082019050919050565b60006020820190508181036000830152613f1b81613edf565b9050919050565b7f4552433732313a2061646472657373207a65726f206973206e6f74206120766160008201527f6c6964206f776e65720000000000000000000000000000000000000000000000602082015250565b6000613f7e6029836133f8565b9150613f8982613f22565b604082019050919050565b60006020820190508181036000830152613fad81613f71565b9050919050565b7f496e646578206f7574206f6620626f756e647300000000000000000000000000600082015250565b6000613fea6013836133f8565b9150613ff582613fb4565b602082019050919050565b6000602082019050818103600083015261401981613fdd565b9050919050565b7f4e487b7100000000000000000000000000000000000000000000000000000000600052603260045260246000fd5b600081905092915050565b50565b600061406a60008361404f565b91506140758261405a565b600082019050919050565b600061408b8261405d565b9150819050919050565b7f455448207472616e73666572206661696c656400000000000000000000000000600082015250565b60006140cb6013836133f8565b91506140d682614095565b602082019050919050565b600060208201905081810360008301526140fa816140be565b9050919050565b600061410c8261349f565b91506141178361349f565b925082820390508181111561412f5761412e613d41565b5b92915050565b7f526566756e64206661696c656400000000000000000000000000000000000000600082015250565b600061416b600d836133f8565b915061417682614135565b602082019050919050565b6000602082019050818103600083015261419a8161415e565b9050919050565b600081905092915050565b7f697066733a2f2f00000000000000000000000000000000000000000000000000600082015250565b60006141e26007836141a1565b91506141ed826141ac565b600782019050919050565b6000614203826133ed565b61420d81856141a1565b935061421d818560208601613409565b80840191505092915050565b6000614234826141d5565b915061424082846141f8565b915081905092915050565b60008190508160005260206000209050919050565b60006020601f8301049050919050565b600082821b905092915050565b6000600883026142ad7fffffffffffffffffffffffffffffffffffffffffffffffffffffffffffffffff82614270565b6142b78683614270565b95508019841693508086168417925050509392505050565b6000819050919050565b60006142f46142ef6142ea8461349f565b6142cf565b61349f565b9050919050565b6000819050919050565b61430e836142d9565b61432261431a826142fb565b84845461427d565b825550505050565b600090565b61433761432a565b614342818484614305565b505050565b5b818110156143665761435b60008261432f565b600181019050614348565b5050565b601f8211156143ab5761437c8161424b565b61438584614260565b81016020851015614394578190505b6143a86143a085614260565b830182614347565b50505b505050565b600082821c905092915050565b60006143ce600019846008026143b0565b1980831691505092915050565b60006143e783836143bd565b9150826002028217905092915050565b614400826133ed565b67ffffffffffffffff8111156144195761441861362b565b5b6144238254613bec565b61442e82828561436a565b600060209050601f831160018114614461576000841561444f578287015190505b61445985826143db565b8655506144c1565b601f19841661446f8661424b565b60005b8281101561449757848901518255600182019150602085019450602081019050614472565b868310156144b457848901516144b0601f8916826143bd565b8355505b6001600288020188555050505b505050505050565b600060608201905081810360008301526144e38186613444565b90506144f260208301856135f7565b81810360408301526145048184613444565b9050949350505050565b7f4f776e61626c653a206e6577206f776e657220697320746865207a65726f206160008201527f6464726573730000000000000000000000000000000000000000000000000000602082015250565b600061456a6026836133f8565b91506145758261450e565b604082019050919050565b600060208201905081810360008301526145998161455d565b9050919050565b7f4f776e61626c653a2063616c6c6572206973206e6f7420746865206f776e6572600082015250565b60006145d66020836133f8565b91506145e1826145a0565b602082019050919050565b60006020820190508181036000830152614605816145c9565b9050919050565b7f5265656e7472616e637947756172643a207265656e7472616e742063616c6c00600082015250565b6000614642601f836133f8565b915061464d8261460c565b602082019050919050565b6000602082019050818103600083015261467181614635565b9050919050565b7f45524337323155524953746f726167653a2055524920736574206f66206e6f6e60008201527f6578697374656e7420746f6b656e000000000000000000000000000000000000602082015250565b60006146d4602e836133f8565b91506146df82614678565b604082019050919050565b60006020820190508181036000830152614703816146c7565b9050919050565b7f4552433732313a207472616e736665722066726f6d20696e636f72726563742060008201527f6f776e6572000000000000000000000000000000000000000000000000000000602082015250565b60006147666025836133f8565b91506147718261470a565b604082019050919050565b6000602082019050818103600083015261479581614759565b9050919050565b7f4552433732313a207472616e7366657220746f20746865207a65726f2061646460008201527f7265737300000000000000000000000000000000000000000000000000000000602082015250565b60006147f86024836133f8565b91506148038261479c565b604082019050919050565b60006020820190508181036000830152614827816147eb565b9050919050565b7f4552433732313a20617070726f766520746f2063616c6c657200000000000000600082015250565b60006148646019836133f8565b915061486f8261482e565b602082019050919050565b6000602082019050818103600083015261489381614857565b9050919050565b7f4552433732313a207472616e7366657220746f206e6f6e20455243373231526560008201527f63656976657220696d706c656d656e7465720000000000000000000000000000602082015250565b60006148f66032836133f8565b91506149018261489a565b604082019050919050565b60006020820190508181036000830152614925816148e9565b9050919050565b600081519050919050565b600082825260208201905092915050565b60006149538261492c565b61495d8185614937565b935061496d818560208601613409565b61497681613433565b840191505092915050565b60006080820190506149966000830187613534565b6149a36020830186613534565b6149b060408301856135f7565b81810360608301526149c28184614948565b905095945050505050565b6000815190506149dc8161335e565b92915050565b6000602082840312156149f8576149f7613328565b5b6000614a06848285016149cd565b91505092915050565b7f4552433732313a206d696e7420746f20746865207a65726f2061646472657373600082015250565b6000614a456020836133f8565b9150614a5082614a0f565b602082019050919050565b60006020820190508181036000830152614a7481614a38565b9050919050565b7f4552433732313a20746f6b656e20616c7265616479206d696e74656400000000600082015250565b6000614ab1601c836133f8565b9150614abc82614a7b565b602082019050919050565b60006020820190508181036000830152614ae081614aa4565b905091905056fea264697066735822122054ae41b3958e3d62208bbbdedc17345915f73dfb51c7ab00b56502dc26fb0a9564736f6c63430008140033",
  "linkReferences": {},
  "deployedLinkReferences": {}
}